{
  "_format": "hh-sol-artifact-1",
  "contractName": "Blockbrite",
  "sourceName": "contracts/nfts.sol",
  "abi": [
    {
      "inputs": [],
      "stateMutability": "nonpayable",
      "type": "constructor"
    },
    {
      "anonymous": false,
      "inputs": [
        {
          "indexed": true,
          "internalType": "address",
          "name": "owner",
          "type": "address"
        },
        {
          "indexed": true,
          "internalType": "address",
          "name": "approved",
          "type": "address"
        },
        {
          "indexed": true,
          "internalType": "uint256",
          "name": "tokenId",
          "type": "uint256"
        }
      ],
      "name": "Approval",
      "type": "event"
    },
    {
      "anonymous": false,
      "inputs": [
        {
          "indexed": true,
          "internalType": "address",
          "name": "owner",
          "type": "address"
        },
        {
          "indexed": true,
          "internalType": "address",
          "name": "operator",
          "type": "address"
        },
        {
          "indexed": false,
          "internalType": "bool",
          "name": "approved",
          "type": "bool"
        }
      ],
      "name": "ApprovalForAll",
      "type": "event"
    },
    {
      "anonymous": false,
      "inputs": [
        {
          "indexed": false,
          "internalType": "uint256",
          "name": "_fromTokenId",
          "type": "uint256"
        },
        {
          "indexed": false,
          "internalType": "uint256",
          "name": "_toTokenId",
          "type": "uint256"
        }
      ],
      "name": "BatchMetadataUpdate",
      "type": "event"
    },
    {
      "anonymous": false,
      "inputs": [
        {
          "indexed": false,
          "internalType": "uint256",
          "name": "_tokenId",
          "type": "uint256"
        }
      ],
      "name": "MetadataUpdate",
      "type": "event"
    },
    {
      "anonymous": false,
      "inputs": [
        {
          "indexed": true,
          "internalType": "uint256",
          "name": "tokenId",
          "type": "uint256"
        },
        {
          "indexed": true,
          "internalType": "address",
          "name": "newOwner",
          "type": "address"
        },
        {
          "indexed": false,
          "internalType": "uint256",
          "name": "price",
          "type": "uint256"
        }
      ],
      "name": "NFTBought",
      "type": "event"
    },
    {
      "anonymous": false,
      "inputs": [
        {
          "indexed": true,
          "internalType": "uint256",
          "name": "tokenId",
          "type": "uint256"
        }
      ],
      "name": "NFTDelisted",
      "type": "event"
    },
    {
      "anonymous": false,
      "inputs": [
        {
          "indexed": true,
          "internalType": "uint256",
          "name": "tokenId",
          "type": "uint256"
        },
        {
          "indexed": false,
          "internalType": "uint256",
          "name": "price",
          "type": "uint256"
        }
      ],
      "name": "NFTListed",
      "type": "event"
    },
    {
      "anonymous": false,
      "inputs": [
        {
          "indexed": true,
          "internalType": "uint256",
          "name": "tokenId",
          "type": "uint256"
        },
        {
          "indexed": true,
          "internalType": "address",
          "name": "recipient",
          "type": "address"
        },
        {
          "indexed": false,
          "internalType": "string",
          "name": "tokenURI",
          "type": "string"
        },
        {
          "indexed": false,
          "internalType": "uint256",
          "name": "price",
          "type": "uint256"
        }
      ],
      "name": "NFTMinted",
      "type": "event"
    },
    {
      "anonymous": false,
      "inputs": [
        {
          "indexed": true,
          "internalType": "address",
          "name": "previousOwner",
          "type": "address"
        },
        {
          "indexed": true,
          "internalType": "address",
          "name": "newOwner",
          "type": "address"
        }
      ],
      "name": "OwnershipTransferred",
      "type": "event"
    },
    {
      "anonymous": false,
      "inputs": [
        {
          "indexed": true,
          "internalType": "address",
          "name": "from",
          "type": "address"
        },
        {
          "indexed": true,
          "internalType": "address",
          "name": "to",
          "type": "address"
        },
        {
          "indexed": true,
          "internalType": "uint256",
          "name": "tokenId",
          "type": "uint256"
        }
      ],
      "name": "Transfer",
      "type": "event"
    },
    {
      "inputs": [],
      "name": "ROYALTY_PERCENTAGE",
      "outputs": [
        {
          "internalType": "uint256",
          "name": "",
          "type": "uint256"
        }
      ],
      "stateMutability": "view",
      "type": "function"
    },
    {
      "inputs": [
        {
          "internalType": "address",
          "name": "to",
          "type": "address"
        },
        {
          "internalType": "uint256",
          "name": "tokenId",
          "type": "uint256"
        }
      ],
      "name": "approve",
      "outputs": [],
      "stateMutability": "nonpayable",
      "type": "function"
    },
    {
      "inputs": [
        {
          "internalType": "address",
          "name": "owner",
          "type": "address"
        }
      ],
      "name": "balanceOf",
      "outputs": [
        {
          "internalType": "uint256",
          "name": "",
          "type": "uint256"
        }
      ],
      "stateMutability": "view",
      "type": "function"
    },
    {
      "inputs": [
        {
          "internalType": "uint256",
          "name": "tokenId",
          "type": "uint256"
        }
      ],
      "name": "buyNFT",
      "outputs": [],
      "stateMutability": "payable",
      "type": "function"
    },
    {
      "inputs": [
        {
          "internalType": "uint256",
          "name": "tokenId",
          "type": "uint256"
        }
      ],
      "name": "delistNFT",
      "outputs": [],
      "stateMutability": "nonpayable",
      "type": "function"
    },
    {
      "inputs": [
        {
          "internalType": "uint256",
          "name": "tokenId",
          "type": "uint256"
        }
      ],
      "name": "getApproved",
      "outputs": [
        {
          "internalType": "address",
          "name": "",
          "type": "address"
        }
      ],
      "stateMutability": "view",
      "type": "function"
    },
    {
      "inputs": [],
      "name": "getTokensForSale",
      "outputs": [
        {
          "internalType": "uint256[]",
          "name": "",
          "type": "uint256[]"
        }
      ],
      "stateMutability": "view",
      "type": "function"
    },
    {
      "inputs": [
        {
          "internalType": "string",
          "name": "category",
          "type": "string"
        }
      ],
      "name": "getTokensForSaleByCategory",
      "outputs": [
        {
          "internalType": "uint256[]",
          "name": "",
          "type": "uint256[]"
        }
      ],
      "stateMutability": "view",
      "type": "function"
    },
    {
      "inputs": [
        {
          "internalType": "address",
          "name": "owner",
          "type": "address"
        }
      ],
      "name": "getTokensForSaleByOwner",
      "outputs": [
        {
          "internalType": "uint256[]",
          "name": "",
          "type": "uint256[]"
        }
      ],
      "stateMutability": "view",
      "type": "function"
    },
    {
      "inputs": [
        {
          "internalType": "address",
          "name": "owner",
          "type": "address"
        },
        {
          "internalType": "address",
          "name": "operator",
          "type": "address"
        }
      ],
      "name": "isApprovedForAll",
      "outputs": [
        {
          "internalType": "bool",
          "name": "",
          "type": "bool"
        }
      ],
      "stateMutability": "view",
      "type": "function"
    },
    {
      "inputs": [
        {
          "internalType": "uint256",
          "name": "",
          "type": "uint256"
        }
      ],
      "name": "isListed",
      "outputs": [
        {
          "internalType": "bool",
          "name": "",
          "type": "bool"
        }
      ],
      "stateMutability": "view",
      "type": "function"
    },
    {
      "inputs": [
        {
          "internalType": "uint256",
          "name": "tokenId",
          "type": "uint256"
        },
        {
          "internalType": "uint256",
          "name": "price",
          "type": "uint256"
        }
      ],
      "name": "listNFT",
      "outputs": [],
      "stateMutability": "nonpayable",
      "type": "function"
    },
    {
      "inputs": [
        {
          "internalType": "address",
          "name": "recipient",
          "type": "address"
        },
        {
          "internalType": "string[]",
          "name": "tokenURIs",
          "type": "string[]"
        },
        {
          "internalType": "uint256[]",
          "name": "prices",
          "type": "uint256[]"
        },
        {
          "internalType": "string[]",
          "name": "categories",
          "type": "string[]"
        }
      ],
      "name": "mintMultipleNFTs",
      "outputs": [],
      "stateMutability": "nonpayable",
      "type": "function"
    },
    {
      "inputs": [],
      "name": "name",
      "outputs": [
        {
          "internalType": "string",
          "name": "",
          "type": "string"
        }
      ],
      "stateMutability": "view",
      "type": "function"
    },
    {
      "inputs": [
        {
          "internalType": "uint256",
          "name": "",
          "type": "uint256"
        }
      ],
      "name": "originalCreators",
      "outputs": [
        {
          "internalType": "address",
          "name": "",
          "type": "address"
        }
      ],
      "stateMutability": "view",
      "type": "function"
    },
    {
      "inputs": [],
      "name": "owner",
      "outputs": [
        {
          "internalType": "address",
          "name": "",
          "type": "address"
        }
      ],
      "stateMutability": "view",
      "type": "function"
    },
    {
      "inputs": [
        {
          "internalType": "uint256",
          "name": "tokenId",
          "type": "uint256"
        }
      ],
      "name": "ownerOf",
      "outputs": [
        {
          "internalType": "address",
          "name": "",
          "type": "address"
        }
      ],
      "stateMutability": "view",
      "type": "function"
    },
    {
      "inputs": [],
      "name": "renounceOwnership",
      "outputs": [],
      "stateMutability": "nonpayable",
      "type": "function"
    },
    {
      "inputs": [
        {
          "internalType": "address",
          "name": "from",
          "type": "address"
        },
        {
          "internalType": "address",
          "name": "to",
          "type": "address"
        },
        {
          "internalType": "uint256",
          "name": "tokenId",
          "type": "uint256"
        }
      ],
      "name": "safeTransferFrom",
      "outputs": [],
      "stateMutability": "nonpayable",
      "type": "function"
    },
    {
      "inputs": [
        {
          "internalType": "address",
          "name": "from",
          "type": "address"
        },
        {
          "internalType": "address",
          "name": "to",
          "type": "address"
        },
        {
          "internalType": "uint256",
          "name": "tokenId",
          "type": "uint256"
        },
        {
          "internalType": "bytes",
          "name": "data",
          "type": "bytes"
        }
      ],
      "name": "safeTransferFrom",
      "outputs": [],
      "stateMutability": "nonpayable",
      "type": "function"
    },
    {
      "inputs": [
        {
          "internalType": "address",
          "name": "operator",
          "type": "address"
        },
        {
          "internalType": "bool",
          "name": "approved",
          "type": "bool"
        }
      ],
      "name": "setApprovalForAll",
      "outputs": [],
      "stateMutability": "nonpayable",
      "type": "function"
    },
    {
      "inputs": [
        {
          "internalType": "bytes4",
          "name": "interfaceId",
          "type": "bytes4"
        }
      ],
      "name": "supportsInterface",
      "outputs": [
        {
          "internalType": "bool",
          "name": "",
          "type": "bool"
        }
      ],
      "stateMutability": "view",
      "type": "function"
    },
    {
      "inputs": [],
      "name": "symbol",
      "outputs": [
        {
          "internalType": "string",
          "name": "",
          "type": "string"
        }
      ],
      "stateMutability": "view",
      "type": "function"
    },
    {
      "inputs": [
        {
          "internalType": "uint256",
          "name": "index",
          "type": "uint256"
        }
      ],
      "name": "tokenByIndex",
      "outputs": [
        {
          "internalType": "uint256",
          "name": "",
          "type": "uint256"
        }
      ],
      "stateMutability": "view",
      "type": "function"
    },
    {
      "inputs": [
        {
          "internalType": "uint256",
          "name": "",
          "type": "uint256"
        }
      ],
      "name": "tokenCategories",
      "outputs": [
        {
          "internalType": "string",
          "name": "",
          "type": "string"
        }
      ],
      "stateMutability": "view",
      "type": "function"
    },
    {
      "inputs": [
        {
          "internalType": "address",
          "name": "owner",
          "type": "address"
        },
        {
          "internalType": "uint256",
          "name": "index",
          "type": "uint256"
        }
      ],
      "name": "tokenOfOwnerByIndex",
      "outputs": [
        {
          "internalType": "uint256",
          "name": "",
          "type": "uint256"
        }
      ],
      "stateMutability": "view",
      "type": "function"
    },
    {
      "inputs": [
        {
          "internalType": "uint256",
          "name": "",
          "type": "uint256"
        }
      ],
      "name": "tokenPrices",
      "outputs": [
        {
          "internalType": "uint256",
          "name": "",
          "type": "uint256"
        }
      ],
      "stateMutability": "view",
      "type": "function"
    },
    {
      "inputs": [
        {
          "internalType": "uint256",
          "name": "tokenId",
          "type": "uint256"
        }
      ],
      "name": "tokenURI",
      "outputs": [
        {
          "internalType": "string",
          "name": "",
          "type": "string"
        }
      ],
      "stateMutability": "view",
      "type": "function"
    },
    {
      "inputs": [],
      "name": "totalSupply",
      "outputs": [
        {
          "internalType": "uint256",
          "name": "",
          "type": "uint256"
        }
      ],
      "stateMutability": "view",
      "type": "function"
    },
    {
      "inputs": [
        {
          "internalType": "address",
          "name": "from",
          "type": "address"
        },
        {
          "internalType": "address",
          "name": "to",
          "type": "address"
        },
        {
          "internalType": "uint256",
          "name": "tokenId",
          "type": "uint256"
        }
      ],
      "name": "transferFrom",
      "outputs": [],
      "stateMutability": "nonpayable",
      "type": "function"
    },
    {
      "inputs": [
        {
          "internalType": "address",
          "name": "newOwner",
          "type": "address"
        }
      ],
      "name": "transferOwnership",
      "outputs": [],
      "stateMutability": "nonpayable",
      "type": "function"
    }
  ],
  "bytecode": "0x60806040523480156200001157600080fd5b506040518060400160405280600a815260200169426c6f636b627269746560b01b815250604051806040016040528060048152602001631353919560e21b815250816000908162000063919062000192565b50600162000072828262000192565b5050506200008f620000896200009560201b60201c565b62000099565b6200025e565b3390565b600b80546001600160a01b038381166001600160a01b0319831681179093556040519116919082907f8be0079c531659141344cd1fd0a4f28419497f9722a3daafe3b4186f6b6457e090600090a35050565b634e487b7160e01b600052604160045260246000fd5b600181811c908216806200011657607f821691505b6020821081036200013757634e487b7160e01b600052602260045260246000fd5b50919050565b601f8211156200018d576000816000526020600020601f850160051c81016020861015620001685750805b601f850160051c820191505b81811015620001895782815560010162000174565b5050505b505050565b81516001600160401b03811115620001ae57620001ae620000eb565b620001c681620001bf845462000101565b846200013d565b602080601f831160018114620001fe5760008415620001e55750858301515b600019600386901b1c1916600185901b17855562000189565b600085815260208120601f198616915b828110156200022f578886015182559484019460019091019084016200020e565b50858210156200024e5787850151600019600388901b60f8161c191681555b5050505050600190811b01905550565b612fad806200026e6000396000f3fe6080604052600436106101d85760003560e01c806370a0823111610102578063b88d4fde11610095578063e5afe3e611610064578063e5afe3e614610559578063e985e9c514610586578063f2fde38b146105cf578063fcce4883146105ef57600080fd5b8063b88d4fde146104d9578063c87b56dd146104f9578063c94ea90714610519578063cb917b9c1461053957600080fd5b80638da5cb5b116100d15780638da5cb5b1461046657806394383f141461048457806395d89b41146104a4578063a22cb465146104b957600080fd5b806370a08231146103db578063715018a6146103fb5780637570cfd4146104105780638b3059301461043057600080fd5b80632f745c591161017a57806351ed82881161014957806351ed8288146103665780635c0945cc146103795780636352211e146103a657806365e4e1c0146103c657600080fd5b80632f745c59146102f157806342842e0e14610311578063463b08db146103315780634f6ccce71461034657600080fd5b8063095ea7b3116101b6578063095ea7b31461026c57806318160ddd1461028e57806321b95ad4146102b157806323b872dd146102d157600080fd5b806301ffc9a7146101dd57806306fdde0314610212578063081812fc14610234575b600080fd5b3480156101e957600080fd5b506101fd6101f836600461265a565b61061f565b60405190151581526020015b60405180910390f35b34801561021e57600080fd5b50610227610630565b60405161020991906126c7565b34801561024057600080fd5b5061025461024f3660046126da565b6106c2565b6040516001600160a01b039091168152602001610209565b34801561027857600080fd5b5061028c61028736600461270f565b6106e9565b005b34801561029a57600080fd5b506102a3610803565b604051908152602001610209565b3480156102bd57600080fd5b506102276102cc3660046126da565b610813565b3480156102dd57600080fd5b5061028c6102ec366004612739565b6108ad565b3480156102fd57600080fd5b506102a361030c36600461270f565b6108de565b34801561031d57600080fd5b5061028c61032c366004612739565b6108f1565b34801561033d57600080fd5b506102a3600581565b34801561035257600080fd5b506102a36103613660046126da565b61090c565b61028c6103743660046126da565b61099f565b34801561038557600080fd5b50610399610394366004612832565b610bb5565b6040516102099190612866565b3480156103b257600080fd5b506102546103c13660046126da565b610d74565b3480156103d257600080fd5b50610399610dd4565b3480156103e757600080fd5b506102a36103f63660046128aa565b610f00565b34801561040757600080fd5b5061028c610f86565b34801561041c57600080fd5b5061039961042b3660046128aa565b610f9a565b34801561043c57600080fd5b5061025461044b3660046126da565b600f602052600090815260409020546001600160a01b031681565b34801561047257600080fd5b50600b546001600160a01b0316610254565b34801561049057600080fd5b5061028c61049f3660046128c5565b61110a565b3480156104b057600080fd5b50610227611320565b3480156104c557600080fd5b5061028c6104d43660046128e7565b61132f565b3480156104e557600080fd5b5061028c6104f4366004612923565b61133e565b34801561050557600080fd5b506102276105143660046126da565b611376565b34801561052557600080fd5b5061028c610534366004612a50565b611381565b34801561054557600080fd5b5061028c6105543660046126da565b6115c7565b34801561056557600080fd5b506102a36105743660046126da565b600d6020526000908152604090205481565b34801561059257600080fd5b506101fd6105a1366004612b33565b6001600160a01b03918216600090815260056020908152604080832093909416825291909152205460ff1690565b3480156105db57600080fd5b5061028c6105ea3660046128aa565b611719565b3480156105fb57600080fd5b506101fd61060a3660046126da565b600e6020526000908152604090205460ff1681565b600061062a82611792565b92915050565b60606000805461063f90612b66565b80601f016020809104026020016040519081016040528092919081815260200182805461066b90612b66565b80156106b85780601f1061068d576101008083540402835291602001916106b8565b820191906000526020600020905b81548152906001019060200180831161069b57829003601f168201915b5050505050905090565b60006106cd826117b7565b506000908152600460205260409020546001600160a01b031690565b60006106f482610d74565b9050806001600160a01b0316836001600160a01b0316036107665760405162461bcd60e51b815260206004820152602160248201527f4552433732313a20617070726f76616c20746f2063757272656e74206f776e656044820152603960f91b60648201526084015b60405180910390fd5b336001600160a01b0382161480610782575061078281336105a1565b6107f45760405162461bcd60e51b815260206004820152603d60248201527f4552433732313a20617070726f76652063616c6c6572206973206e6f7420746f60448201527f6b656e206f776e6572206f7220617070726f76656420666f7220616c6c000000606482015260840161075d565b6107fe8383611807565b505050565b600061080e60095490565b905090565b6010602052600090815260409020805461082c90612b66565b80601f016020809104026020016040519081016040528092919081815260200182805461085890612b66565b80156108a55780601f1061087a576101008083540402835291602001916108a5565b820191906000526020600020905b81548152906001019060200180831161088857829003601f168201915b505050505081565b6108b73382611875565b6108d35760405162461bcd60e51b815260040161075d90612ba0565b6107fe8383836118f4565b60006108ea8383611a65565b9392505050565b6107fe8383836040518060200160405280600081525061133e565b600061091760095490565b821061097a5760405162461bcd60e51b815260206004820152602c60248201527f455243373231456e756d657261626c653a20676c6f62616c20696e646578206f60448201526b7574206f6620626f756e647360a01b606482015260840161075d565b6009828154811061098d5761098d612bed565b90600052602060002001549050919050565b6000818152600d60205260409020546109b782611afb565b6109fa5760405162461bcd60e51b8152602060048201526014602482015273151bdad95b88191bd95cc81b9bdd08195e1a5cdd60621b604482015260640161075d565b60008111610a4a5760405162461bcd60e51b815260206004820152601a60248201527f5468697320746f6b656e206973206e6f7420666f722073616c65000000000000604482015260640161075d565b80341015610a925760405162461bcd60e51b8152602060048201526015602482015274139bdd08195b9bdd59da08195d1a195c881cd95b9d605a1b604482015260640161075d565b6000610a9d83610d74565b6000848152600f60205260408120549192506001600160a01b0390911690610ad16064610acb866005611b18565b90611b24565b6040519091506001600160a01b0383169082156108fc029083906000818181858888f19350505050158015610b0a573d6000803e3d6000fd5b506001600160a01b0383166108fc610b223484611b30565b6040518115909202916000818181858888f19350505050158015610b4a573d6000803e3d6000fd5b50610b568333876118f4565b6000858152600d60209081526040808320839055600e825291829020805460ff191690559051858152339187917f26701af1547d690b8c46ed5f0fbb8d5b115492b3b898f3dfc2e87b26cfcc1b14910160405180910390a35050505050565b6060600060015b600c548111610c5e576000818152600e602052604090205460ff168015610c39575083604051602001610bef9190612c03565b60408051601f198184030181528282528051602091820120600085815260108352929092209192610c21929101612c1f565b60405160208183030381529060405280519060200120145b15610c4c5781610c4881612cab565b9250505b80610c5681612cab565b915050610bbc565b506000816001600160401b03811115610c7957610c79612775565b604051908082528060200260200182016040528015610ca2578160200160208202803683370190505b509050600060015b600c548111610d6a576000818152600e602052604090205460ff168015610d27575085604051602001610cdd9190612c03565b60408051601f198184030181528282528051602091820120600085815260108352929092209192610d0f929101612c1f565b60405160208183030381529060405280519060200120145b15610d585780838381518110610d3f57610d3f612bed565b602090810291909101015281610d5481612cab565b9250505b80610d6281612cab565b915050610caa565b5090949350505050565b6000818152600260205260408120546001600160a01b03168061062a5760405162461bcd60e51b8152602060048201526018602482015277115490cdcc8c4e881a5b9d985b1a59081d1bdad95b88125160421b604482015260640161075d565b6060600060015b600c548111610e34576000818152600d602052604090205415801590610e0f57506000818152600e602052604090205460ff165b15610e225781610e1e81612cab565b9250505b80610e2c81612cab565b915050610ddb565b506000816001600160401b03811115610e4f57610e4f612775565b604051908082528060200260200182016040528015610e78578160200160208202803683370190505b509050600060015b600c548111610ef7576000818152600d602052604090205415801590610eb457506000818152600e602052604090205460ff165b15610ee55780838381518110610ecc57610ecc612bed565b602090810291909101015281610ee181612cab565b9250505b80610eef81612cab565b915050610e80565b50909392505050565b60006001600160a01b038216610f6a5760405162461bcd60e51b815260206004820152602960248201527f4552433732313a2061646472657373207a65726f206973206e6f7420612076616044820152683634b21037bbb732b960b91b606482015260840161075d565b506001600160a01b031660009081526003602052604090205490565b610f8e611b3c565b610f986000611b96565b565b60606000610fa783610f00565b90506000816001600160401b03811115610fc357610fc3612775565b604051908082528060200260200182016040528015610fec578160200160208202803683370190505b5090506000805b8381101561106f57600061100787836108de565b6000818152600d60205260409020549091501580159061103557506000818152600e602052604090205460ff165b15611066578084848151811061104d5761104d612bed565b60209081029190910101528261106281612cab565b9350505b50600101610ff3565b506000816001600160401b0381111561108a5761108a612775565b6040519080825280602002602001820160405280156110b3578160200160208202803683370190505b50905060005b82811015611100578381815181106110d3576110d3612bed565b60200260200101518282815181106110ed576110ed612bed565b60209081029190910101526001016110b9565b5095945050505050565b3361111483610d74565b6001600160a01b03161461116a5760405162461bcd60e51b815260206004820152601f60248201527f4f6e6c7920746865206f776e65722063616e206c69737420746865204e465400604482015260640161075d565b61117382611afb565b6111b65760405162461bcd60e51b8152602060048201526014602482015273151bdad95b88191bd95cc81b9bdd08195e1a5cdd60621b604482015260640161075d565b600081116112065760405162461bcd60e51b815260206004820152601f60248201527f5072696365206d7573742062652067726561746572207468616e207a65726f00604482015260640161075d565b6000828152600e602052604090205460ff161561125a5760405162461bcd60e51b815260206004820152601260248201527113919508185b1c9958591e481b1a5cdd195960721b604482015260640161075d565b6000828152600d60208181526040808420858155600e83529320805460ff19166001179055525481146112e25760405162461bcd60e51b815260206004820152602a60248201527f596f75206d757374206c69737420746865204e465420617420746865206d696e60448201526974696e6720707269636560b01b606482015260840161075d565b817fa6cd73580a273eec6c1026108f6b63479fbaef5356dde4ff43e4b38dd187485f8260405161131491815260200190565b60405180910390a25050565b60606001805461063f90612b66565b61133a338383611be8565b5050565b6113483383611875565b6113645760405162461bcd60e51b815260040161075d90612ba0565b61137084848484611cb6565b50505050565b606061062a82611ce9565b81518351148015611393575080518351145b6113ee5760405162461bcd60e51b815260206004820152602660248201527f496e70757420617272617973206d7573742068617665207468652073616d65206044820152650d8cadccee8d60d31b606482015260840161075d565b600a8351111561144e5760405162461bcd60e51b815260206004820152602560248201527f43616e206f6e6c79206d696e7420757020746f203130204e46547320617420616044820152642074696d6560d81b606482015260840161075d565b60005b83518110156115c057600c805490600061146a83612cab565b9091555050600c5461147c8682611df1565b61149f8186848151811061149257611492612bed565b6020026020010151611f6c565b8382815181106114b1576114b1612bed565b6020026020010151600d6000838152602001908152602001600020819055508282815181106114e2576114e2612bed565b60200260200101516010600083815260200190815260200160002090816115099190612d14565b506000818152600f6020908152604080832080546001600160a01b0319166001600160a01b038b16908117909155600e909252909120805460ff19169055855182907f23eae53a2b33c20fc1b74912840a6a2a72adc26effa68729f81e756c875df2899088908690811061157f5761157f612bed565b602002602001015187868151811061159957611599612bed565b60200260200101516040516115af929190612dd3565b60405180910390a350600101611451565b5050505050565b336115d182610d74565b6001600160a01b0316146116315760405162461bcd60e51b815260206004820152602160248201527f4f6e6c7920746865206f776e65722063616e2064656c69737420746865204e466044820152601560fa1b606482015260840161075d565b6000818152600e602052604090205460ff166116835760405162461bcd60e51b8152602060048201526011602482015270139195081a5cc81b9bdd081b1a5cdd1959607a1b604482015260640161075d565b6000818152600f6020908152604080832054600d909252909120546001600160a01b03909116903382036116c7576000838152600d602052604090208190556116d7565b6000838152600d60205260408120555b6000838152600e6020526040808220805460ff191690555184917fc0c55a6edead4433d18cb1e287a0a20a2fa003a6f483bc9823d2e504d70d1c6791a2505050565b611721611b3c565b6001600160a01b0381166117865760405162461bcd60e51b815260206004820152602660248201527f4f776e61626c653a206e6577206f776e657220697320746865207a65726f206160448201526564647265737360d01b606482015260840161075d565b61178f81611b96565b50565b60006001600160e01b0319821663780e9d6360e01b148061062a575061062a82612028565b6117c081611afb565b61178f5760405162461bcd60e51b8152602060048201526018602482015277115490cdcc8c4e881a5b9d985b1a59081d1bdad95b88125160421b604482015260640161075d565b600081815260046020526040902080546001600160a01b0319166001600160a01b038416908117909155819061183c82610d74565b6001600160a01b03167f8c5be1e5ebec7d5bd14f71427d1e84f3dd0314c0f7b2291e5b200ac8c7c3b92560405160405180910390a45050565b60008061188183610d74565b9050806001600160a01b0316846001600160a01b031614806118c857506001600160a01b0380821660009081526005602090815260408083209388168352929052205460ff165b806118ec5750836001600160a01b03166118e1846106c2565b6001600160a01b0316145b949350505050565b826001600160a01b031661190782610d74565b6001600160a01b03161461192d5760405162461bcd60e51b815260040161075d90612df5565b6001600160a01b03821661198f5760405162461bcd60e51b8152602060048201526024808201527f4552433732313a207472616e7366657220746f20746865207a65726f206164646044820152637265737360e01b606482015260840161075d565b61199c838383600161204d565b826001600160a01b03166119af82610d74565b6001600160a01b0316146119d55760405162461bcd60e51b815260040161075d90612df5565b600081815260046020908152604080832080546001600160a01b03199081169091556001600160a01b0387811680865260038552838620805460001901905590871680865283862080546001019055868652600290945282852080549092168417909155905184937fddf252ad1be2c89b69c2b068fc378daa952ba7f163c4a11628f55a4df523b3ef91a4505050565b6000611a7083610f00565b8210611ad25760405162461bcd60e51b815260206004820152602b60248201527f455243373231456e756d657261626c653a206f776e657220696e646578206f7560448201526a74206f6620626f756e647360a81b606482015260840161075d565b506001600160a01b03919091166000908152600760209081526040808320938352929052205490565b6000908152600260205260409020546001600160a01b0316151590565b60006108ea8284612e3a565b60006108ea8284612e51565b60006108ea8284612e73565b600b546001600160a01b03163314610f985760405162461bcd60e51b815260206004820181905260248201527f4f776e61626c653a2063616c6c6572206973206e6f7420746865206f776e6572604482015260640161075d565b600b80546001600160a01b038381166001600160a01b0319831681179093556040519116919082907f8be0079c531659141344cd1fd0a4f28419497f9722a3daafe3b4186f6b6457e090600090a35050565b816001600160a01b0316836001600160a01b031603611c495760405162461bcd60e51b815260206004820152601960248201527f4552433732313a20617070726f766520746f2063616c6c657200000000000000604482015260640161075d565b6001600160a01b03838116600081815260056020908152604080832094871680845294825291829020805460ff191686151590811790915591519182527f17307eab39ab6107e8899845ad3d59bd9653f200f220920489ca2b5937696c31910160405180910390a3505050565b611cc18484846118f4565b611ccd84848484612059565b6113705760405162461bcd60e51b815260040161075d90612e86565b6060611cf4826117b7565b60008281526006602052604081208054611d0d90612b66565b80601f0160208091040260200160405190810160405280929190818152602001828054611d3990612b66565b8015611d865780601f10611d5b57610100808354040283529160200191611d86565b820191906000526020600020905b815481529060010190602001808311611d6957829003601f168201915b505050505090506000611da460408051602081019091526000815290565b90508051600003611db6575092915050565b815115611de8578082604051602001611dd0929190612ed8565b60405160208183030381529060405292505050919050565b6118ec8461215a565b6001600160a01b038216611e475760405162461bcd60e51b815260206004820181905260248201527f4552433732313a206d696e7420746f20746865207a65726f2061646472657373604482015260640161075d565b611e5081611afb565b15611e9d5760405162461bcd60e51b815260206004820152601c60248201527f4552433732313a20746f6b656e20616c7265616479206d696e74656400000000604482015260640161075d565b611eab60008383600161204d565b611eb481611afb565b15611f015760405162461bcd60e51b815260206004820152601c60248201527f4552433732313a20746f6b656e20616c7265616479206d696e74656400000000604482015260640161075d565b6001600160a01b038216600081815260036020908152604080832080546001019055848352600290915280822080546001600160a01b0319168417905551839291907fddf252ad1be2c89b69c2b068fc378daa952ba7f163c4a11628f55a4df523b3ef908290a45050565b611f7582611afb565b611fd85760405162461bcd60e51b815260206004820152602e60248201527f45524337323155524953746f726167653a2055524920736574206f66206e6f6e60448201526d32bc34b9ba32b73a103a37b5b2b760911b606482015260840161075d565b6000828152600660205260409020611ff08282612d14565b506040518281527ff8e1a15aba9398e019f0b49df1a4fde98ee17ae345cb5f6b5e2c27f5033e8ce79060200160405180910390a15050565b60006001600160e01b03198216632483248360e11b148061062a575061062a826121cd565b6113708484848461221d565b60006001600160a01b0384163b1561214f57604051630a85bd0160e11b81526001600160a01b0385169063150b7a029061209d903390899088908890600401612f07565b6020604051808303816000875af19250505080156120d8575060408051601f3d908101601f191682019092526120d591810190612f44565b60015b612135573d808015612106576040519150601f19603f3d011682016040523d82523d6000602084013e61210b565b606091505b50805160000361212d5760405162461bcd60e51b815260040161075d90612e86565b805181602001fd5b6001600160e01b031916630a85bd0160e11b1490506118ec565b506001949350505050565b6060612165826117b7565b600061217c60408051602081019091526000815290565b9050600081511161219c57604051806020016040528060008152506108ea565b806121a68461234a565b6040516020016121b7929190612ed8565b6040516020818303038152906040529392505050565b60006001600160e01b031982166380ac58cd60e01b14806121fe57506001600160e01b03198216635b5e139f60e01b145b8061062a57506301ffc9a760e01b6001600160e01b031983161461062a565b600181111561228c5760405162461bcd60e51b815260206004820152603560248201527f455243373231456e756d657261626c653a20636f6e7365637574697665207472604482015274185b9cd9995c9cc81b9bdd081cdd5c1c1bdc9d1959605a1b606482015260840161075d565b816001600160a01b0385166122e8576122e381600980546000838152600a60205260408120829055600182018355919091527f6e1540171b6c0c960b71a7020d9f60077f6af931a8bbf590da0223dacf75c7af0155565b61230b565b836001600160a01b0316856001600160a01b03161461230b5761230b85826123dc565b6001600160a01b0384166123275761232281612479565b6115c0565b846001600160a01b0316846001600160a01b0316146115c0576115c08482612528565b606060006123578361256c565b60010190506000816001600160401b0381111561237657612376612775565b6040519080825280601f01601f1916602001820160405280156123a0576020820181803683370190505b5090508181016020015b600019016f181899199a1a9b1b9c1cb0b131b232b360811b600a86061a8153600a85049450846123aa57509392505050565b600060016123e984610f00565b6123f39190612e73565b600083815260086020526040902054909150808214612446576001600160a01b03841660009081526007602090815260408083208584528252808320548484528184208190558352600890915290208190555b5060009182526008602090815260408084208490556001600160a01b039094168352600781528383209183525290812055565b60095460009061248b90600190612e73565b6000838152600a6020526040812054600980549394509092849081106124b3576124b3612bed565b9060005260206000200154905080600983815481106124d4576124d4612bed565b6000918252602080832090910192909255828152600a9091526040808220849055858252812055600980548061250c5761250c612f61565b6001900381819060005260206000200160009055905550505050565b600061253383610f00565b6001600160a01b039093166000908152600760209081526040808320868452825280832085905593825260089052919091209190915550565b60008072184f03e93ff9f4daa797ed6e38ed64bf6a1f0160401b83106125ab5772184f03e93ff9f4daa797ed6e38ed64bf6a1f0160401b830492506040015b6d04ee2d6d415b85acef810000000083106125d7576d04ee2d6d415b85acef8100000000830492506020015b662386f26fc1000083106125f557662386f26fc10000830492506010015b6305f5e100831061260d576305f5e100830492506008015b612710831061262157612710830492506004015b60648310612633576064830492506002015b600a831061062a5760010192915050565b6001600160e01b03198116811461178f57600080fd5b60006020828403121561266c57600080fd5b81356108ea81612644565b60005b8381101561269257818101518382015260200161267a565b50506000910152565b600081518084526126b3816020860160208601612677565b601f01601f19169290920160200192915050565b6020815260006108ea602083018461269b565b6000602082840312156126ec57600080fd5b5035919050565b80356001600160a01b038116811461270a57600080fd5b919050565b6000806040838503121561272257600080fd5b61272b836126f3565b946020939093013593505050565b60008060006060848603121561274e57600080fd5b612757846126f3565b9250612765602085016126f3565b9150604084013590509250925092565b634e487b7160e01b600052604160045260246000fd5b604051601f8201601f191681016001600160401b03811182821017156127b3576127b3612775565b604052919050565b60006001600160401b038311156127d4576127d4612775565b6127e7601f8401601f191660200161278b565b90508281528383830111156127fb57600080fd5b828260208301376000602084830101529392505050565b600082601f83011261282357600080fd5b6108ea838335602085016127bb565b60006020828403121561284457600080fd5b81356001600160401b0381111561285a57600080fd5b6118ec84828501612812565b6020808252825182820181905260009190848201906040850190845b8181101561289e57835183529284019291840191600101612882565b50909695505050505050565b6000602082840312156128bc57600080fd5b6108ea826126f3565b600080604083850312156128d857600080fd5b50508035926020909101359150565b600080604083850312156128fa57600080fd5b612903836126f3565b91506020830135801515811461291857600080fd5b809150509250929050565b6000806000806080858703121561293957600080fd5b612942856126f3565b9350612950602086016126f3565b92506040850135915060608501356001600160401b0381111561297257600080fd5b8501601f8101871361298357600080fd5b612992878235602084016127bb565b91505092959194509250565b60006001600160401b038211156129b7576129b7612775565b5060051b60200190565b600082601f8301126129d257600080fd5b813560206129e76129e28361299e565b61278b565b82815260059290921b84018101918181019086841115612a0657600080fd5b8286015b84811015612a455780356001600160401b03811115612a295760008081fd5b612a378986838b0101612812565b845250918301918301612a0a565b509695505050505050565b60008060008060808587031215612a6657600080fd5b612a6f856126f3565b93506020808601356001600160401b0380821115612a8c57600080fd5b612a9889838a016129c1565b95506040880135915080821115612aae57600080fd5b818801915088601f830112612ac257600080fd5b8135612ad06129e28261299e565b81815260059190911b8301840190848101908b831115612aef57600080fd5b938501935b82851015612b0d57843582529385019390850190612af4565b965050506060880135925080831115612b2557600080fd5b5050612992878288016129c1565b60008060408385031215612b4657600080fd5b612b4f836126f3565b9150612b5d602084016126f3565b90509250929050565b600181811c90821680612b7a57607f821691505b602082108103612b9a57634e487b7160e01b600052602260045260246000fd5b50919050565b6020808252602d908201527f4552433732313a2063616c6c6572206973206e6f7420746f6b656e206f776e6560408201526c1c881bdc88185c1c1c9bdd9959609a1b606082015260800190565b634e487b7160e01b600052603260045260246000fd5b60008251612c15818460208701612677565b9190910192915050565b6000808354612c2d81612b66565b60018281168015612c455760018114612c5a57612c89565b60ff1984168752821515830287019450612c89565b8760005260208060002060005b85811015612c805781548a820152908401908201612c67565b50505082870194505b50929695505050505050565b634e487b7160e01b600052601160045260246000fd5b600060018201612cbd57612cbd612c95565b5060010190565b601f8211156107fe576000816000526020600020601f850160051c81016020861015612ced5750805b601f850160051c820191505b81811015612d0c57828155600101612cf9565b505050505050565b81516001600160401b03811115612d2d57612d2d612775565b612d4181612d3b8454612b66565b84612cc4565b602080601f831160018114612d765760008415612d5e5750858301515b600019600386901b1c1916600185901b178555612d0c565b600085815260208120601f198616915b82811015612da557888601518255948401946001909101908401612d86565b5085821015612dc35787850151600019600388901b60f8161c191681555b5050505050600190811b01905550565b604081526000612de6604083018561269b565b90508260208301529392505050565b60208082526025908201527f4552433732313a207472616e736665722066726f6d20696e636f72726563742060408201526437bbb732b960d91b606082015260800190565b808202811582820484141761062a5761062a612c95565b600082612e6e57634e487b7160e01b600052601260045260246000fd5b500490565b8181038181111561062a5761062a612c95565b60208082526032908201527f4552433732313a207472616e7366657220746f206e6f6e20455243373231526560408201527131b2b4bb32b91034b6b83632b6b2b73a32b960711b606082015260800190565b60008351612eea818460208801612677565b835190830190612efe818360208801612677565b01949350505050565b6001600160a01b0385811682528416602082015260408101839052608060608201819052600090612f3a9083018461269b565b9695505050505050565b600060208284031215612f5657600080fd5b81516108ea81612644565b634e487b7160e01b600052603160045260246000fdfea2646970667358221220ce8f64267eb7bcf49e55d909bd057bf2144d8011c757f5d11a12bef93d720ffc64736f6c63430008180033",
  "linkReferences": {},
  "deployedLinkReferences": {}
}