{
  "_format": "hh-sol-artifact-1",
  "contractName": "MyNFT",
  "sourceName": "contracts/nfts.sol",
  "abi": [
    {
      "inputs": [],
      "stateMutability": "nonpayable",
      "type": "constructor"
    },
    {
      "anonymous": false,
      "inputs": [
        {
          "indexed": true,
          "internalType": "address",
          "name": "owner",
          "type": "address"
        },
        {
          "indexed": true,
          "internalType": "address",
          "name": "approved",
          "type": "address"
        },
        {
          "indexed": true,
          "internalType": "uint256",
          "name": "tokenId",
          "type": "uint256"
        }
      ],
      "name": "Approval",
      "type": "event"
    },
    {
      "anonymous": false,
      "inputs": [
        {
          "indexed": true,
          "internalType": "address",
          "name": "owner",
          "type": "address"
        },
        {
          "indexed": true,
          "internalType": "address",
          "name": "operator",
          "type": "address"
        },
        {
          "indexed": false,
          "internalType": "bool",
          "name": "approved",
          "type": "bool"
        }
      ],
      "name": "ApprovalForAll",
      "type": "event"
    },
    {
      "anonymous": false,
      "inputs": [
        {
          "indexed": false,
          "internalType": "uint256",
          "name": "_fromTokenId",
          "type": "uint256"
        },
        {
          "indexed": false,
          "internalType": "uint256",
          "name": "_toTokenId",
          "type": "uint256"
        }
      ],
      "name": "BatchMetadataUpdate",
      "type": "event"
    },
    {
      "anonymous": false,
      "inputs": [
        {
          "indexed": false,
          "internalType": "uint256",
          "name": "_tokenId",
          "type": "uint256"
        }
      ],
      "name": "MetadataUpdate",
      "type": "event"
    },
    {
      "anonymous": false,
      "inputs": [
        {
          "indexed": true,
          "internalType": "uint256",
          "name": "tokenId",
          "type": "uint256"
        },
        {
          "indexed": true,
          "internalType": "address",
          "name": "newOwner",
          "type": "address"
        },
        {
          "indexed": false,
          "internalType": "uint256",
          "name": "price",
          "type": "uint256"
        }
      ],
      "name": "NFTBought",
      "type": "event"
    },
    {
      "anonymous": false,
      "inputs": [
        {
          "indexed": true,
          "internalType": "uint256",
          "name": "tokenId",
          "type": "uint256"
        }
      ],
      "name": "NFTDelisted",
      "type": "event"
    },
    {
      "anonymous": false,
      "inputs": [
        {
          "indexed": true,
          "internalType": "uint256",
          "name": "tokenId",
          "type": "uint256"
        },
        {
          "indexed": false,
          "internalType": "uint256",
          "name": "price",
          "type": "uint256"
        }
      ],
      "name": "NFTListed",
      "type": "event"
    },
    {
      "anonymous": false,
      "inputs": [
        {
          "indexed": true,
          "internalType": "uint256",
          "name": "tokenId",
          "type": "uint256"
        },
        {
          "indexed": true,
          "internalType": "address",
          "name": "recipient",
          "type": "address"
        },
        {
          "indexed": false,
          "internalType": "string",
          "name": "tokenURI",
          "type": "string"
        },
        {
          "indexed": false,
          "internalType": "uint256",
          "name": "price",
          "type": "uint256"
        }
      ],
      "name": "NFTMinted",
      "type": "event"
    },
    {
      "anonymous": false,
      "inputs": [
        {
          "indexed": true,
          "internalType": "address",
          "name": "previousOwner",
          "type": "address"
        },
        {
          "indexed": true,
          "internalType": "address",
          "name": "newOwner",
          "type": "address"
        }
      ],
      "name": "OwnershipTransferred",
      "type": "event"
    },
    {
      "anonymous": false,
      "inputs": [
        {
          "indexed": true,
          "internalType": "address",
          "name": "from",
          "type": "address"
        },
        {
          "indexed": true,
          "internalType": "address",
          "name": "to",
          "type": "address"
        },
        {
          "indexed": true,
          "internalType": "uint256",
          "name": "tokenId",
          "type": "uint256"
        }
      ],
      "name": "Transfer",
      "type": "event"
    },
    {
      "inputs": [],
      "name": "ROYALTY_PERCENTAGE",
      "outputs": [
        {
          "internalType": "uint256",
          "name": "",
          "type": "uint256"
        }
      ],
      "stateMutability": "view",
      "type": "function"
    },
    {
      "inputs": [
        {
          "internalType": "address",
          "name": "to",
          "type": "address"
        },
        {
          "internalType": "uint256",
          "name": "tokenId",
          "type": "uint256"
        }
      ],
      "name": "approve",
      "outputs": [],
      "stateMutability": "nonpayable",
      "type": "function"
    },
    {
      "inputs": [
        {
          "internalType": "address",
          "name": "owner",
          "type": "address"
        }
      ],
      "name": "balanceOf",
      "outputs": [
        {
          "internalType": "uint256",
          "name": "",
          "type": "uint256"
        }
      ],
      "stateMutability": "view",
      "type": "function"
    },
    {
      "inputs": [
        {
          "internalType": "uint256",
          "name": "tokenId",
          "type": "uint256"
        }
      ],
      "name": "buyNFT",
      "outputs": [],
      "stateMutability": "payable",
      "type": "function"
    },
    {
      "inputs": [
        {
          "internalType": "uint256",
          "name": "tokenId",
          "type": "uint256"
        }
      ],
      "name": "delistNFT",
      "outputs": [],
      "stateMutability": "nonpayable",
      "type": "function"
    },
    {
      "inputs": [
        {
          "internalType": "uint256",
          "name": "tokenId",
          "type": "uint256"
        }
      ],
      "name": "getApproved",
      "outputs": [
        {
          "internalType": "address",
          "name": "",
          "type": "address"
        }
      ],
      "stateMutability": "view",
      "type": "function"
    },
    {
      "inputs": [],
      "name": "getTokensForSale",
      "outputs": [
        {
          "internalType": "uint256[]",
          "name": "",
          "type": "uint256[]"
        }
      ],
      "stateMutability": "view",
      "type": "function"
    },
    {
      "inputs": [
        {
          "internalType": "address",
          "name": "owner",
          "type": "address"
        }
      ],
      "name": "getTokensForSaleByOwner",
      "outputs": [
        {
          "internalType": "uint256[]",
          "name": "",
          "type": "uint256[]"
        }
      ],
      "stateMutability": "view",
      "type": "function"
    },
    {
      "inputs": [
        {
          "internalType": "address",
          "name": "owner",
          "type": "address"
        },
        {
          "internalType": "address",
          "name": "operator",
          "type": "address"
        }
      ],
      "name": "isApprovedForAll",
      "outputs": [
        {
          "internalType": "bool",
          "name": "",
          "type": "bool"
        }
      ],
      "stateMutability": "view",
      "type": "function"
    },
    {
      "inputs": [
        {
          "internalType": "uint256",
          "name": "",
          "type": "uint256"
        }
      ],
      "name": "isListed",
      "outputs": [
        {
          "internalType": "bool",
          "name": "",
          "type": "bool"
        }
      ],
      "stateMutability": "view",
      "type": "function"
    },
    {
      "inputs": [
        {
          "internalType": "uint256",
          "name": "tokenId",
          "type": "uint256"
        },
        {
          "internalType": "uint256",
          "name": "price",
          "type": "uint256"
        }
      ],
      "name": "listNFT",
      "outputs": [],
      "stateMutability": "nonpayable",
      "type": "function"
    },
    {
      "inputs": [
        {
          "internalType": "address",
          "name": "recipient",
          "type": "address"
        },
        {
          "internalType": "string[]",
          "name": "tokenURIs",
          "type": "string[]"
        },
        {
          "internalType": "uint256[]",
          "name": "prices",
          "type": "uint256[]"
        }
      ],
      "name": "mintMultipleNFTs",
      "outputs": [],
      "stateMutability": "nonpayable",
      "type": "function"
    },
    {
      "inputs": [],
      "name": "name",
      "outputs": [
        {
          "internalType": "string",
          "name": "",
          "type": "string"
        }
      ],
      "stateMutability": "view",
      "type": "function"
    },
    {
      "inputs": [
        {
          "internalType": "uint256",
          "name": "",
          "type": "uint256"
        }
      ],
      "name": "originalCreators",
      "outputs": [
        {
          "internalType": "address",
          "name": "",
          "type": "address"
        }
      ],
      "stateMutability": "view",
      "type": "function"
    },
    {
      "inputs": [],
      "name": "owner",
      "outputs": [
        {
          "internalType": "address",
          "name": "",
          "type": "address"
        }
      ],
      "stateMutability": "view",
      "type": "function"
    },
    {
      "inputs": [
        {
          "internalType": "uint256",
          "name": "tokenId",
          "type": "uint256"
        }
      ],
      "name": "ownerOf",
      "outputs": [
        {
          "internalType": "address",
          "name": "",
          "type": "address"
        }
      ],
      "stateMutability": "view",
      "type": "function"
    },
    {
      "inputs": [],
      "name": "renounceOwnership",
      "outputs": [],
      "stateMutability": "nonpayable",
      "type": "function"
    },
    {
      "inputs": [
        {
          "internalType": "address",
          "name": "from",
          "type": "address"
        },
        {
          "internalType": "address",
          "name": "to",
          "type": "address"
        },
        {
          "internalType": "uint256",
          "name": "tokenId",
          "type": "uint256"
        }
      ],
      "name": "safeTransferFrom",
      "outputs": [],
      "stateMutability": "nonpayable",
      "type": "function"
    },
    {
      "inputs": [
        {
          "internalType": "address",
          "name": "from",
          "type": "address"
        },
        {
          "internalType": "address",
          "name": "to",
          "type": "address"
        },
        {
          "internalType": "uint256",
          "name": "tokenId",
          "type": "uint256"
        },
        {
          "internalType": "bytes",
          "name": "data",
          "type": "bytes"
        }
      ],
      "name": "safeTransferFrom",
      "outputs": [],
      "stateMutability": "nonpayable",
      "type": "function"
    },
    {
      "inputs": [
        {
          "internalType": "address",
          "name": "operator",
          "type": "address"
        },
        {
          "internalType": "bool",
          "name": "approved",
          "type": "bool"
        }
      ],
      "name": "setApprovalForAll",
      "outputs": [],
      "stateMutability": "nonpayable",
      "type": "function"
    },
    {
      "inputs": [
        {
          "internalType": "bytes4",
          "name": "interfaceId",
          "type": "bytes4"
        }
      ],
      "name": "supportsInterface",
      "outputs": [
        {
          "internalType": "bool",
          "name": "",
          "type": "bool"
        }
      ],
      "stateMutability": "view",
      "type": "function"
    },
    {
      "inputs": [],
      "name": "symbol",
      "outputs": [
        {
          "internalType": "string",
          "name": "",
          "type": "string"
        }
      ],
      "stateMutability": "view",
      "type": "function"
    },
    {
      "inputs": [
        {
          "internalType": "uint256",
          "name": "index",
          "type": "uint256"
        }
      ],
      "name": "tokenByIndex",
      "outputs": [
        {
          "internalType": "uint256",
          "name": "",
          "type": "uint256"
        }
      ],
      "stateMutability": "view",
      "type": "function"
    },
    {
      "inputs": [
        {
          "internalType": "address",
          "name": "owner",
          "type": "address"
        },
        {
          "internalType": "uint256",
          "name": "index",
          "type": "uint256"
        }
      ],
      "name": "tokenOfOwnerByIndex",
      "outputs": [
        {
          "internalType": "uint256",
          "name": "",
          "type": "uint256"
        }
      ],
      "stateMutability": "view",
      "type": "function"
    },
    {
      "inputs": [
        {
          "internalType": "uint256",
          "name": "",
          "type": "uint256"
        }
      ],
      "name": "tokenPrices",
      "outputs": [
        {
          "internalType": "uint256",
          "name": "",
          "type": "uint256"
        }
      ],
      "stateMutability": "view",
      "type": "function"
    },
    {
      "inputs": [
        {
          "internalType": "uint256",
          "name": "tokenId",
          "type": "uint256"
        }
      ],
      "name": "tokenURI",
      "outputs": [
        {
          "internalType": "string",
          "name": "",
          "type": "string"
        }
      ],
      "stateMutability": "view",
      "type": "function"
    },
    {
      "inputs": [],
      "name": "totalSupply",
      "outputs": [
        {
          "internalType": "uint256",
          "name": "",
          "type": "uint256"
        }
      ],
      "stateMutability": "view",
      "type": "function"
    },
    {
      "inputs": [
        {
          "internalType": "address",
          "name": "from",
          "type": "address"
        },
        {
          "internalType": "address",
          "name": "to",
          "type": "address"
        },
        {
          "internalType": "uint256",
          "name": "tokenId",
          "type": "uint256"
        }
      ],
      "name": "transferFrom",
      "outputs": [],
      "stateMutability": "nonpayable",
      "type": "function"
    },
    {
      "inputs": [
        {
          "internalType": "address",
          "name": "newOwner",
          "type": "address"
        }
      ],
      "name": "transferOwnership",
      "outputs": [],
      "stateMutability": "nonpayable",
      "type": "function"
    }
  ],
  "bytecode": "0x60806040523480156200001157600080fd5b5060405180604001604052806005815260200164135e53919560da1b815250604051806040016040528060048152602001631353919560e21b81525081600090816200005e91906200018d565b5060016200006d82826200018d565b5050506200008a620000846200009060201b60201c565b62000094565b62000259565b3390565b600b80546001600160a01b038381166001600160a01b0319831681179093556040519116919082907f8be0079c531659141344cd1fd0a4f28419497f9722a3daafe3b4186f6b6457e090600090a35050565b634e487b7160e01b600052604160045260246000fd5b600181811c908216806200011157607f821691505b6020821081036200013257634e487b7160e01b600052602260045260246000fd5b50919050565b601f82111562000188576000816000526020600020601f850160051c81016020861015620001635750805b601f850160051c820191505b8181101562000184578281556001016200016f565b5050505b505050565b81516001600160401b03811115620001a957620001a9620000e6565b620001c181620001ba8454620000fc565b8462000138565b602080601f831160018114620001f95760008415620001e05750858301515b600019600386901b1c1916600185901b17855562000184565b600085815260208120601f198616915b828110156200022a5788860151825594840194600190910190840162000209565b5085821015620002495787850151600019600388901b60f8161c191681555b5050505050600190811b01905550565b612b6d80620002696000396000f3fe6080604052600436106101c25760003560e01c806370a08231116100f7578063a22cb46511610095578063e5afe3e611610064578063e5afe3e614610503578063e985e9c514610530578063f2fde38b14610579578063fcce48831461059957600080fd5b8063a22cb46514610483578063b88d4fde146104a3578063c87b56dd146104c3578063cb917b9c146104e357600080fd5b80638b305930116100d15780638b305930146103fa5780638da5cb5b1461043057806394383f141461044e57806395d89b411461046e57600080fd5b806370a08231146103a5578063715018a6146103c55780637570cfd4146103da57600080fd5b806342842e0e1161016457806351ed82881161013e57806351ed828814610330578063573a31a6146103435780636352211e1461036357806365e4e1c01461038357600080fd5b806342842e0e146102db578063463b08db146102fb5780634f6ccce71461031057600080fd5b8063095ea7b3116101a0578063095ea7b31461025657806318160ddd1461027857806323b872dd1461029b5780632f745c59146102bb57600080fd5b806301ffc9a7146101c757806306fdde03146101fc578063081812fc1461021e575b600080fd5b3480156101d357600080fd5b506101e76101e2366004612303565b6105c9565b60405190151581526020015b60405180910390f35b34801561020857600080fd5b506102116105da565b6040516101f39190612370565b34801561022a57600080fd5b5061023e610239366004612383565b61066c565b6040516001600160a01b0390911681526020016101f3565b34801561026257600080fd5b506102766102713660046123b8565b610693565b005b34801561028457600080fd5b5061028d6107ad565b6040519081526020016101f3565b3480156102a757600080fd5b506102766102b63660046123e2565b6107bd565b3480156102c757600080fd5b5061028d6102d63660046123b8565b6107ee565b3480156102e757600080fd5b506102766102f63660046123e2565b610801565b34801561030757600080fd5b5061028d600581565b34801561031c57600080fd5b5061028d61032b366004612383565b61081c565b61027661033e366004612383565b6108af565b34801561034f57600080fd5b5061027661035e366004612550565b610ac5565b34801561036f57600080fd5b5061023e61037e366004612383565b610ca7565b34801561038f57600080fd5b50610398610d07565b6040516101f3919061264b565b3480156103b157600080fd5b5061028d6103c036600461268f565b610e34565b3480156103d157600080fd5b50610276610eba565b3480156103e657600080fd5b506103986103f536600461268f565b610ece565b34801561040657600080fd5b5061023e610415366004612383565b600f602052600090815260409020546001600160a01b031681565b34801561043c57600080fd5b50600b546001600160a01b031661023e565b34801561045a57600080fd5b506102766104693660046126aa565b611040565b34801561047a57600080fd5b50610211611256565b34801561048f57600080fd5b5061027661049e3660046126cc565b611265565b3480156104af57600080fd5b506102766104be366004612708565b611274565b3480156104cf57600080fd5b506102116104de366004612383565b6112a6565b3480156104ef57600080fd5b506102766104fe366004612383565b6112b1565b34801561050f57600080fd5b5061028d61051e366004612383565b600d6020526000908152604090205481565b34801561053c57600080fd5b506101e761054b366004612784565b6001600160a01b03918216600090815260056020908152604080832093909416825291909152205460ff1690565b34801561058557600080fd5b5061027661059436600461268f565b6113ba565b3480156105a557600080fd5b506101e76105b4366004612383565b600e6020526000908152604090205460ff1681565b60006105d482611433565b92915050565b6060600080546105e9906127b7565b80601f0160208091040260200160405190810160405280929190818152602001828054610615906127b7565b80156106625780601f1061063757610100808354040283529160200191610662565b820191906000526020600020905b81548152906001019060200180831161064557829003601f168201915b5050505050905090565b600061067782611458565b506000908152600460205260409020546001600160a01b031690565b600061069e82610ca7565b9050806001600160a01b0316836001600160a01b0316036107105760405162461bcd60e51b815260206004820152602160248201527f4552433732313a20617070726f76616c20746f2063757272656e74206f776e656044820152603960f91b60648201526084015b60405180910390fd5b336001600160a01b038216148061072c575061072c813361054b565b61079e5760405162461bcd60e51b815260206004820152603d60248201527f4552433732313a20617070726f76652063616c6c6572206973206e6f7420746f60448201527f6b656e206f776e6572206f7220617070726f76656420666f7220616c6c0000006064820152608401610707565b6107a883836114a8565b505050565b60006107b860095490565b905090565b6107c73382611516565b6107e35760405162461bcd60e51b8152600401610707906127f1565b6107a8838383611595565b60006107fa8383611706565b9392505050565b6107a883838360405180602001604052806000815250611274565b600061082760095490565b821061088a5760405162461bcd60e51b815260206004820152602c60248201527f455243373231456e756d657261626c653a20676c6f62616c20696e646578206f60448201526b7574206f6620626f756e647360a01b6064820152608401610707565b6009828154811061089d5761089d61283e565b90600052602060002001549050919050565b6000818152600d60205260409020546108c78261179c565b61090a5760405162461bcd60e51b8152602060048201526014602482015273151bdad95b88191bd95cc81b9bdd08195e1a5cdd60621b6044820152606401610707565b6000811161095a5760405162461bcd60e51b815260206004820152601a60248201527f5468697320746f6b656e206973206e6f7420666f722073616c650000000000006044820152606401610707565b803410156109a25760405162461bcd60e51b8152602060048201526015602482015274139bdd08195b9bdd59da08195d1a195c881cd95b9d605a1b6044820152606401610707565b60006109ad83610ca7565b6000848152600f60205260408120549192506001600160a01b03909116906109e160646109db8660056117b9565b906117c5565b6040519091506001600160a01b0383169082156108fc029083906000818181858888f19350505050158015610a1a573d6000803e3d6000fd5b506001600160a01b0383166108fc610a3234846117d1565b6040518115909202916000818181858888f19350505050158015610a5a573d6000803e3d6000fd5b50610a66833387611595565b6000858152600d60209081526040808320839055600e825291829020805460ff191690559051858152339187917f26701af1547d690b8c46ed5f0fbb8d5b115492b3b898f3dfc2e87b26cfcc1b14910160405180910390a35050505050565b8051825114610b165760405162461bcd60e51b815260206004820152601f60248201527f5552497320616e6420707269636573206c656e677468206d69736d61746368006044820152606401610707565b600a82511115610b765760405162461bcd60e51b815260206004820152602560248201527f43616e206f6e6c79206d696e7420757020746f203130204e46547320617420616044820152642074696d6560d81b6064820152608401610707565b60005b8251811015610ca157600c8054906000610b928361286a565b9091555050600c54610ba485826117dd565b610bc781858481518110610bba57610bba61283e565b6020026020010151611958565b828281518110610bd957610bd961283e565b6020908102919091018101516000838152600d8352604080822092909255600f835281812080546001600160a01b0319166001600160a01b038a16908117909155600e90935220805460ff19169055845182907f23eae53a2b33c20fc1b74912840a6a2a72adc26effa68729f81e756c875df28990879086908110610c6057610c6061283e565b6020026020010151868681518110610c7a57610c7a61283e565b6020026020010151604051610c90929190612883565b60405180910390a350600101610b79565b50505050565b6000818152600260205260408120546001600160a01b0316806105d45760405162461bcd60e51b8152602060048201526018602482015277115490cdcc8c4e881a5b9d985b1a59081d1bdad95b88125160421b6044820152606401610707565b6060600060015b600c548111610d67576000818152600d602052604090205415801590610d4257506000818152600e602052604090205460ff165b15610d555781610d518161286a565b9250505b80610d5f8161286a565b915050610d0e565b5060008167ffffffffffffffff811115610d8357610d8361241e565b604051908082528060200260200182016040528015610dac578160200160208202803683370190505b509050600060015b600c548111610e2b576000818152600d602052604090205415801590610de857506000818152600e602052604090205460ff165b15610e195780838381518110610e0057610e0061283e565b602090810291909101015281610e158161286a565b9250505b80610e238161286a565b915050610db4565b50909392505050565b60006001600160a01b038216610e9e5760405162461bcd60e51b815260206004820152602960248201527f4552433732313a2061646472657373207a65726f206973206e6f7420612076616044820152683634b21037bbb732b960b91b6064820152608401610707565b506001600160a01b031660009081526003602052604090205490565b610ec2611a14565b610ecc6000611a6e565b565b60606000610edb83610e34565b905060008167ffffffffffffffff811115610ef857610ef861241e565b604051908082528060200260200182016040528015610f21578160200160208202803683370190505b5090506000805b83811015610fa4576000610f3c87836107ee565b6000818152600d602052604090205490915015801590610f6a57506000818152600e602052604090205460ff165b15610f9b5780848481518110610f8257610f8261283e565b602090810291909101015282610f978161286a565b9350505b50600101610f28565b5060008167ffffffffffffffff811115610fc057610fc061241e565b604051908082528060200260200182016040528015610fe9578160200160208202803683370190505b50905060005b82811015611036578381815181106110095761100961283e565b60200260200101518282815181106110235761102361283e565b6020908102919091010152600101610fef565b5095945050505050565b3361104a83610ca7565b6001600160a01b0316146110a05760405162461bcd60e51b815260206004820152601f60248201527f4f6e6c7920746865206f776e65722063616e206c69737420746865204e4654006044820152606401610707565b6110a98261179c565b6110ec5760405162461bcd60e51b8152602060048201526014602482015273151bdad95b88191bd95cc81b9bdd08195e1a5cdd60621b6044820152606401610707565b6000811161113c5760405162461bcd60e51b815260206004820152601f60248201527f5072696365206d7573742062652067726561746572207468616e207a65726f006044820152606401610707565b6000828152600e602052604090205460ff16156111905760405162461bcd60e51b815260206004820152601260248201527113919508185b1c9958591e481b1a5cdd195960721b6044820152606401610707565b6000828152600d60208181526040808420858155600e83529320805460ff19166001179055525481146112185760405162461bcd60e51b815260206004820152602a60248201527f596f75206d757374206c69737420746865204e465420617420746865206d696e60448201526974696e6720707269636560b01b6064820152608401610707565b817fa6cd73580a273eec6c1026108f6b63479fbaef5356dde4ff43e4b38dd187485f8260405161124a91815260200190565b60405180910390a25050565b6060600180546105e9906127b7565b611270338383611ac0565b5050565b61127e3383611516565b61129a5760405162461bcd60e51b8152600401610707906127f1565b610ca184848484611b8e565b60606105d482611bc1565b336112bb82610ca7565b6001600160a01b03161461131b5760405162461bcd60e51b815260206004820152602160248201527f4f6e6c7920746865206f776e65722063616e2064656c69737420746865204e466044820152601560fa1b6064820152608401610707565b6000818152600e602052604090205460ff1661136d5760405162461bcd60e51b8152602060048201526011602482015270139195081a5cc81b9bdd081b1a5cdd1959607a1b6044820152606401610707565b6000818152600e60209081526040808320805460ff19169055600d9091528082208290555182917fc0c55a6edead4433d18cb1e287a0a20a2fa003a6f483bc9823d2e504d70d1c6791a250565b6113c2611a14565b6001600160a01b0381166114275760405162461bcd60e51b815260206004820152602660248201527f4f776e61626c653a206e6577206f776e657220697320746865207a65726f206160448201526564647265737360d01b6064820152608401610707565b61143081611a6e565b50565b60006001600160e01b0319821663780e9d6360e01b14806105d457506105d482611cc9565b6114618161179c565b6114305760405162461bcd60e51b8152602060048201526018602482015277115490cdcc8c4e881a5b9d985b1a59081d1bdad95b88125160421b6044820152606401610707565b600081815260046020526040902080546001600160a01b0319166001600160a01b03841690811790915581906114dd82610ca7565b6001600160a01b03167f8c5be1e5ebec7d5bd14f71427d1e84f3dd0314c0f7b2291e5b200ac8c7c3b92560405160405180910390a45050565b60008061152283610ca7565b9050806001600160a01b0316846001600160a01b0316148061156957506001600160a01b0380821660009081526005602090815260408083209388168352929052205460ff165b8061158d5750836001600160a01b03166115828461066c565b6001600160a01b0316145b949350505050565b826001600160a01b03166115a882610ca7565b6001600160a01b0316146115ce5760405162461bcd60e51b8152600401610707906128a5565b6001600160a01b0382166116305760405162461bcd60e51b8152602060048201526024808201527f4552433732313a207472616e7366657220746f20746865207a65726f206164646044820152637265737360e01b6064820152608401610707565b61163d8383836001611cee565b826001600160a01b031661165082610ca7565b6001600160a01b0316146116765760405162461bcd60e51b8152600401610707906128a5565b600081815260046020908152604080832080546001600160a01b03199081169091556001600160a01b0387811680865260038552838620805460001901905590871680865283862080546001019055868652600290945282852080549092168417909155905184937fddf252ad1be2c89b69c2b068fc378daa952ba7f163c4a11628f55a4df523b3ef91a4505050565b600061171183610e34565b82106117735760405162461bcd60e51b815260206004820152602b60248201527f455243373231456e756d657261626c653a206f776e657220696e646578206f7560448201526a74206f6620626f756e647360a81b6064820152608401610707565b506001600160a01b03919091166000908152600760209081526040808320938352929052205490565b6000908152600260205260409020546001600160a01b0316151590565b60006107fa82846128ea565b60006107fa8284612901565b60006107fa8284612923565b6001600160a01b0382166118335760405162461bcd60e51b815260206004820181905260248201527f4552433732313a206d696e7420746f20746865207a65726f20616464726573736044820152606401610707565b61183c8161179c565b156118895760405162461bcd60e51b815260206004820152601c60248201527f4552433732313a20746f6b656e20616c7265616479206d696e746564000000006044820152606401610707565b611897600083836001611cee565b6118a08161179c565b156118ed5760405162461bcd60e51b815260206004820152601c60248201527f4552433732313a20746f6b656e20616c7265616479206d696e746564000000006044820152606401610707565b6001600160a01b038216600081815260036020908152604080832080546001019055848352600290915280822080546001600160a01b0319168417905551839291907fddf252ad1be2c89b69c2b068fc378daa952ba7f163c4a11628f55a4df523b3ef908290a45050565b6119618261179c565b6119c45760405162461bcd60e51b815260206004820152602e60248201527f45524337323155524953746f726167653a2055524920736574206f66206e6f6e60448201526d32bc34b9ba32b73a103a37b5b2b760911b6064820152608401610707565b60008281526006602052604090206119dc8282612986565b506040518281527ff8e1a15aba9398e019f0b49df1a4fde98ee17ae345cb5f6b5e2c27f5033e8ce79060200160405180910390a15050565b600b546001600160a01b03163314610ecc5760405162461bcd60e51b815260206004820181905260248201527f4f776e61626c653a2063616c6c6572206973206e6f7420746865206f776e65726044820152606401610707565b600b80546001600160a01b038381166001600160a01b0319831681179093556040519116919082907f8be0079c531659141344cd1fd0a4f28419497f9722a3daafe3b4186f6b6457e090600090a35050565b816001600160a01b0316836001600160a01b031603611b215760405162461bcd60e51b815260206004820152601960248201527f4552433732313a20617070726f766520746f2063616c6c6572000000000000006044820152606401610707565b6001600160a01b03838116600081815260056020908152604080832094871680845294825291829020805460ff191686151590811790915591519182527f17307eab39ab6107e8899845ad3d59bd9653f200f220920489ca2b5937696c31910160405180910390a3505050565b611b99848484611595565b611ba584848484611cfa565b610ca15760405162461bcd60e51b815260040161070790612a46565b6060611bcc82611458565b60008281526006602052604081208054611be5906127b7565b80601f0160208091040260200160405190810160405280929190818152602001828054611c11906127b7565b8015611c5e5780601f10611c3357610100808354040283529160200191611c5e565b820191906000526020600020905b815481529060010190602001808311611c4157829003601f168201915b505050505090506000611c7c60408051602081019091526000815290565b90508051600003611c8e575092915050565b815115611cc0578082604051602001611ca8929190612a98565b60405160208183030381529060405292505050919050565b61158d84611dfb565b60006001600160e01b03198216632483248360e11b14806105d457506105d482611e6e565b610ca184848484611ebe565b60006001600160a01b0384163b15611df057604051630a85bd0160e11b81526001600160a01b0385169063150b7a0290611d3e903390899088908890600401612ac7565b6020604051808303816000875af1925050508015611d79575060408051601f3d908101601f19168201909252611d7691810190612b04565b60015b611dd6573d808015611da7576040519150601f19603f3d011682016040523d82523d6000602084013e611dac565b606091505b508051600003611dce5760405162461bcd60e51b815260040161070790612a46565b805181602001fd5b6001600160e01b031916630a85bd0160e11b14905061158d565b506001949350505050565b6060611e0682611458565b6000611e1d60408051602081019091526000815290565b90506000815111611e3d57604051806020016040528060008152506107fa565b80611e4784611ff2565b604051602001611e58929190612a98565b6040516020818303038152906040529392505050565b60006001600160e01b031982166380ac58cd60e01b1480611e9f57506001600160e01b03198216635b5e139f60e01b145b806105d457506301ffc9a760e01b6001600160e01b03198316146105d4565b6001811115611f2d5760405162461bcd60e51b815260206004820152603560248201527f455243373231456e756d657261626c653a20636f6e7365637574697665207472604482015274185b9cd9995c9cc81b9bdd081cdd5c1c1bdc9d1959605a1b6064820152608401610707565b816001600160a01b038516611f8957611f8481600980546000838152600a60205260408120829055600182018355919091527f6e1540171b6c0c960b71a7020d9f60077f6af931a8bbf590da0223dacf75c7af0155565b611fac565b836001600160a01b0316856001600160a01b031614611fac57611fac8582612085565b6001600160a01b038416611fc857611fc381612122565b611feb565b846001600160a01b0316846001600160a01b031614611feb57611feb84826121d1565b5050505050565b60606000611fff83612215565b600101905060008167ffffffffffffffff81111561201f5761201f61241e565b6040519080825280601f01601f191660200182016040528015612049576020820181803683370190505b5090508181016020015b600019016f181899199a1a9b1b9c1cb0b131b232b360811b600a86061a8153600a850494508461205357509392505050565b6000600161209284610e34565b61209c9190612923565b6000838152600860205260409020549091508082146120ef576001600160a01b03841660009081526007602090815260408083208584528252808320548484528184208190558352600890915290208190555b5060009182526008602090815260408084208490556001600160a01b039094168352600781528383209183525290812055565b60095460009061213490600190612923565b6000838152600a60205260408120546009805493945090928490811061215c5761215c61283e565b90600052602060002001549050806009838154811061217d5761217d61283e565b6000918252602080832090910192909255828152600a909152604080822084905585825281205560098054806121b5576121b5612b21565b6001900381819060005260206000200160009055905550505050565b60006121dc83610e34565b6001600160a01b039093166000908152600760209081526040808320868452825280832085905593825260089052919091209190915550565b60008072184f03e93ff9f4daa797ed6e38ed64bf6a1f0160401b83106122545772184f03e93ff9f4daa797ed6e38ed64bf6a1f0160401b830492506040015b6d04ee2d6d415b85acef81000000008310612280576d04ee2d6d415b85acef8100000000830492506020015b662386f26fc10000831061229e57662386f26fc10000830492506010015b6305f5e10083106122b6576305f5e100830492506008015b61271083106122ca57612710830492506004015b606483106122dc576064830492506002015b600a83106105d45760010192915050565b6001600160e01b03198116811461143057600080fd5b60006020828403121561231557600080fd5b81356107fa816122ed565b60005b8381101561233b578181015183820152602001612323565b50506000910152565b6000815180845261235c816020860160208601612320565b601f01601f19169290920160200192915050565b6020815260006107fa6020830184612344565b60006020828403121561239557600080fd5b5035919050565b80356001600160a01b03811681146123b357600080fd5b919050565b600080604083850312156123cb57600080fd5b6123d48361239c565b946020939093013593505050565b6000806000606084860312156123f757600080fd5b6124008461239c565b925061240e6020850161239c565b9150604084013590509250925092565b634e487b7160e01b600052604160045260246000fd5b604051601f8201601f1916810167ffffffffffffffff8111828210171561245d5761245d61241e565b604052919050565b600067ffffffffffffffff82111561247f5761247f61241e565b5060051b60200190565b600067ffffffffffffffff8311156124a3576124a361241e565b6124b6601f8401601f1916602001612434565b90508281528383830111156124ca57600080fd5b828260208301376000602084830101529392505050565b600082601f8301126124f257600080fd5b8135602061250761250283612465565b612434565b8083825260208201915060208460051b87010193508684111561252957600080fd5b602086015b84811015612545578035835291830191830161252e565b509695505050505050565b60008060006060848603121561256557600080fd5b61256e8461239c565b925060208085013567ffffffffffffffff8082111561258c57600080fd5b818701915087601f8301126125a057600080fd5b81356125ae61250282612465565b81815260059190911b8301840190848101908a8311156125cd57600080fd5b8585015b8381101561261a578035858111156125e95760008081fd5b8601603f81018d136125fb5760008081fd5b61260c8d8983013560408401612489565b8452509186019186016125d1565b5096505050604087013592508083111561263357600080fd5b5050612641868287016124e1565b9150509250925092565b6020808252825182820181905260009190848201906040850190845b8181101561268357835183529284019291840191600101612667565b50909695505050505050565b6000602082840312156126a157600080fd5b6107fa8261239c565b600080604083850312156126bd57600080fd5b50508035926020909101359150565b600080604083850312156126df57600080fd5b6126e88361239c565b9150602083013580151581146126fd57600080fd5b809150509250929050565b6000806000806080858703121561271e57600080fd5b6127278561239c565b93506127356020860161239c565b925060408501359150606085013567ffffffffffffffff81111561275857600080fd5b8501601f8101871361276957600080fd5b61277887823560208401612489565b91505092959194509250565b6000806040838503121561279757600080fd5b6127a08361239c565b91506127ae6020840161239c565b90509250929050565b600181811c908216806127cb57607f821691505b6020821081036127eb57634e487b7160e01b600052602260045260246000fd5b50919050565b6020808252602d908201527f4552433732313a2063616c6c6572206973206e6f7420746f6b656e206f776e6560408201526c1c881bdc88185c1c1c9bdd9959609a1b606082015260800190565b634e487b7160e01b600052603260045260246000fd5b634e487b7160e01b600052601160045260246000fd5b60006001820161287c5761287c612854565b5060010190565b6040815260006128966040830185612344565b90508260208301529392505050565b60208082526025908201527f4552433732313a207472616e736665722066726f6d20696e636f72726563742060408201526437bbb732b960d91b606082015260800190565b80820281158282048414176105d4576105d4612854565b60008261291e57634e487b7160e01b600052601260045260246000fd5b500490565b818103818111156105d4576105d4612854565b601f8211156107a8576000816000526020600020601f850160051c8101602086101561295f5750805b601f850160051c820191505b8181101561297e5782815560010161296b565b505050505050565b815167ffffffffffffffff8111156129a0576129a061241e565b6129b4816129ae84546127b7565b84612936565b602080601f8311600181146129e957600084156129d15750858301515b600019600386901b1c1916600185901b17855561297e565b600085815260208120601f198616915b82811015612a18578886015182559484019460019091019084016129f9565b5085821015612a365787850151600019600388901b60f8161c191681555b5050505050600190811b01905550565b60208082526032908201527f4552433732313a207472616e7366657220746f206e6f6e20455243373231526560408201527131b2b4bb32b91034b6b83632b6b2b73a32b960711b606082015260800190565b60008351612aaa818460208801612320565b835190830190612abe818360208801612320565b01949350505050565b6001600160a01b0385811682528416602082015260408101839052608060608201819052600090612afa90830184612344565b9695505050505050565b600060208284031215612b1657600080fd5b81516107fa816122ed565b634e487b7160e01b600052603160045260246000fdfea2646970667358221220f72dbadfe5d18e811db5df5d2726c08a9a0b9a0b8ede05096895fb4e26072a3c64736f6c63430008180033",
  "linkReferences": {},
  "deployedLinkReferences": {}
}