{
  "_format": "hh-sol-artifact-1",
  "contractName": "MyNFT",
  "sourceName": "contracts/nfts.sol",
  "abi": [
    {
      "inputs": [],
      "stateMutability": "nonpayable",
      "type": "constructor"
    },
    {
      "anonymous": false,
      "inputs": [
        {
          "indexed": true,
          "internalType": "address",
          "name": "owner",
          "type": "address"
        },
        {
          "indexed": true,
          "internalType": "address",
          "name": "approved",
          "type": "address"
        },
        {
          "indexed": true,
          "internalType": "uint256",
          "name": "tokenId",
          "type": "uint256"
        }
      ],
      "name": "Approval",
      "type": "event"
    },
    {
      "anonymous": false,
      "inputs": [
        {
          "indexed": true,
          "internalType": "address",
          "name": "owner",
          "type": "address"
        },
        {
          "indexed": true,
          "internalType": "address",
          "name": "operator",
          "type": "address"
        },
        {
          "indexed": false,
          "internalType": "bool",
          "name": "approved",
          "type": "bool"
        }
      ],
      "name": "ApprovalForAll",
      "type": "event"
    },
    {
      "anonymous": false,
      "inputs": [
        {
          "indexed": false,
          "internalType": "uint256",
          "name": "tokenId",
          "type": "uint256"
        },
        {
          "indexed": false,
          "internalType": "address",
          "name": "recipient",
          "type": "address"
        },
        {
          "indexed": false,
          "internalType": "string",
          "name": "tokenURI",
          "type": "string"
        }
      ],
      "name": "NFTMinted",
      "type": "event"
    },
    {
      "anonymous": false,
      "inputs": [
        {
          "indexed": true,
          "internalType": "address",
          "name": "previousOwner",
          "type": "address"
        },
        {
          "indexed": true,
          "internalType": "address",
          "name": "newOwner",
          "type": "address"
        }
      ],
      "name": "OwnershipTransferred",
      "type": "event"
    },
    {
      "anonymous": false,
      "inputs": [
        {
          "indexed": true,
          "internalType": "address",
          "name": "from",
          "type": "address"
        },
        {
          "indexed": true,
          "internalType": "address",
          "name": "to",
          "type": "address"
        },
        {
          "indexed": true,
          "internalType": "uint256",
          "name": "tokenId",
          "type": "uint256"
        }
      ],
      "name": "Transfer",
      "type": "event"
    },
    {
      "inputs": [
        {
          "internalType": "address",
          "name": "to",
          "type": "address"
        },
        {
          "internalType": "uint256",
          "name": "tokenId",
          "type": "uint256"
        }
      ],
      "name": "approve",
      "outputs": [],
      "stateMutability": "nonpayable",
      "type": "function"
    },
    {
      "inputs": [
        {
          "internalType": "address",
          "name": "owner",
          "type": "address"
        }
      ],
      "name": "balanceOf",
      "outputs": [
        {
          "internalType": "uint256",
          "name": "",
          "type": "uint256"
        }
      ],
      "stateMutability": "view",
      "type": "function"
    },
    {
      "inputs": [
        {
          "internalType": "uint256",
          "name": "tokenId",
          "type": "uint256"
        }
      ],
      "name": "getApproved",
      "outputs": [
        {
          "internalType": "address",
          "name": "",
          "type": "address"
        }
      ],
      "stateMutability": "view",
      "type": "function"
    },
    {
      "inputs": [
        {
          "internalType": "address",
          "name": "owner",
          "type": "address"
        },
        {
          "internalType": "address",
          "name": "operator",
          "type": "address"
        }
      ],
      "name": "isApprovedForAll",
      "outputs": [
        {
          "internalType": "bool",
          "name": "",
          "type": "bool"
        }
      ],
      "stateMutability": "view",
      "type": "function"
    },
    {
      "inputs": [
        {
          "internalType": "address",
          "name": "recipient",
          "type": "address"
        },
        {
          "internalType": "string",
          "name": "tokenURI",
          "type": "string"
        }
      ],
      "name": "mintNFT",
      "outputs": [
        {
          "internalType": "uint256",
          "name": "",
          "type": "uint256"
        }
      ],
      "stateMutability": "nonpayable",
      "type": "function"
    },
    {
      "inputs": [],
      "name": "name",
      "outputs": [
        {
          "internalType": "string",
          "name": "",
          "type": "string"
        }
      ],
      "stateMutability": "view",
      "type": "function"
    },
    {
      "inputs": [],
      "name": "owner",
      "outputs": [
        {
          "internalType": "address",
          "name": "",
          "type": "address"
        }
      ],
      "stateMutability": "view",
      "type": "function"
    },
    {
      "inputs": [
        {
          "internalType": "uint256",
          "name": "tokenId",
          "type": "uint256"
        }
      ],
      "name": "ownerOf",
      "outputs": [
        {
          "internalType": "address",
          "name": "",
          "type": "address"
        }
      ],
      "stateMutability": "view",
      "type": "function"
    },
    {
      "inputs": [],
      "name": "renounceOwnership",
      "outputs": [],
      "stateMutability": "nonpayable",
      "type": "function"
    },
    {
      "inputs": [
        {
          "internalType": "address",
          "name": "from",
          "type": "address"
        },
        {
          "internalType": "address",
          "name": "to",
          "type": "address"
        },
        {
          "internalType": "uint256",
          "name": "tokenId",
          "type": "uint256"
        }
      ],
      "name": "safeTransferFrom",
      "outputs": [],
      "stateMutability": "nonpayable",
      "type": "function"
    },
    {
      "inputs": [
        {
          "internalType": "address",
          "name": "from",
          "type": "address"
        },
        {
          "internalType": "address",
          "name": "to",
          "type": "address"
        },
        {
          "internalType": "uint256",
          "name": "tokenId",
          "type": "uint256"
        },
        {
          "internalType": "bytes",
          "name": "_data",
          "type": "bytes"
        }
      ],
      "name": "safeTransferFrom",
      "outputs": [],
      "stateMutability": "nonpayable",
      "type": "function"
    },
    {
      "inputs": [
        {
          "internalType": "address",
          "name": "operator",
          "type": "address"
        },
        {
          "internalType": "bool",
          "name": "approved",
          "type": "bool"
        }
      ],
      "name": "setApprovalForAll",
      "outputs": [],
      "stateMutability": "nonpayable",
      "type": "function"
    },
    {
      "inputs": [
        {
          "internalType": "bytes4",
          "name": "interfaceId",
          "type": "bytes4"
        }
      ],
      "name": "supportsInterface",
      "outputs": [
        {
          "internalType": "bool",
          "name": "",
          "type": "bool"
        }
      ],
      "stateMutability": "view",
      "type": "function"
    },
    {
      "inputs": [],
      "name": "symbol",
      "outputs": [
        {
          "internalType": "string",
          "name": "",
          "type": "string"
        }
      ],
      "stateMutability": "view",
      "type": "function"
    },
    {
      "inputs": [
        {
          "internalType": "uint256",
          "name": "tokenId",
          "type": "uint256"
        }
      ],
      "name": "tokenURI",
      "outputs": [
        {
          "internalType": "string",
          "name": "",
          "type": "string"
        }
      ],
      "stateMutability": "view",
      "type": "function"
    },
    {
      "inputs": [
        {
          "internalType": "address",
          "name": "from",
          "type": "address"
        },
        {
          "internalType": "address",
          "name": "to",
          "type": "address"
        },
        {
          "internalType": "uint256",
          "name": "tokenId",
          "type": "uint256"
        }
      ],
      "name": "transferFrom",
      "outputs": [],
      "stateMutability": "nonpayable",
      "type": "function"
    },
    {
      "inputs": [
        {
          "internalType": "address",
          "name": "newOwner",
          "type": "address"
        }
      ],
      "name": "transferOwnership",
      "outputs": [],
      "stateMutability": "nonpayable",
      "type": "function"
    }
  ],
  "bytecode": "0x60806040523480156200001157600080fd5b5060405180604001604052806005815260200164135e53919560da1b815250604051806040016040528060048152602001631353919560e21b81525081600090816200005e91906200018d565b5060016200006d82826200018d565b5050506200008a620000846200009060201b60201c565b62000094565b62000259565b3390565b600780546001600160a01b038381166001600160a01b0319831681179093556040519116919082907f8be0079c531659141344cd1fd0a4f28419497f9722a3daafe3b4186f6b6457e090600090a35050565b634e487b7160e01b600052604160045260246000fd5b600181811c908216806200011157607f821691505b6020821081036200013257634e487b7160e01b600052602260045260246000fd5b50919050565b601f82111562000188576000816000526020600020601f850160051c81016020861015620001635750805b601f850160051c820191505b8181101562000184578281556001016200016f565b5050505b505050565b81516001600160401b03811115620001a957620001a9620000e6565b620001c181620001ba8454620000fc565b8462000138565b602080601f831160018114620001f95760008415620001e05750858301515b600019600386901b1c1916600185901b17855562000184565b600085815260208120601f198616915b828110156200022a5788860151825594840194600190910190840162000209565b5085821015620002495787850151600019600388901b60f8161c191681555b5050505050600190811b01905550565b61196680620002696000396000f3fe608060405234801561001057600080fd5b506004361061010b5760003560e01c8063715018a6116100a2578063b88d4fde11610071578063b88d4fde1461021b578063c87b56dd1461022e578063e985e9c514610241578063eacabe1414610254578063f2fde38b1461026757600080fd5b8063715018a6146101e75780638da5cb5b146101ef57806395d89b4114610200578063a22cb4651461020857600080fd5b806323b872dd116100de57806323b872dd1461018d57806342842e0e146101a05780636352211e146101b357806370a08231146101c657600080fd5b806301ffc9a71461011057806306fdde0314610138578063081812fc1461014d578063095ea7b314610178575b600080fd5b61012361011e36600461129a565b61027a565b60405190151581526020015b60405180910390f35b6101406102cc565b60405161012f9190611307565b61016061015b36600461131a565b61035e565b6040516001600160a01b03909116815260200161012f565b61018b61018636600461134f565b6103eb565b005b61018b61019b366004611379565b610500565b61018b6101ae366004611379565b610531565b6101606101c136600461131a565b61054c565b6101d96101d43660046113b5565b6105c3565b60405190815260200161012f565b61018b61064a565b6007546001600160a01b0316610160565b610140610680565b61018b6102163660046113d0565b61068f565b61018b610229366004611498565b61069e565b61014061023c36600461131a565b6106d6565b61012361024f366004611514565b61084c565b6101d9610262366004611547565b61087a565b61018b6102753660046113b5565b610915565b60006001600160e01b031982166380ac58cd60e01b14806102ab57506001600160e01b03198216635b5e139f60e01b145b806102c657506301ffc9a760e01b6001600160e01b03198316145b92915050565b6060600080546102db906115a9565b80601f0160208091040260200160405190810160405280929190818152602001828054610307906115a9565b80156103545780601f1061032957610100808354040283529160200191610354565b820191906000526020600020905b81548152906001019060200180831161033757829003601f168201915b5050505050905090565b6000610369826109b0565b6103cf5760405162461bcd60e51b815260206004820152602c60248201527f4552433732313a20617070726f76656420717565727920666f72206e6f6e657860448201526b34b9ba32b73a103a37b5b2b760a11b60648201526084015b60405180910390fd5b506000908152600460205260409020546001600160a01b031690565b60006103f68261054c565b9050806001600160a01b0316836001600160a01b0316036104635760405162461bcd60e51b815260206004820152602160248201527f4552433732313a20617070726f76616c20746f2063757272656e74206f776e656044820152603960f91b60648201526084016103c6565b336001600160a01b038216148061047f575061047f813361084c565b6104f15760405162461bcd60e51b815260206004820152603860248201527f4552433732313a20617070726f76652063616c6c6572206973206e6f74206f7760448201527f6e6572206e6f7220617070726f76656420666f7220616c6c000000000000000060648201526084016103c6565b6104fb83836109cd565b505050565b61050a3382610a3b565b6105265760405162461bcd60e51b81526004016103c6906115e3565b6104fb838383610b04565b6104fb8383836040518060200160405280600081525061069e565b6000818152600260205260408120546001600160a01b0316806102c65760405162461bcd60e51b815260206004820152602960248201527f4552433732313a206f776e657220717565727920666f72206e6f6e657869737460448201526832b73a103a37b5b2b760b91b60648201526084016103c6565b60006001600160a01b03821661062e5760405162461bcd60e51b815260206004820152602a60248201527f4552433732313a2062616c616e636520717565727920666f7220746865207a65604482015269726f206164647265737360b01b60648201526084016103c6565b506001600160a01b031660009081526003602052604090205490565b6007546001600160a01b031633146106745760405162461bcd60e51b81526004016103c690611634565b61067e6000610ca0565b565b6060600180546102db906115a9565b61069a338383610cf2565b5050565b6106a83383610a3b565b6106c45760405162461bcd60e51b81526004016103c6906115e3565b6106d084848484610dc0565b50505050565b60606106e1826109b0565b6107475760405162461bcd60e51b815260206004820152603160248201527f45524337323155524953746f726167653a2055524920717565727920666f72206044820152703737b732bc34b9ba32b73a103a37b5b2b760791b60648201526084016103c6565b60008281526006602052604081208054610760906115a9565b80601f016020809104026020016040519081016040528092919081815260200182805461078c906115a9565b80156107d95780601f106107ae576101008083540402835291602001916107d9565b820191906000526020600020905b8154815290600101906020018083116107bc57829003601f168201915b5050505050905060006107f760408051602081019091526000815290565b90508051600003610809575092915050565b81511561083b578082604051602001610823929190611669565b60405160208183030381529060405292505050919050565b61084484610df3565b949350505050565b6001600160a01b03918216600090815260056020908152604080832093909416825291909152205460ff1690565b6007546000906001600160a01b031633146108a75760405162461bcd60e51b81526004016103c690611634565b600880549060006108b7836116ae565b90915550506008546108c98482610ecb565b6108d38184610ffe565b7f06becd955c918828f6e985541acbf49cc842c9e9bd569fffc7698e721ef13575818585604051610906939291906116c7565b60405180910390a19392505050565b6007546001600160a01b0316331461093f5760405162461bcd60e51b81526004016103c690611634565b6001600160a01b0381166109a45760405162461bcd60e51b815260206004820152602660248201527f4f776e61626c653a206e6577206f776e657220697320746865207a65726f206160448201526564647265737360d01b60648201526084016103c6565b6109ad81610ca0565b50565b6000908152600260205260409020546001600160a01b0316151590565b600081815260046020526040902080546001600160a01b0319166001600160a01b0384169081179091558190610a028261054c565b6001600160a01b03167f8c5be1e5ebec7d5bd14f71427d1e84f3dd0314c0f7b2291e5b200ac8c7c3b92560405160405180910390a45050565b6000610a46826109b0565b610aa75760405162461bcd60e51b815260206004820152602c60248201527f4552433732313a206f70657261746f7220717565727920666f72206e6f6e657860448201526b34b9ba32b73a103a37b5b2b760a11b60648201526084016103c6565b6000610ab28361054c565b9050806001600160a01b0316846001600160a01b03161480610ad95750610ad9818561084c565b806108445750836001600160a01b0316610af28461035e565b6001600160a01b031614949350505050565b826001600160a01b0316610b178261054c565b6001600160a01b031614610b7b5760405162461bcd60e51b815260206004820152602560248201527f4552433732313a207472616e736665722066726f6d20696e636f72726563742060448201526437bbb732b960d91b60648201526084016103c6565b6001600160a01b038216610bdd5760405162461bcd60e51b8152602060048201526024808201527f4552433732313a207472616e7366657220746f20746865207a65726f206164646044820152637265737360e01b60648201526084016103c6565b610be86000826109cd565b6001600160a01b0383166000908152600360205260408120805460019290610c119084906116fa565b90915550506001600160a01b0382166000908152600360205260408120805460019290610c3f90849061170d565b909155505060008181526002602052604080822080546001600160a01b0319166001600160a01b0386811691821790925591518493918716917fddf252ad1be2c89b69c2b068fc378daa952ba7f163c4a11628f55a4df523b3ef91a4505050565b600780546001600160a01b038381166001600160a01b0319831681179093556040519116919082907f8be0079c531659141344cd1fd0a4f28419497f9722a3daafe3b4186f6b6457e090600090a35050565b816001600160a01b0316836001600160a01b031603610d535760405162461bcd60e51b815260206004820152601960248201527f4552433732313a20617070726f766520746f2063616c6c65720000000000000060448201526064016103c6565b6001600160a01b03838116600081815260056020908152604080832094871680845294825291829020805460ff191686151590811790915591519182527f17307eab39ab6107e8899845ad3d59bd9653f200f220920489ca2b5937696c31910160405180910390a3505050565b610dcb848484610b04565b610dd784848484611082565b6106d05760405162461bcd60e51b81526004016103c690611720565b6060610dfe826109b0565b610e625760405162461bcd60e51b815260206004820152602f60248201527f4552433732314d657461646174613a2055524920717565727920666f72206e6f60448201526e3732bc34b9ba32b73a103a37b5b2b760891b60648201526084016103c6565b6000610e7960408051602081019091526000815290565b90506000815111610e995760405180602001604052806000815250610ec4565b80610ea384611183565b604051602001610eb4929190611669565b6040516020818303038152906040525b9392505050565b6001600160a01b038216610f215760405162461bcd60e51b815260206004820181905260248201527f4552433732313a206d696e7420746f20746865207a65726f206164647265737360448201526064016103c6565b610f2a816109b0565b15610f775760405162461bcd60e51b815260206004820152601c60248201527f4552433732313a20746f6b656e20616c7265616479206d696e7465640000000060448201526064016103c6565b6001600160a01b0382166000908152600360205260408120805460019290610fa090849061170d565b909155505060008181526002602052604080822080546001600160a01b0319166001600160a01b03861690811790915590518392907fddf252ad1be2c89b69c2b068fc378daa952ba7f163c4a11628f55a4df523b3ef908290a45050565b611007826109b0565b61106a5760405162461bcd60e51b815260206004820152602e60248201527f45524337323155524953746f726167653a2055524920736574206f66206e6f6e60448201526d32bc34b9ba32b73a103a37b5b2b760911b60648201526084016103c6565b60008281526006602052604090206104fb82826117c2565b60006001600160a01b0384163b1561117857604051630a85bd0160e11b81526001600160a01b0385169063150b7a02906110c6903390899088908890600401611882565b6020604051808303816000875af1925050508015611101575060408051601f3d908101601f191682019092526110fe918101906118bf565b60015b61115e573d80801561112f576040519150601f19603f3d011682016040523d82523d6000602084013e611134565b606091505b5080516000036111565760405162461bcd60e51b81526004016103c690611720565b805181602001fd5b6001600160e01b031916630a85bd0160e11b149050610844565b506001949350505050565b6060816000036111aa5750506040805180820190915260018152600360fc1b602082015290565b8160005b81156111d457806111be816116ae565b91506111cd9050600a836118f2565b91506111ae565b60008167ffffffffffffffff8111156111ef576111ef61140c565b6040519080825280601f01601f191660200182016040528015611219576020820181803683370190505b5090505b84156108445761122e6001836116fa565b915061123b600a86611906565b61124690603061170d565b60f81b81838151811061125b5761125b61191a565b60200101906001600160f81b031916908160001a90535061127d600a866118f2565b945061121d565b6001600160e01b0319811681146109ad57600080fd5b6000602082840312156112ac57600080fd5b8135610ec481611284565b60005b838110156112d25781810151838201526020016112ba565b50506000910152565b600081518084526112f38160208601602086016112b7565b601f01601f19169290920160200192915050565b602081526000610ec460208301846112db565b60006020828403121561132c57600080fd5b5035919050565b80356001600160a01b038116811461134a57600080fd5b919050565b6000806040838503121561136257600080fd5b61136b83611333565b946020939093013593505050565b60008060006060848603121561138e57600080fd5b61139784611333565b92506113a560208501611333565b9150604084013590509250925092565b6000602082840312156113c757600080fd5b610ec482611333565b600080604083850312156113e357600080fd5b6113ec83611333565b91506020830135801515811461140157600080fd5b809150509250929050565b634e487b7160e01b600052604160045260246000fd5b600067ffffffffffffffff8084111561143d5761143d61140c565b604051601f8501601f19908116603f011681019082821181831017156114655761146561140c565b8160405280935085815286868601111561147e57600080fd5b858560208301376000602087830101525050509392505050565b600080600080608085870312156114ae57600080fd5b6114b785611333565b93506114c560208601611333565b925060408501359150606085013567ffffffffffffffff8111156114e857600080fd5b8501601f810187136114f957600080fd5b61150887823560208401611422565b91505092959194509250565b6000806040838503121561152757600080fd5b61153083611333565b915061153e60208401611333565b90509250929050565b6000806040838503121561155a57600080fd5b61156383611333565b9150602083013567ffffffffffffffff81111561157f57600080fd5b8301601f8101851361159057600080fd5b61159f85823560208401611422565b9150509250929050565b600181811c908216806115bd57607f821691505b6020821081036115dd57634e487b7160e01b600052602260045260246000fd5b50919050565b60208082526031908201527f4552433732313a207472616e736665722063616c6c6572206973206e6f74206f6040820152701ddb995c881b9bdc88185c1c1c9bdd9959607a1b606082015260800190565b6020808252818101527f4f776e61626c653a2063616c6c6572206973206e6f7420746865206f776e6572604082015260600190565b6000835161167b8184602088016112b7565b83519083019061168f8183602088016112b7565b01949350505050565b634e487b7160e01b600052601160045260246000fd5b6000600182016116c0576116c0611698565b5060010190565b8381526001600160a01b03831660208201526060604082018190526000906116f1908301846112db565b95945050505050565b818103818111156102c6576102c6611698565b808201808211156102c6576102c6611698565b60208082526032908201527f4552433732313a207472616e7366657220746f206e6f6e20455243373231526560408201527131b2b4bb32b91034b6b83632b6b2b73a32b960711b606082015260800190565b601f8211156104fb576000816000526020600020601f850160051c8101602086101561179b5750805b601f850160051c820191505b818110156117ba578281556001016117a7565b505050505050565b815167ffffffffffffffff8111156117dc576117dc61140c565b6117f0816117ea84546115a9565b84611772565b602080601f831160018114611825576000841561180d5750858301515b600019600386901b1c1916600185901b1785556117ba565b600085815260208120601f198616915b8281101561185457888601518255948401946001909101908401611835565b50858210156118725787850151600019600388901b60f8161c191681555b5050505050600190811b01905550565b6001600160a01b03858116825284166020820152604081018390526080606082018190526000906118b5908301846112db565b9695505050505050565b6000602082840312156118d157600080fd5b8151610ec481611284565b634e487b7160e01b600052601260045260246000fd5b600082611901576119016118dc565b500490565b600082611915576119156118dc565b500690565b634e487b7160e01b600052603260045260246000fdfea2646970667358221220a2e885b17fca792ba575bac56abe18f49b779b931b18d315456ae69ae3914da564736f6c63430008180033",
  "linkReferences": {},
  "deployedLinkReferences": {}
}