{
  "_format": "hh-sol-artifact-1",
  "contractName": "MyNFT",
  "sourceName": "contracts/nfts.sol",
  "abi": [
    {
      "inputs": [],
      "stateMutability": "nonpayable",
      "type": "constructor"
    },
    {
      "anonymous": false,
      "inputs": [
        {
          "indexed": true,
          "internalType": "address",
          "name": "owner",
          "type": "address"
        },
        {
          "indexed": true,
          "internalType": "address",
          "name": "approved",
          "type": "address"
        },
        {
          "indexed": true,
          "internalType": "uint256",
          "name": "tokenId",
          "type": "uint256"
        }
      ],
      "name": "Approval",
      "type": "event"
    },
    {
      "anonymous": false,
      "inputs": [
        {
          "indexed": true,
          "internalType": "address",
          "name": "owner",
          "type": "address"
        },
        {
          "indexed": true,
          "internalType": "address",
          "name": "operator",
          "type": "address"
        },
        {
          "indexed": false,
          "internalType": "bool",
          "name": "approved",
          "type": "bool"
        }
      ],
      "name": "ApprovalForAll",
      "type": "event"
    },
    {
      "anonymous": false,
      "inputs": [
        {
          "indexed": false,
          "internalType": "uint256",
          "name": "_fromTokenId",
          "type": "uint256"
        },
        {
          "indexed": false,
          "internalType": "uint256",
          "name": "_toTokenId",
          "type": "uint256"
        }
      ],
      "name": "BatchMetadataUpdate",
      "type": "event"
    },
    {
      "anonymous": false,
      "inputs": [
        {
          "indexed": false,
          "internalType": "uint256",
          "name": "_tokenId",
          "type": "uint256"
        }
      ],
      "name": "MetadataUpdate",
      "type": "event"
    },
    {
      "anonymous": false,
      "inputs": [
        {
          "indexed": true,
          "internalType": "uint256",
          "name": "tokenId",
          "type": "uint256"
        },
        {
          "indexed": true,
          "internalType": "address",
          "name": "newOwner",
          "type": "address"
        },
        {
          "indexed": false,
          "internalType": "uint256",
          "name": "price",
          "type": "uint256"
        }
      ],
      "name": "NFTBought",
      "type": "event"
    },
    {
      "anonymous": false,
      "inputs": [
        {
          "indexed": true,
          "internalType": "uint256",
          "name": "tokenId",
          "type": "uint256"
        },
        {
          "indexed": false,
          "internalType": "uint256",
          "name": "price",
          "type": "uint256"
        }
      ],
      "name": "NFTListed",
      "type": "event"
    },
    {
      "anonymous": false,
      "inputs": [
        {
          "indexed": true,
          "internalType": "uint256",
          "name": "tokenId",
          "type": "uint256"
        },
        {
          "indexed": true,
          "internalType": "address",
          "name": "recipient",
          "type": "address"
        },
        {
          "indexed": false,
          "internalType": "string",
          "name": "tokenURI",
          "type": "string"
        },
        {
          "indexed": false,
          "internalType": "uint256",
          "name": "price",
          "type": "uint256"
        }
      ],
      "name": "NFTMinted",
      "type": "event"
    },
    {
      "anonymous": false,
      "inputs": [
        {
          "indexed": true,
          "internalType": "address",
          "name": "previousOwner",
          "type": "address"
        },
        {
          "indexed": true,
          "internalType": "address",
          "name": "newOwner",
          "type": "address"
        }
      ],
      "name": "OwnershipTransferred",
      "type": "event"
    },
    {
      "anonymous": false,
      "inputs": [
        {
          "indexed": true,
          "internalType": "address",
          "name": "from",
          "type": "address"
        },
        {
          "indexed": true,
          "internalType": "address",
          "name": "to",
          "type": "address"
        },
        {
          "indexed": true,
          "internalType": "uint256",
          "name": "tokenId",
          "type": "uint256"
        }
      ],
      "name": "Transfer",
      "type": "event"
    },
    {
      "inputs": [],
      "name": "ROYALTY_PERCENTAGE",
      "outputs": [
        {
          "internalType": "uint256",
          "name": "",
          "type": "uint256"
        }
      ],
      "stateMutability": "view",
      "type": "function"
    },
    {
      "inputs": [
        {
          "internalType": "address",
          "name": "to",
          "type": "address"
        },
        {
          "internalType": "uint256",
          "name": "tokenId",
          "type": "uint256"
        }
      ],
      "name": "approve",
      "outputs": [],
      "stateMutability": "nonpayable",
      "type": "function"
    },
    {
      "inputs": [
        {
          "internalType": "address",
          "name": "owner",
          "type": "address"
        }
      ],
      "name": "balanceOf",
      "outputs": [
        {
          "internalType": "uint256",
          "name": "",
          "type": "uint256"
        }
      ],
      "stateMutability": "view",
      "type": "function"
    },
    {
      "inputs": [
        {
          "internalType": "uint256",
          "name": "tokenId",
          "type": "uint256"
        }
      ],
      "name": "buyNFT",
      "outputs": [],
      "stateMutability": "payable",
      "type": "function"
    },
    {
      "inputs": [
        {
          "internalType": "uint256",
          "name": "tokenId",
          "type": "uint256"
        }
      ],
      "name": "getApproved",
      "outputs": [
        {
          "internalType": "address",
          "name": "",
          "type": "address"
        }
      ],
      "stateMutability": "view",
      "type": "function"
    },
    {
      "inputs": [],
      "name": "getTokensForSale",
      "outputs": [
        {
          "internalType": "uint256[]",
          "name": "",
          "type": "uint256[]"
        }
      ],
      "stateMutability": "view",
      "type": "function"
    },
    {
      "inputs": [
        {
          "internalType": "address",
          "name": "owner",
          "type": "address"
        }
      ],
      "name": "getTokensForSaleByOwner",
      "outputs": [
        {
          "internalType": "uint256[]",
          "name": "",
          "type": "uint256[]"
        }
      ],
      "stateMutability": "view",
      "type": "function"
    },
    {
      "inputs": [
        {
          "internalType": "address",
          "name": "owner",
          "type": "address"
        },
        {
          "internalType": "address",
          "name": "operator",
          "type": "address"
        }
      ],
      "name": "isApprovedForAll",
      "outputs": [
        {
          "internalType": "bool",
          "name": "",
          "type": "bool"
        }
      ],
      "stateMutability": "view",
      "type": "function"
    },
    {
      "inputs": [
        {
          "internalType": "uint256",
          "name": "",
          "type": "uint256"
        }
      ],
      "name": "isListed",
      "outputs": [
        {
          "internalType": "bool",
          "name": "",
          "type": "bool"
        }
      ],
      "stateMutability": "view",
      "type": "function"
    },
    {
      "inputs": [
        {
          "internalType": "uint256",
          "name": "tokenId",
          "type": "uint256"
        },
        {
          "internalType": "uint256",
          "name": "price",
          "type": "uint256"
        }
      ],
      "name": "listNFT",
      "outputs": [],
      "stateMutability": "nonpayable",
      "type": "function"
    },
    {
      "inputs": [
        {
          "internalType": "address",
          "name": "recipient",
          "type": "address"
        },
        {
          "internalType": "string[]",
          "name": "tokenURIs",
          "type": "string[]"
        },
        {
          "internalType": "uint256[]",
          "name": "prices",
          "type": "uint256[]"
        }
      ],
      "name": "mintMultipleNFTs",
      "outputs": [],
      "stateMutability": "nonpayable",
      "type": "function"
    },
    {
      "inputs": [],
      "name": "name",
      "outputs": [
        {
          "internalType": "string",
          "name": "",
          "type": "string"
        }
      ],
      "stateMutability": "view",
      "type": "function"
    },
    {
      "inputs": [
        {
          "internalType": "uint256",
          "name": "",
          "type": "uint256"
        }
      ],
      "name": "originalCreators",
      "outputs": [
        {
          "internalType": "address",
          "name": "",
          "type": "address"
        }
      ],
      "stateMutability": "view",
      "type": "function"
    },
    {
      "inputs": [],
      "name": "owner",
      "outputs": [
        {
          "internalType": "address",
          "name": "",
          "type": "address"
        }
      ],
      "stateMutability": "view",
      "type": "function"
    },
    {
      "inputs": [
        {
          "internalType": "uint256",
          "name": "tokenId",
          "type": "uint256"
        }
      ],
      "name": "ownerOf",
      "outputs": [
        {
          "internalType": "address",
          "name": "",
          "type": "address"
        }
      ],
      "stateMutability": "view",
      "type": "function"
    },
    {
      "inputs": [],
      "name": "renounceOwnership",
      "outputs": [],
      "stateMutability": "nonpayable",
      "type": "function"
    },
    {
      "inputs": [
        {
          "internalType": "address",
          "name": "from",
          "type": "address"
        },
        {
          "internalType": "address",
          "name": "to",
          "type": "address"
        },
        {
          "internalType": "uint256",
          "name": "tokenId",
          "type": "uint256"
        }
      ],
      "name": "safeTransferFrom",
      "outputs": [],
      "stateMutability": "nonpayable",
      "type": "function"
    },
    {
      "inputs": [
        {
          "internalType": "address",
          "name": "from",
          "type": "address"
        },
        {
          "internalType": "address",
          "name": "to",
          "type": "address"
        },
        {
          "internalType": "uint256",
          "name": "tokenId",
          "type": "uint256"
        },
        {
          "internalType": "bytes",
          "name": "data",
          "type": "bytes"
        }
      ],
      "name": "safeTransferFrom",
      "outputs": [],
      "stateMutability": "nonpayable",
      "type": "function"
    },
    {
      "inputs": [
        {
          "internalType": "address",
          "name": "operator",
          "type": "address"
        },
        {
          "internalType": "bool",
          "name": "approved",
          "type": "bool"
        }
      ],
      "name": "setApprovalForAll",
      "outputs": [],
      "stateMutability": "nonpayable",
      "type": "function"
    },
    {
      "inputs": [
        {
          "internalType": "bytes4",
          "name": "interfaceId",
          "type": "bytes4"
        }
      ],
      "name": "supportsInterface",
      "outputs": [
        {
          "internalType": "bool",
          "name": "",
          "type": "bool"
        }
      ],
      "stateMutability": "view",
      "type": "function"
    },
    {
      "inputs": [],
      "name": "symbol",
      "outputs": [
        {
          "internalType": "string",
          "name": "",
          "type": "string"
        }
      ],
      "stateMutability": "view",
      "type": "function"
    },
    {
      "inputs": [
        {
          "internalType": "uint256",
          "name": "index",
          "type": "uint256"
        }
      ],
      "name": "tokenByIndex",
      "outputs": [
        {
          "internalType": "uint256",
          "name": "",
          "type": "uint256"
        }
      ],
      "stateMutability": "view",
      "type": "function"
    },
    {
      "inputs": [
        {
          "internalType": "address",
          "name": "owner",
          "type": "address"
        },
        {
          "internalType": "uint256",
          "name": "index",
          "type": "uint256"
        }
      ],
      "name": "tokenOfOwnerByIndex",
      "outputs": [
        {
          "internalType": "uint256",
          "name": "",
          "type": "uint256"
        }
      ],
      "stateMutability": "view",
      "type": "function"
    },
    {
      "inputs": [
        {
          "internalType": "uint256",
          "name": "",
          "type": "uint256"
        }
      ],
      "name": "tokenPrices",
      "outputs": [
        {
          "internalType": "uint256",
          "name": "",
          "type": "uint256"
        }
      ],
      "stateMutability": "view",
      "type": "function"
    },
    {
      "inputs": [
        {
          "internalType": "uint256",
          "name": "tokenId",
          "type": "uint256"
        }
      ],
      "name": "tokenURI",
      "outputs": [
        {
          "internalType": "string",
          "name": "",
          "type": "string"
        }
      ],
      "stateMutability": "view",
      "type": "function"
    },
    {
      "inputs": [],
      "name": "totalSupply",
      "outputs": [
        {
          "internalType": "uint256",
          "name": "",
          "type": "uint256"
        }
      ],
      "stateMutability": "view",
      "type": "function"
    },
    {
      "inputs": [
        {
          "internalType": "address",
          "name": "from",
          "type": "address"
        },
        {
          "internalType": "address",
          "name": "to",
          "type": "address"
        },
        {
          "internalType": "uint256",
          "name": "tokenId",
          "type": "uint256"
        }
      ],
      "name": "transferFrom",
      "outputs": [],
      "stateMutability": "nonpayable",
      "type": "function"
    },
    {
      "inputs": [
        {
          "internalType": "address",
          "name": "newOwner",
          "type": "address"
        }
      ],
      "name": "transferOwnership",
      "outputs": [],
      "stateMutability": "nonpayable",
      "type": "function"
    }
  ],
  "bytecode": "0x60806040523480156200001157600080fd5b5060405180604001604052806005815260200164135e53919560da1b815250604051806040016040528060048152602001631353919560e21b81525081600090816200005e91906200018d565b5060016200006d82826200018d565b5050506200008a620000846200009060201b60201c565b62000094565b62000259565b3390565b600b80546001600160a01b038381166001600160a01b0319831681179093556040519116919082907f8be0079c531659141344cd1fd0a4f28419497f9722a3daafe3b4186f6b6457e090600090a35050565b634e487b7160e01b600052604160045260246000fd5b600181811c908216806200011157607f821691505b6020821081036200013257634e487b7160e01b600052602260045260246000fd5b50919050565b601f82111562000188576000816000526020600020601f850160051c81016020861015620001635750805b601f850160051c820191505b8181101562000184578281556001016200016f565b5050505b505050565b81516001600160401b03811115620001a957620001a9620000e6565b620001c181620001ba8454620000fc565b8462000138565b602080601f831160018114620001f95760008415620001e05750858301515b600019600386901b1c1916600185901b17855562000184565b600085815260208120601f198616915b828110156200022a5788860151825594840194600190910190840162000209565b5085821015620002495787850151600019600388901b60f8161c191681555b5050505050600190811b01905550565b612a0180620002696000396000f3fe6080604052600436106101b75760003560e01c806370a08231116100ec578063a22cb4651161008a578063e5afe3e611610064578063e5afe3e6146104d8578063e985e9c514610505578063f2fde38b1461054e578063fcce48831461056e57600080fd5b8063a22cb46514610478578063b88d4fde14610498578063c87b56dd146104b857600080fd5b80638b305930116100c65780638b305930146103ef5780638da5cb5b1461042557806394383f141461044357806395d89b411461046357600080fd5b806370a082311461039a578063715018a6146103ba5780637570cfd4146103cf57600080fd5b806342842e0e1161015957806351ed82881161013357806351ed828814610325578063573a31a6146103385780636352211e1461035857806365e4e1c01461037857600080fd5b806342842e0e146102d0578063463b08db146102f05780634f6ccce71461030557600080fd5b8063095ea7b311610195578063095ea7b31461024b57806318160ddd1461026d57806323b872dd146102905780632f745c59146102b057600080fd5b806301ffc9a7146101bc57806306fdde03146101f1578063081812fc14610213575b600080fd5b3480156101c857600080fd5b506101dc6101d7366004612197565b61059e565b60405190151581526020015b60405180910390f35b3480156101fd57600080fd5b506102066105af565b6040516101e89190612204565b34801561021f57600080fd5b5061023361022e366004612217565b610641565b6040516001600160a01b0390911681526020016101e8565b34801561025757600080fd5b5061026b61026636600461224c565b610668565b005b34801561027957600080fd5b50610282610782565b6040519081526020016101e8565b34801561029c57600080fd5b5061026b6102ab366004612276565b610792565b3480156102bc57600080fd5b506102826102cb36600461224c565b6107c3565b3480156102dc57600080fd5b5061026b6102eb366004612276565b6107d6565b3480156102fc57600080fd5b50610282600581565b34801561031157600080fd5b50610282610320366004612217565b6107f1565b61026b610333366004612217565b610884565b34801561034457600080fd5b5061026b6103533660046123e4565b610a9a565b34801561036457600080fd5b50610233610373366004612217565b610c7c565b34801561038457600080fd5b5061038d610cdc565b6040516101e891906124df565b3480156103a657600080fd5b506102826103b5366004612523565b610dd1565b3480156103c657600080fd5b5061026b610e57565b3480156103db57600080fd5b5061038d6103ea366004612523565b610e6b565b3480156103fb57600080fd5b5061023361040a366004612217565b600f602052600090815260409020546001600160a01b031681565b34801561043157600080fd5b50600b546001600160a01b0316610233565b34801561044f57600080fd5b5061026b61045e36600461253e565b610fdd565b34801561046f57600080fd5b506102066111f3565b34801561048457600080fd5b5061026b610493366004612560565b611202565b3480156104a457600080fd5b5061026b6104b336600461259c565b611211565b3480156104c457600080fd5b506102066104d3366004612217565b611243565b3480156104e457600080fd5b506102826104f3366004612217565b600d6020526000908152604090205481565b34801561051157600080fd5b506101dc610520366004612618565b6001600160a01b03918216600090815260056020908152604080832093909416825291909152205460ff1690565b34801561055a57600080fd5b5061026b610569366004612523565b61124e565b34801561057a57600080fd5b506101dc610589366004612217565b600e6020526000908152604090205460ff1681565b60006105a9826112c7565b92915050565b6060600080546105be9061264b565b80601f01602080910402602001604051908101604052809291908181526020018280546105ea9061264b565b80156106375780601f1061060c57610100808354040283529160200191610637565b820191906000526020600020905b81548152906001019060200180831161061a57829003601f168201915b5050505050905090565b600061064c826112ec565b506000908152600460205260409020546001600160a01b031690565b600061067382610c7c565b9050806001600160a01b0316836001600160a01b0316036106e55760405162461bcd60e51b815260206004820152602160248201527f4552433732313a20617070726f76616c20746f2063757272656e74206f776e656044820152603960f91b60648201526084015b60405180910390fd5b336001600160a01b038216148061070157506107018133610520565b6107735760405162461bcd60e51b815260206004820152603d60248201527f4552433732313a20617070726f76652063616c6c6572206973206e6f7420746f60448201527f6b656e206f776e6572206f7220617070726f76656420666f7220616c6c00000060648201526084016106dc565b61077d838361133c565b505050565b600061078d60095490565b905090565b61079c33826113aa565b6107b85760405162461bcd60e51b81526004016106dc90612685565b61077d838383611429565b60006107cf838361159a565b9392505050565b61077d83838360405180602001604052806000815250611211565b60006107fc60095490565b821061085f5760405162461bcd60e51b815260206004820152602c60248201527f455243373231456e756d657261626c653a20676c6f62616c20696e646578206f60448201526b7574206f6620626f756e647360a01b60648201526084016106dc565b60098281548110610872576108726126d2565b90600052602060002001549050919050565b6000818152600d602052604090205461089c82611630565b6108df5760405162461bcd60e51b8152602060048201526014602482015273151bdad95b88191bd95cc81b9bdd08195e1a5cdd60621b60448201526064016106dc565b6000811161092f5760405162461bcd60e51b815260206004820152601a60248201527f5468697320746f6b656e206973206e6f7420666f722073616c6500000000000060448201526064016106dc565b803410156109775760405162461bcd60e51b8152602060048201526015602482015274139bdd08195b9bdd59da08195d1a195c881cd95b9d605a1b60448201526064016106dc565b600061098283610c7c565b6000848152600f60205260408120549192506001600160a01b03909116906109b660646109b086600561164d565b90611659565b6040519091506001600160a01b0383169082156108fc029083906000818181858888f193505050501580156109ef573d6000803e3d6000fd5b506001600160a01b0383166108fc610a073484611665565b6040518115909202916000818181858888f19350505050158015610a2f573d6000803e3d6000fd5b50610a3b833387611429565b6000858152600d60209081526040808320839055600e825291829020805460ff191690559051858152339187917f26701af1547d690b8c46ed5f0fbb8d5b115492b3b898f3dfc2e87b26cfcc1b14910160405180910390a35050505050565b8051825114610aeb5760405162461bcd60e51b815260206004820152601f60248201527f5552497320616e6420707269636573206c656e677468206d69736d617463680060448201526064016106dc565b600a82511115610b4b5760405162461bcd60e51b815260206004820152602560248201527f43616e206f6e6c79206d696e7420757020746f203130204e46547320617420616044820152642074696d6560d81b60648201526084016106dc565b60005b8251811015610c7657600c8054906000610b67836126fe565b9091555050600c54610b798582611671565b610b9c81858481518110610b8f57610b8f6126d2565b60200260200101516117ec565b828281518110610bae57610bae6126d2565b6020908102919091018101516000838152600d8352604080822092909255600f835281812080546001600160a01b0319166001600160a01b038a16908117909155600e90935220805460ff19169055845182907f23eae53a2b33c20fc1b74912840a6a2a72adc26effa68729f81e756c875df28990879086908110610c3557610c356126d2565b6020026020010151868681518110610c4f57610c4f6126d2565b6020026020010151604051610c65929190612717565b60405180910390a350600101610b4e565b50505050565b6000818152600260205260408120546001600160a01b0316806105a95760405162461bcd60e51b8152602060048201526018602482015277115490cdcc8c4e881a5b9d985b1a59081d1bdad95b88125160421b60448201526064016106dc565b6060600060015b600c548111610d20576000818152600d602052604090205415610d0e5781610d0a816126fe565b9250505b80610d18816126fe565b915050610ce3565b5060008167ffffffffffffffff811115610d3c57610d3c6122b2565b604051908082528060200260200182016040528015610d65578160200160208202803683370190505b509050600060015b600c548111610dc8576000818152600d602052604090205415610db65780838381518110610d9d57610d9d6126d2565b602090810291909101015281610db2816126fe565b9250505b80610dc0816126fe565b915050610d6d565b50909392505050565b60006001600160a01b038216610e3b5760405162461bcd60e51b815260206004820152602960248201527f4552433732313a2061646472657373207a65726f206973206e6f7420612076616044820152683634b21037bbb732b960b91b60648201526084016106dc565b506001600160a01b031660009081526003602052604090205490565b610e5f6118a8565b610e696000611902565b565b60606000610e7883610dd1565b905060008167ffffffffffffffff811115610e9557610e956122b2565b604051908082528060200260200182016040528015610ebe578160200160208202803683370190505b5090506000805b83811015610f41576000610ed987836107c3565b6000818152600d602052604090205490915015801590610f0757506000818152600e602052604090205460ff165b15610f385780848481518110610f1f57610f1f6126d2565b602090810291909101015282610f34816126fe565b9350505b50600101610ec5565b5060008167ffffffffffffffff811115610f5d57610f5d6122b2565b604051908082528060200260200182016040528015610f86578160200160208202803683370190505b50905060005b82811015610fd357838181518110610fa657610fa66126d2565b6020026020010151828281518110610fc057610fc06126d2565b6020908102919091010152600101610f8c565b5095945050505050565b33610fe783610c7c565b6001600160a01b03161461103d5760405162461bcd60e51b815260206004820152601f60248201527f4f6e6c7920746865206f776e65722063616e206c69737420746865204e46540060448201526064016106dc565b61104682611630565b6110895760405162461bcd60e51b8152602060048201526014602482015273151bdad95b88191bd95cc81b9bdd08195e1a5cdd60621b60448201526064016106dc565b600081116110d95760405162461bcd60e51b815260206004820152601f60248201527f5072696365206d7573742062652067726561746572207468616e207a65726f0060448201526064016106dc565b6000828152600e602052604090205460ff161561112d5760405162461bcd60e51b815260206004820152601260248201527113919508185b1c9958591e481b1a5cdd195960721b60448201526064016106dc565b6000828152600d60208181526040808420858155600e83529320805460ff19166001179055525481146111b55760405162461bcd60e51b815260206004820152602a60248201527f596f75206d757374206c69737420746865204e465420617420746865206d696e60448201526974696e6720707269636560b01b60648201526084016106dc565b817fa6cd73580a273eec6c1026108f6b63479fbaef5356dde4ff43e4b38dd187485f826040516111e791815260200190565b60405180910390a25050565b6060600180546105be9061264b565b61120d338383611954565b5050565b61121b33836113aa565b6112375760405162461bcd60e51b81526004016106dc90612685565b610c7684848484611a22565b60606105a982611a55565b6112566118a8565b6001600160a01b0381166112bb5760405162461bcd60e51b815260206004820152602660248201527f4f776e61626c653a206e6577206f776e657220697320746865207a65726f206160448201526564647265737360d01b60648201526084016106dc565b6112c481611902565b50565b60006001600160e01b0319821663780e9d6360e01b14806105a957506105a982611b5d565b6112f581611630565b6112c45760405162461bcd60e51b8152602060048201526018602482015277115490cdcc8c4e881a5b9d985b1a59081d1bdad95b88125160421b60448201526064016106dc565b600081815260046020526040902080546001600160a01b0319166001600160a01b038416908117909155819061137182610c7c565b6001600160a01b03167f8c5be1e5ebec7d5bd14f71427d1e84f3dd0314c0f7b2291e5b200ac8c7c3b92560405160405180910390a45050565b6000806113b683610c7c565b9050806001600160a01b0316846001600160a01b031614806113fd57506001600160a01b0380821660009081526005602090815260408083209388168352929052205460ff165b806114215750836001600160a01b031661141684610641565b6001600160a01b0316145b949350505050565b826001600160a01b031661143c82610c7c565b6001600160a01b0316146114625760405162461bcd60e51b81526004016106dc90612739565b6001600160a01b0382166114c45760405162461bcd60e51b8152602060048201526024808201527f4552433732313a207472616e7366657220746f20746865207a65726f206164646044820152637265737360e01b60648201526084016106dc565b6114d18383836001611b82565b826001600160a01b03166114e482610c7c565b6001600160a01b03161461150a5760405162461bcd60e51b81526004016106dc90612739565b600081815260046020908152604080832080546001600160a01b03199081169091556001600160a01b0387811680865260038552838620805460001901905590871680865283862080546001019055868652600290945282852080549092168417909155905184937fddf252ad1be2c89b69c2b068fc378daa952ba7f163c4a11628f55a4df523b3ef91a4505050565b60006115a583610dd1565b82106116075760405162461bcd60e51b815260206004820152602b60248201527f455243373231456e756d657261626c653a206f776e657220696e646578206f7560448201526a74206f6620626f756e647360a81b60648201526084016106dc565b506001600160a01b03919091166000908152600760209081526040808320938352929052205490565b6000908152600260205260409020546001600160a01b0316151590565b60006107cf828461277e565b60006107cf8284612795565b60006107cf82846127b7565b6001600160a01b0382166116c75760405162461bcd60e51b815260206004820181905260248201527f4552433732313a206d696e7420746f20746865207a65726f206164647265737360448201526064016106dc565b6116d081611630565b1561171d5760405162461bcd60e51b815260206004820152601c60248201527f4552433732313a20746f6b656e20616c7265616479206d696e7465640000000060448201526064016106dc565b61172b600083836001611b82565b61173481611630565b156117815760405162461bcd60e51b815260206004820152601c60248201527f4552433732313a20746f6b656e20616c7265616479206d696e7465640000000060448201526064016106dc565b6001600160a01b038216600081815260036020908152604080832080546001019055848352600290915280822080546001600160a01b0319168417905551839291907fddf252ad1be2c89b69c2b068fc378daa952ba7f163c4a11628f55a4df523b3ef908290a45050565b6117f582611630565b6118585760405162461bcd60e51b815260206004820152602e60248201527f45524337323155524953746f726167653a2055524920736574206f66206e6f6e60448201526d32bc34b9ba32b73a103a37b5b2b760911b60648201526084016106dc565b6000828152600660205260409020611870828261281a565b506040518281527ff8e1a15aba9398e019f0b49df1a4fde98ee17ae345cb5f6b5e2c27f5033e8ce79060200160405180910390a15050565b600b546001600160a01b03163314610e695760405162461bcd60e51b815260206004820181905260248201527f4f776e61626c653a2063616c6c6572206973206e6f7420746865206f776e657260448201526064016106dc565b600b80546001600160a01b038381166001600160a01b0319831681179093556040519116919082907f8be0079c531659141344cd1fd0a4f28419497f9722a3daafe3b4186f6b6457e090600090a35050565b816001600160a01b0316836001600160a01b0316036119b55760405162461bcd60e51b815260206004820152601960248201527f4552433732313a20617070726f766520746f2063616c6c65720000000000000060448201526064016106dc565b6001600160a01b03838116600081815260056020908152604080832094871680845294825291829020805460ff191686151590811790915591519182527f17307eab39ab6107e8899845ad3d59bd9653f200f220920489ca2b5937696c31910160405180910390a3505050565b611a2d848484611429565b611a3984848484611b8e565b610c765760405162461bcd60e51b81526004016106dc906128da565b6060611a60826112ec565b60008281526006602052604081208054611a799061264b565b80601f0160208091040260200160405190810160405280929190818152602001828054611aa59061264b565b8015611af25780601f10611ac757610100808354040283529160200191611af2565b820191906000526020600020905b815481529060010190602001808311611ad557829003601f168201915b505050505090506000611b1060408051602081019091526000815290565b90508051600003611b22575092915050565b815115611b54578082604051602001611b3c92919061292c565b60405160208183030381529060405292505050919050565b61142184611c8f565b60006001600160e01b03198216632483248360e11b14806105a957506105a982611d02565b610c7684848484611d52565b60006001600160a01b0384163b15611c8457604051630a85bd0160e11b81526001600160a01b0385169063150b7a0290611bd290339089908890889060040161295b565b6020604051808303816000875af1925050508015611c0d575060408051601f3d908101601f19168201909252611c0a91810190612998565b60015b611c6a573d808015611c3b576040519150601f19603f3d011682016040523d82523d6000602084013e611c40565b606091505b508051600003611c625760405162461bcd60e51b81526004016106dc906128da565b805181602001fd5b6001600160e01b031916630a85bd0160e11b149050611421565b506001949350505050565b6060611c9a826112ec565b6000611cb160408051602081019091526000815290565b90506000815111611cd157604051806020016040528060008152506107cf565b80611cdb84611e86565b604051602001611cec92919061292c565b6040516020818303038152906040529392505050565b60006001600160e01b031982166380ac58cd60e01b1480611d3357506001600160e01b03198216635b5e139f60e01b145b806105a957506301ffc9a760e01b6001600160e01b03198316146105a9565b6001811115611dc15760405162461bcd60e51b815260206004820152603560248201527f455243373231456e756d657261626c653a20636f6e7365637574697665207472604482015274185b9cd9995c9cc81b9bdd081cdd5c1c1bdc9d1959605a1b60648201526084016106dc565b816001600160a01b038516611e1d57611e1881600980546000838152600a60205260408120829055600182018355919091527f6e1540171b6c0c960b71a7020d9f60077f6af931a8bbf590da0223dacf75c7af0155565b611e40565b836001600160a01b0316856001600160a01b031614611e4057611e408582611f19565b6001600160a01b038416611e5c57611e5781611fb6565b611e7f565b846001600160a01b0316846001600160a01b031614611e7f57611e7f8482612065565b5050505050565b60606000611e93836120a9565b600101905060008167ffffffffffffffff811115611eb357611eb36122b2565b6040519080825280601f01601f191660200182016040528015611edd576020820181803683370190505b5090508181016020015b600019016f181899199a1a9b1b9c1cb0b131b232b360811b600a86061a8153600a8504945084611ee757509392505050565b60006001611f2684610dd1565b611f3091906127b7565b600083815260086020526040902054909150808214611f83576001600160a01b03841660009081526007602090815260408083208584528252808320548484528184208190558352600890915290208190555b5060009182526008602090815260408084208490556001600160a01b039094168352600781528383209183525290812055565b600954600090611fc8906001906127b7565b6000838152600a602052604081205460098054939450909284908110611ff057611ff06126d2565b906000526020600020015490508060098381548110612011576120116126d2565b6000918252602080832090910192909255828152600a90915260408082208490558582528120556009805480612049576120496129b5565b6001900381819060005260206000200160009055905550505050565b600061207083610dd1565b6001600160a01b039093166000908152600760209081526040808320868452825280832085905593825260089052919091209190915550565b60008072184f03e93ff9f4daa797ed6e38ed64bf6a1f0160401b83106120e85772184f03e93ff9f4daa797ed6e38ed64bf6a1f0160401b830492506040015b6d04ee2d6d415b85acef81000000008310612114576d04ee2d6d415b85acef8100000000830492506020015b662386f26fc10000831061213257662386f26fc10000830492506010015b6305f5e100831061214a576305f5e100830492506008015b612710831061215e57612710830492506004015b60648310612170576064830492506002015b600a83106105a95760010192915050565b6001600160e01b0319811681146112c457600080fd5b6000602082840312156121a957600080fd5b81356107cf81612181565b60005b838110156121cf5781810151838201526020016121b7565b50506000910152565b600081518084526121f08160208601602086016121b4565b601f01601f19169290920160200192915050565b6020815260006107cf60208301846121d8565b60006020828403121561222957600080fd5b5035919050565b80356001600160a01b038116811461224757600080fd5b919050565b6000806040838503121561225f57600080fd5b61226883612230565b946020939093013593505050565b60008060006060848603121561228b57600080fd5b61229484612230565b92506122a260208501612230565b9150604084013590509250925092565b634e487b7160e01b600052604160045260246000fd5b604051601f8201601f1916810167ffffffffffffffff811182821017156122f1576122f16122b2565b604052919050565b600067ffffffffffffffff821115612313576123136122b2565b5060051b60200190565b600067ffffffffffffffff831115612337576123376122b2565b61234a601f8401601f19166020016122c8565b905082815283838301111561235e57600080fd5b828260208301376000602084830101529392505050565b600082601f83011261238657600080fd5b8135602061239b612396836122f9565b6122c8565b8083825260208201915060208460051b8701019350868411156123bd57600080fd5b602086015b848110156123d957803583529183019183016123c2565b509695505050505050565b6000806000606084860312156123f957600080fd5b61240284612230565b925060208085013567ffffffffffffffff8082111561242057600080fd5b818701915087601f83011261243457600080fd5b8135612442612396826122f9565b81815260059190911b8301840190848101908a83111561246157600080fd5b8585015b838110156124ae5780358581111561247d5760008081fd5b8601603f81018d1361248f5760008081fd5b6124a08d898301356040840161231d565b845250918601918601612465565b509650505060408701359250808311156124c757600080fd5b50506124d586828701612375565b9150509250925092565b6020808252825182820181905260009190848201906040850190845b81811015612517578351835292840192918401916001016124fb565b50909695505050505050565b60006020828403121561253557600080fd5b6107cf82612230565b6000806040838503121561255157600080fd5b50508035926020909101359150565b6000806040838503121561257357600080fd5b61257c83612230565b91506020830135801515811461259157600080fd5b809150509250929050565b600080600080608085870312156125b257600080fd5b6125bb85612230565b93506125c960208601612230565b925060408501359150606085013567ffffffffffffffff8111156125ec57600080fd5b8501601f810187136125fd57600080fd5b61260c8782356020840161231d565b91505092959194509250565b6000806040838503121561262b57600080fd5b61263483612230565b915061264260208401612230565b90509250929050565b600181811c9082168061265f57607f821691505b60208210810361267f57634e487b7160e01b600052602260045260246000fd5b50919050565b6020808252602d908201527f4552433732313a2063616c6c6572206973206e6f7420746f6b656e206f776e6560408201526c1c881bdc88185c1c1c9bdd9959609a1b606082015260800190565b634e487b7160e01b600052603260045260246000fd5b634e487b7160e01b600052601160045260246000fd5b600060018201612710576127106126e8565b5060010190565b60408152600061272a60408301856121d8565b90508260208301529392505050565b60208082526025908201527f4552433732313a207472616e736665722066726f6d20696e636f72726563742060408201526437bbb732b960d91b606082015260800190565b80820281158282048414176105a9576105a96126e8565b6000826127b257634e487b7160e01b600052601260045260246000fd5b500490565b818103818111156105a9576105a96126e8565b601f82111561077d576000816000526020600020601f850160051c810160208610156127f35750805b601f850160051c820191505b81811015612812578281556001016127ff565b505050505050565b815167ffffffffffffffff811115612834576128346122b2565b61284881612842845461264b565b846127ca565b602080601f83116001811461287d57600084156128655750858301515b600019600386901b1c1916600185901b178555612812565b600085815260208120601f198616915b828110156128ac5788860151825594840194600190910190840161288d565b50858210156128ca5787850151600019600388901b60f8161c191681555b5050505050600190811b01905550565b60208082526032908201527f4552433732313a207472616e7366657220746f206e6f6e20455243373231526560408201527131b2b4bb32b91034b6b83632b6b2b73a32b960711b606082015260800190565b6000835161293e8184602088016121b4565b8351908301906129528183602088016121b4565b01949350505050565b6001600160a01b038581168252841660208201526040810183905260806060820181905260009061298e908301846121d8565b9695505050505050565b6000602082840312156129aa57600080fd5b81516107cf81612181565b634e487b7160e01b600052603160045260246000fdfea26469706673582212200182eb0c3b72d32608ba99fb08c146f4edf73f0147931f33ee7147ae3a110eb364736f6c63430008180033",
  "linkReferences": {},
  "deployedLinkReferences": {}
}