{
  "_format": "hh-sol-artifact-1",
  "contractName": "MyNFT",
  "sourceName": "contracts/nfts.sol",
  "abi": [
    {
      "inputs": [],
      "stateMutability": "nonpayable",
      "type": "constructor"
    },
    {
      "anonymous": false,
      "inputs": [
        {
          "indexed": true,
          "internalType": "address",
          "name": "owner",
          "type": "address"
        },
        {
          "indexed": true,
          "internalType": "address",
          "name": "approved",
          "type": "address"
        },
        {
          "indexed": true,
          "internalType": "uint256",
          "name": "tokenId",
          "type": "uint256"
        }
      ],
      "name": "Approval",
      "type": "event"
    },
    {
      "anonymous": false,
      "inputs": [
        {
          "indexed": true,
          "internalType": "address",
          "name": "owner",
          "type": "address"
        },
        {
          "indexed": true,
          "internalType": "address",
          "name": "operator",
          "type": "address"
        },
        {
          "indexed": false,
          "internalType": "bool",
          "name": "approved",
          "type": "bool"
        }
      ],
      "name": "ApprovalForAll",
      "type": "event"
    },
    {
      "anonymous": false,
      "inputs": [
        {
          "indexed": false,
          "internalType": "uint256",
          "name": "_fromTokenId",
          "type": "uint256"
        },
        {
          "indexed": false,
          "internalType": "uint256",
          "name": "_toTokenId",
          "type": "uint256"
        }
      ],
      "name": "BatchMetadataUpdate",
      "type": "event"
    },
    {
      "anonymous": false,
      "inputs": [
        {
          "indexed": false,
          "internalType": "uint256",
          "name": "_tokenId",
          "type": "uint256"
        }
      ],
      "name": "MetadataUpdate",
      "type": "event"
    },
    {
      "anonymous": false,
      "inputs": [
        {
          "indexed": true,
          "internalType": "uint256",
          "name": "tokenId",
          "type": "uint256"
        },
        {
          "indexed": true,
          "internalType": "address",
          "name": "newOwner",
          "type": "address"
        },
        {
          "indexed": false,
          "internalType": "uint256",
          "name": "price",
          "type": "uint256"
        }
      ],
      "name": "NFTBought",
      "type": "event"
    },
    {
      "anonymous": false,
      "inputs": [
        {
          "indexed": true,
          "internalType": "uint256",
          "name": "tokenId",
          "type": "uint256"
        },
        {
          "indexed": false,
          "internalType": "uint256",
          "name": "price",
          "type": "uint256"
        }
      ],
      "name": "NFTListed",
      "type": "event"
    },
    {
      "anonymous": false,
      "inputs": [
        {
          "indexed": true,
          "internalType": "uint256",
          "name": "tokenId",
          "type": "uint256"
        },
        {
          "indexed": true,
          "internalType": "address",
          "name": "recipient",
          "type": "address"
        },
        {
          "indexed": false,
          "internalType": "string",
          "name": "tokenURI",
          "type": "string"
        },
        {
          "indexed": false,
          "internalType": "uint256",
          "name": "price",
          "type": "uint256"
        }
      ],
      "name": "NFTMinted",
      "type": "event"
    },
    {
      "anonymous": false,
      "inputs": [
        {
          "indexed": true,
          "internalType": "address",
          "name": "previousOwner",
          "type": "address"
        },
        {
          "indexed": true,
          "internalType": "address",
          "name": "newOwner",
          "type": "address"
        }
      ],
      "name": "OwnershipTransferred",
      "type": "event"
    },
    {
      "anonymous": false,
      "inputs": [
        {
          "indexed": true,
          "internalType": "address",
          "name": "from",
          "type": "address"
        },
        {
          "indexed": true,
          "internalType": "address",
          "name": "to",
          "type": "address"
        },
        {
          "indexed": true,
          "internalType": "uint256",
          "name": "tokenId",
          "type": "uint256"
        }
      ],
      "name": "Transfer",
      "type": "event"
    },
    {
      "inputs": [],
      "name": "ROYALTY_PERCENTAGE",
      "outputs": [
        {
          "internalType": "uint256",
          "name": "",
          "type": "uint256"
        }
      ],
      "stateMutability": "view",
      "type": "function"
    },
    {
      "inputs": [
        {
          "internalType": "address",
          "name": "to",
          "type": "address"
        },
        {
          "internalType": "uint256",
          "name": "tokenId",
          "type": "uint256"
        }
      ],
      "name": "approve",
      "outputs": [],
      "stateMutability": "nonpayable",
      "type": "function"
    },
    {
      "inputs": [
        {
          "internalType": "address",
          "name": "owner",
          "type": "address"
        }
      ],
      "name": "balanceOf",
      "outputs": [
        {
          "internalType": "uint256",
          "name": "",
          "type": "uint256"
        }
      ],
      "stateMutability": "view",
      "type": "function"
    },
    {
      "inputs": [
        {
          "internalType": "uint256",
          "name": "tokenId",
          "type": "uint256"
        }
      ],
      "name": "buyNFT",
      "outputs": [],
      "stateMutability": "payable",
      "type": "function"
    },
    {
      "inputs": [
        {
          "internalType": "uint256",
          "name": "tokenId",
          "type": "uint256"
        }
      ],
      "name": "getApproved",
      "outputs": [
        {
          "internalType": "address",
          "name": "",
          "type": "address"
        }
      ],
      "stateMutability": "view",
      "type": "function"
    },
    {
      "inputs": [],
      "name": "getTokensForSale",
      "outputs": [
        {
          "internalType": "uint256[]",
          "name": "",
          "type": "uint256[]"
        }
      ],
      "stateMutability": "view",
      "type": "function"
    },
    {
      "inputs": [
        {
          "internalType": "address",
          "name": "owner",
          "type": "address"
        },
        {
          "internalType": "address",
          "name": "operator",
          "type": "address"
        }
      ],
      "name": "isApprovedForAll",
      "outputs": [
        {
          "internalType": "bool",
          "name": "",
          "type": "bool"
        }
      ],
      "stateMutability": "view",
      "type": "function"
    },
    {
      "inputs": [
        {
          "internalType": "uint256",
          "name": "tokenId",
          "type": "uint256"
        },
        {
          "internalType": "uint256",
          "name": "price",
          "type": "uint256"
        }
      ],
      "name": "listNFT",
      "outputs": [],
      "stateMutability": "nonpayable",
      "type": "function"
    },
    {
      "inputs": [
        {
          "internalType": "address",
          "name": "recipient",
          "type": "address"
        },
        {
          "internalType": "string[]",
          "name": "tokenURIs",
          "type": "string[]"
        },
        {
          "internalType": "uint256[]",
          "name": "prices",
          "type": "uint256[]"
        }
      ],
      "name": "mintMultipleNFTs",
      "outputs": [],
      "stateMutability": "nonpayable",
      "type": "function"
    },
    {
      "inputs": [],
      "name": "name",
      "outputs": [
        {
          "internalType": "string",
          "name": "",
          "type": "string"
        }
      ],
      "stateMutability": "view",
      "type": "function"
    },
    {
      "inputs": [
        {
          "internalType": "uint256",
          "name": "",
          "type": "uint256"
        }
      ],
      "name": "originalCreators",
      "outputs": [
        {
          "internalType": "address",
          "name": "",
          "type": "address"
        }
      ],
      "stateMutability": "view",
      "type": "function"
    },
    {
      "inputs": [],
      "name": "owner",
      "outputs": [
        {
          "internalType": "address",
          "name": "",
          "type": "address"
        }
      ],
      "stateMutability": "view",
      "type": "function"
    },
    {
      "inputs": [
        {
          "internalType": "uint256",
          "name": "tokenId",
          "type": "uint256"
        }
      ],
      "name": "ownerOf",
      "outputs": [
        {
          "internalType": "address",
          "name": "",
          "type": "address"
        }
      ],
      "stateMutability": "view",
      "type": "function"
    },
    {
      "inputs": [],
      "name": "renounceOwnership",
      "outputs": [],
      "stateMutability": "nonpayable",
      "type": "function"
    },
    {
      "inputs": [
        {
          "internalType": "address",
          "name": "from",
          "type": "address"
        },
        {
          "internalType": "address",
          "name": "to",
          "type": "address"
        },
        {
          "internalType": "uint256",
          "name": "tokenId",
          "type": "uint256"
        }
      ],
      "name": "safeTransferFrom",
      "outputs": [],
      "stateMutability": "nonpayable",
      "type": "function"
    },
    {
      "inputs": [
        {
          "internalType": "address",
          "name": "from",
          "type": "address"
        },
        {
          "internalType": "address",
          "name": "to",
          "type": "address"
        },
        {
          "internalType": "uint256",
          "name": "tokenId",
          "type": "uint256"
        },
        {
          "internalType": "bytes",
          "name": "data",
          "type": "bytes"
        }
      ],
      "name": "safeTransferFrom",
      "outputs": [],
      "stateMutability": "nonpayable",
      "type": "function"
    },
    {
      "inputs": [
        {
          "internalType": "address",
          "name": "operator",
          "type": "address"
        },
        {
          "internalType": "bool",
          "name": "approved",
          "type": "bool"
        }
      ],
      "name": "setApprovalForAll",
      "outputs": [],
      "stateMutability": "nonpayable",
      "type": "function"
    },
    {
      "inputs": [
        {
          "internalType": "bytes4",
          "name": "interfaceId",
          "type": "bytes4"
        }
      ],
      "name": "supportsInterface",
      "outputs": [
        {
          "internalType": "bool",
          "name": "",
          "type": "bool"
        }
      ],
      "stateMutability": "view",
      "type": "function"
    },
    {
      "inputs": [],
      "name": "symbol",
      "outputs": [
        {
          "internalType": "string",
          "name": "",
          "type": "string"
        }
      ],
      "stateMutability": "view",
      "type": "function"
    },
    {
      "inputs": [
        {
          "internalType": "uint256",
          "name": "index",
          "type": "uint256"
        }
      ],
      "name": "tokenByIndex",
      "outputs": [
        {
          "internalType": "uint256",
          "name": "",
          "type": "uint256"
        }
      ],
      "stateMutability": "view",
      "type": "function"
    },
    {
      "inputs": [
        {
          "internalType": "address",
          "name": "owner",
          "type": "address"
        },
        {
          "internalType": "uint256",
          "name": "index",
          "type": "uint256"
        }
      ],
      "name": "tokenOfOwnerByIndex",
      "outputs": [
        {
          "internalType": "uint256",
          "name": "",
          "type": "uint256"
        }
      ],
      "stateMutability": "view",
      "type": "function"
    },
    {
      "inputs": [
        {
          "internalType": "uint256",
          "name": "",
          "type": "uint256"
        }
      ],
      "name": "tokenPrices",
      "outputs": [
        {
          "internalType": "uint256",
          "name": "",
          "type": "uint256"
        }
      ],
      "stateMutability": "view",
      "type": "function"
    },
    {
      "inputs": [
        {
          "internalType": "uint256",
          "name": "tokenId",
          "type": "uint256"
        }
      ],
      "name": "tokenURI",
      "outputs": [
        {
          "internalType": "string",
          "name": "",
          "type": "string"
        }
      ],
      "stateMutability": "view",
      "type": "function"
    },
    {
      "inputs": [],
      "name": "totalSupply",
      "outputs": [
        {
          "internalType": "uint256",
          "name": "",
          "type": "uint256"
        }
      ],
      "stateMutability": "view",
      "type": "function"
    },
    {
      "inputs": [
        {
          "internalType": "address",
          "name": "from",
          "type": "address"
        },
        {
          "internalType": "address",
          "name": "to",
          "type": "address"
        },
        {
          "internalType": "uint256",
          "name": "tokenId",
          "type": "uint256"
        }
      ],
      "name": "transferFrom",
      "outputs": [],
      "stateMutability": "nonpayable",
      "type": "function"
    },
    {
      "inputs": [
        {
          "internalType": "address",
          "name": "newOwner",
          "type": "address"
        }
      ],
      "name": "transferOwnership",
      "outputs": [],
      "stateMutability": "nonpayable",
      "type": "function"
    }
  ],
  "bytecode": "0x60806040523480156200001157600080fd5b5060405180604001604052806005815260200164135e53919560da1b815250604051806040016040528060048152602001631353919560e21b81525081600090816200005e91906200018d565b5060016200006d82826200018d565b5050506200008a620000846200009060201b60201c565b62000094565b62000259565b3390565b600b80546001600160a01b038381166001600160a01b0319831681179093556040519116919082907f8be0079c531659141344cd1fd0a4f28419497f9722a3daafe3b4186f6b6457e090600090a35050565b634e487b7160e01b600052604160045260246000fd5b600181811c908216806200011157607f821691505b6020821081036200013257634e487b7160e01b600052602260045260246000fd5b50919050565b601f82111562000188576000816000526020600020601f850160051c81016020861015620001635750805b601f850160051c820191505b8181101562000184578281556001016200016f565b5050505b505050565b81516001600160401b03811115620001a957620001a9620000e6565b620001c181620001ba8454620000fc565b8462000138565b602080601f831160018114620001f95760008415620001e05750858301515b600019600386901b1c1916600185901b17855562000184565b600085815260208120601f198616915b828110156200022a5788860151825594840194600190910190840162000209565b5085821015620002495787850151600019600388901b60f8161c191681555b5050505050600190811b01905550565b6127db80620002696000396000f3fe6080604052600436106101815760003560e01c806365e4e1c0116100d157806395d89b411161008a578063c87b56dd11610064578063c87b56dd14610462578063e5afe3e614610482578063e985e9c5146104af578063f2fde38b146104f857600080fd5b806395d89b411461040d578063a22cb46514610422578063b88d4fde1461044257600080fd5b806365e4e1c01461034257806370a0823114610364578063715018a6146103845780638b305930146103995780638da5cb5b146103cf57806394383f14146103ed57600080fd5b80632f745c591161013e5780634f6ccce7116101185780634f6ccce7146102cf57806351ed8288146102ef578063573a31a6146103025780636352211e1461032257600080fd5b80632f745c591461027a57806342842e0e1461029a578063463b08db146102ba57600080fd5b806301ffc9a71461018657806306fdde03146101bb578063081812fc146101dd578063095ea7b31461021557806318160ddd1461023757806323b872dd1461025a575b600080fd5b34801561019257600080fd5b506101a66101a1366004611f71565b610518565b60405190151581526020015b60405180910390f35b3480156101c757600080fd5b506101d0610529565b6040516101b29190611fde565b3480156101e957600080fd5b506101fd6101f8366004611ff1565b6105bb565b6040516001600160a01b0390911681526020016101b2565b34801561022157600080fd5b50610235610230366004612026565b6105e2565b005b34801561024357600080fd5b5061024c6106fc565b6040519081526020016101b2565b34801561026657600080fd5b50610235610275366004612050565b61070c565b34801561028657600080fd5b5061024c610295366004612026565b61073d565b3480156102a657600080fd5b506102356102b5366004612050565b610750565b3480156102c657600080fd5b5061024c600581565b3480156102db57600080fd5b5061024c6102ea366004611ff1565b61076b565b6102356102fd366004611ff1565b6107fe565b34801561030e57600080fd5b5061023561031d3660046121be565b610a0b565b34801561032e57600080fd5b506101fd61033d366004611ff1565b610be7565b34801561034e57600080fd5b50610357610c47565b6040516101b291906122b9565b34801561037057600080fd5b5061024c61037f3660046122fd565b610d3c565b34801561039057600080fd5b50610235610dc2565b3480156103a557600080fd5b506101fd6103b4366004611ff1565b600e602052600090815260409020546001600160a01b031681565b3480156103db57600080fd5b50600b546001600160a01b03166101fd565b3480156103f957600080fd5b50610235610408366004612318565b610dd6565b34801561041957600080fd5b506101d0610fcd565b34801561042e57600080fd5b5061023561043d36600461233a565b610fdc565b34801561044e57600080fd5b5061023561045d366004612376565b610feb565b34801561046e57600080fd5b506101d061047d366004611ff1565b61101d565b34801561048e57600080fd5b5061024c61049d366004611ff1565b600d6020526000908152604090205481565b3480156104bb57600080fd5b506101a66104ca3660046123f2565b6001600160a01b03918216600090815260056020908152604080832093909416825291909152205460ff1690565b34801561050457600080fd5b506102356105133660046122fd565b611028565b6000610523826110a1565b92915050565b60606000805461053890612425565b80601f016020809104026020016040519081016040528092919081815260200182805461056490612425565b80156105b15780601f10610586576101008083540402835291602001916105b1565b820191906000526020600020905b81548152906001019060200180831161059457829003601f168201915b5050505050905090565b60006105c6826110c6565b506000908152600460205260409020546001600160a01b031690565b60006105ed82610be7565b9050806001600160a01b0316836001600160a01b03160361065f5760405162461bcd60e51b815260206004820152602160248201527f4552433732313a20617070726f76616c20746f2063757272656e74206f776e656044820152603960f91b60648201526084015b60405180910390fd5b336001600160a01b038216148061067b575061067b81336104ca565b6106ed5760405162461bcd60e51b815260206004820152603d60248201527f4552433732313a20617070726f76652063616c6c6572206973206e6f7420746f60448201527f6b656e206f776e6572206f7220617070726f76656420666f7220616c6c0000006064820152608401610656565b6106f78383611116565b505050565b600061070760095490565b905090565b6107163382611184565b6107325760405162461bcd60e51b81526004016106569061245f565b6106f7838383611203565b60006107498383611374565b9392505050565b6106f783838360405180602001604052806000815250610feb565b600061077660095490565b82106107d95760405162461bcd60e51b815260206004820152602c60248201527f455243373231456e756d657261626c653a20676c6f62616c20696e646578206f60448201526b7574206f6620626f756e647360a01b6064820152608401610656565b600982815481106107ec576107ec6124ac565b90600052602060002001549050919050565b6000818152600d60205260409020546108168261140a565b6108595760405162461bcd60e51b8152602060048201526014602482015273151bdad95b88191bd95cc81b9bdd08195e1a5cdd60621b6044820152606401610656565b600081116108a95760405162461bcd60e51b815260206004820152601a60248201527f5468697320746f6b656e206973206e6f7420666f722073616c650000000000006044820152606401610656565b803410156108f15760405162461bcd60e51b8152602060048201526015602482015274139bdd08195b9bdd59da08195d1a195c881cd95b9d605a1b6044820152606401610656565b60006108fc83610be7565b6000848152600e60205260408120549192506001600160a01b0390911690610930606461092a866005611427565b90611433565b6040519091506001600160a01b0383169082156108fc029083906000818181858888f19350505050158015610969573d6000803e3d6000fd5b506001600160a01b0383166108fc610981348461143f565b6040518115909202916000818181858888f193505050501580156109a9573d6000803e3d6000fd5b506109b5833387611203565b6000858152600d60205260408082209190915551339086907f26701af1547d690b8c46ed5f0fbb8d5b115492b3b898f3dfc2e87b26cfcc1b14906109fc9088815260200190565b60405180910390a35050505050565b610a1361144b565b8051825114610a645760405162461bcd60e51b815260206004820152601f60248201527f5552497320616e6420707269636573206c656e677468206d69736d61746368006044820152606401610656565b600a82511115610ac45760405162461bcd60e51b815260206004820152602560248201527f43616e206f6e6c79206d696e7420757020746f203130204e46547320617420616044820152642074696d6560d81b6064820152608401610656565b60005b8251811015610be157600c8054906000610ae0836124d8565b9091555050600c54610af285826114a5565b610b1581858481518110610b0857610b086124ac565b6020026020010151611620565b828281518110610b2757610b276124ac565b6020908102919091018101516000838152600d8352604080822092909255600e909252902080546001600160a01b0319166001600160a01b038716908117909155845182907f23eae53a2b33c20fc1b74912840a6a2a72adc26effa68729f81e756c875df28990879086908110610ba057610ba06124ac565b6020026020010151868681518110610bba57610bba6124ac565b6020026020010151604051610bd09291906124f1565b60405180910390a350600101610ac7565b50505050565b6000818152600260205260408120546001600160a01b0316806105235760405162461bcd60e51b8152602060048201526018602482015277115490cdcc8c4e881a5b9d985b1a59081d1bdad95b88125160421b6044820152606401610656565b6060600060015b600c548111610c8b576000818152600d602052604090205415610c795781610c75816124d8565b9250505b80610c83816124d8565b915050610c4e565b5060008167ffffffffffffffff811115610ca757610ca761208c565b604051908082528060200260200182016040528015610cd0578160200160208202803683370190505b509050600060015b600c548111610d33576000818152600d602052604090205415610d215780838381518110610d0857610d086124ac565b602090810291909101015281610d1d816124d8565b9250505b80610d2b816124d8565b915050610cd8565b50909392505050565b60006001600160a01b038216610da65760405162461bcd60e51b815260206004820152602960248201527f4552433732313a2061646472657373207a65726f206973206e6f7420612076616044820152683634b21037bbb732b960b91b6064820152608401610656565b506001600160a01b031660009081526003602052604090205490565b610dca61144b565b610dd460006116dc565b565b33610de083610be7565b6001600160a01b031614610e365760405162461bcd60e51b815260206004820152601f60248201527f4f6e6c7920746865206f776e65722063616e206c69737420746865204e4654006044820152606401610656565b610e3f8261140a565b610e825760405162461bcd60e51b8152602060048201526014602482015273151bdad95b88191bd95cc81b9bdd08195e1a5cdd60621b6044820152606401610656565b60008111610ed25760405162461bcd60e51b815260206004820152601f60248201527f5072696365206d7573742062652067726561746572207468616e207a65726f006044820152606401610656565b6000828152600d60205260409020541580610f0457506000828152600e60205260409020546001600160a01b03163314155b15610f1f576000828152600d60205260409020819055610f8f565b6000828152600d60205260409020548114610f8f5760405162461bcd60e51b815260206004820152602a60248201527f596f75206d757374206c69737420746865204e465420617420746865206d696e60448201526974696e6720707269636560b01b6064820152608401610656565b817fa6cd73580a273eec6c1026108f6b63479fbaef5356dde4ff43e4b38dd187485f82604051610fc191815260200190565b60405180910390a25050565b60606001805461053890612425565b610fe733838361172e565b5050565b610ff53383611184565b6110115760405162461bcd60e51b81526004016106569061245f565b610be1848484846117fc565b60606105238261182f565b61103061144b565b6001600160a01b0381166110955760405162461bcd60e51b815260206004820152602660248201527f4f776e61626c653a206e6577206f776e657220697320746865207a65726f206160448201526564647265737360d01b6064820152608401610656565b61109e816116dc565b50565b60006001600160e01b0319821663780e9d6360e01b1480610523575061052382611937565b6110cf8161140a565b61109e5760405162461bcd60e51b8152602060048201526018602482015277115490cdcc8c4e881a5b9d985b1a59081d1bdad95b88125160421b6044820152606401610656565b600081815260046020526040902080546001600160a01b0319166001600160a01b038416908117909155819061114b82610be7565b6001600160a01b03167f8c5be1e5ebec7d5bd14f71427d1e84f3dd0314c0f7b2291e5b200ac8c7c3b92560405160405180910390a45050565b60008061119083610be7565b9050806001600160a01b0316846001600160a01b031614806111d757506001600160a01b0380821660009081526005602090815260408083209388168352929052205460ff165b806111fb5750836001600160a01b03166111f0846105bb565b6001600160a01b0316145b949350505050565b826001600160a01b031661121682610be7565b6001600160a01b03161461123c5760405162461bcd60e51b815260040161065690612513565b6001600160a01b03821661129e5760405162461bcd60e51b8152602060048201526024808201527f4552433732313a207472616e7366657220746f20746865207a65726f206164646044820152637265737360e01b6064820152608401610656565b6112ab838383600161195c565b826001600160a01b03166112be82610be7565b6001600160a01b0316146112e45760405162461bcd60e51b815260040161065690612513565b600081815260046020908152604080832080546001600160a01b03199081169091556001600160a01b0387811680865260038552838620805460001901905590871680865283862080546001019055868652600290945282852080549092168417909155905184937fddf252ad1be2c89b69c2b068fc378daa952ba7f163c4a11628f55a4df523b3ef91a4505050565b600061137f83610d3c565b82106113e15760405162461bcd60e51b815260206004820152602b60248201527f455243373231456e756d657261626c653a206f776e657220696e646578206f7560448201526a74206f6620626f756e647360a81b6064820152608401610656565b506001600160a01b03919091166000908152600760209081526040808320938352929052205490565b6000908152600260205260409020546001600160a01b0316151590565b60006107498284612558565b6000610749828461256f565b60006107498284612591565b600b546001600160a01b03163314610dd45760405162461bcd60e51b815260206004820181905260248201527f4f776e61626c653a2063616c6c6572206973206e6f7420746865206f776e65726044820152606401610656565b6001600160a01b0382166114fb5760405162461bcd60e51b815260206004820181905260248201527f4552433732313a206d696e7420746f20746865207a65726f20616464726573736044820152606401610656565b6115048161140a565b156115515760405162461bcd60e51b815260206004820152601c60248201527f4552433732313a20746f6b656e20616c7265616479206d696e746564000000006044820152606401610656565b61155f60008383600161195c565b6115688161140a565b156115b55760405162461bcd60e51b815260206004820152601c60248201527f4552433732313a20746f6b656e20616c7265616479206d696e746564000000006044820152606401610656565b6001600160a01b038216600081815260036020908152604080832080546001019055848352600290915280822080546001600160a01b0319168417905551839291907fddf252ad1be2c89b69c2b068fc378daa952ba7f163c4a11628f55a4df523b3ef908290a45050565b6116298261140a565b61168c5760405162461bcd60e51b815260206004820152602e60248201527f45524337323155524953746f726167653a2055524920736574206f66206e6f6e60448201526d32bc34b9ba32b73a103a37b5b2b760911b6064820152608401610656565b60008281526006602052604090206116a482826125f4565b506040518281527ff8e1a15aba9398e019f0b49df1a4fde98ee17ae345cb5f6b5e2c27f5033e8ce79060200160405180910390a15050565b600b80546001600160a01b038381166001600160a01b0319831681179093556040519116919082907f8be0079c531659141344cd1fd0a4f28419497f9722a3daafe3b4186f6b6457e090600090a35050565b816001600160a01b0316836001600160a01b03160361178f5760405162461bcd60e51b815260206004820152601960248201527f4552433732313a20617070726f766520746f2063616c6c6572000000000000006044820152606401610656565b6001600160a01b03838116600081815260056020908152604080832094871680845294825291829020805460ff191686151590811790915591519182527f17307eab39ab6107e8899845ad3d59bd9653f200f220920489ca2b5937696c31910160405180910390a3505050565b611807848484611203565b61181384848484611968565b610be15760405162461bcd60e51b8152600401610656906126b4565b606061183a826110c6565b6000828152600660205260408120805461185390612425565b80601f016020809104026020016040519081016040528092919081815260200182805461187f90612425565b80156118cc5780601f106118a1576101008083540402835291602001916118cc565b820191906000526020600020905b8154815290600101906020018083116118af57829003601f168201915b5050505050905060006118ea60408051602081019091526000815290565b905080516000036118fc575092915050565b81511561192e578082604051602001611916929190612706565b60405160208183030381529060405292505050919050565b6111fb84611a69565b60006001600160e01b03198216632483248360e11b1480610523575061052382611adc565b610be184848484611b2c565b60006001600160a01b0384163b15611a5e57604051630a85bd0160e11b81526001600160a01b0385169063150b7a02906119ac903390899088908890600401612735565b6020604051808303816000875af19250505080156119e7575060408051601f3d908101601f191682019092526119e491810190612772565b60015b611a44573d808015611a15576040519150601f19603f3d011682016040523d82523d6000602084013e611a1a565b606091505b508051600003611a3c5760405162461bcd60e51b8152600401610656906126b4565b805181602001fd5b6001600160e01b031916630a85bd0160e11b1490506111fb565b506001949350505050565b6060611a74826110c6565b6000611a8b60408051602081019091526000815290565b90506000815111611aab5760405180602001604052806000815250610749565b80611ab584611c60565b604051602001611ac6929190612706565b6040516020818303038152906040529392505050565b60006001600160e01b031982166380ac58cd60e01b1480611b0d57506001600160e01b03198216635b5e139f60e01b145b8061052357506301ffc9a760e01b6001600160e01b0319831614610523565b6001811115611b9b5760405162461bcd60e51b815260206004820152603560248201527f455243373231456e756d657261626c653a20636f6e7365637574697665207472604482015274185b9cd9995c9cc81b9bdd081cdd5c1c1bdc9d1959605a1b6064820152608401610656565b816001600160a01b038516611bf757611bf281600980546000838152600a60205260408120829055600182018355919091527f6e1540171b6c0c960b71a7020d9f60077f6af931a8bbf590da0223dacf75c7af0155565b611c1a565b836001600160a01b0316856001600160a01b031614611c1a57611c1a8582611cf3565b6001600160a01b038416611c3657611c3181611d90565b611c59565b846001600160a01b0316846001600160a01b031614611c5957611c598482611e3f565b5050505050565b60606000611c6d83611e83565b600101905060008167ffffffffffffffff811115611c8d57611c8d61208c565b6040519080825280601f01601f191660200182016040528015611cb7576020820181803683370190505b5090508181016020015b600019016f181899199a1a9b1b9c1cb0b131b232b360811b600a86061a8153600a8504945084611cc157509392505050565b60006001611d0084610d3c565b611d0a9190612591565b600083815260086020526040902054909150808214611d5d576001600160a01b03841660009081526007602090815260408083208584528252808320548484528184208190558352600890915290208190555b5060009182526008602090815260408084208490556001600160a01b039094168352600781528383209183525290812055565b600954600090611da290600190612591565b6000838152600a602052604081205460098054939450909284908110611dca57611dca6124ac565b906000526020600020015490508060098381548110611deb57611deb6124ac565b6000918252602080832090910192909255828152600a90915260408082208490558582528120556009805480611e2357611e2361278f565b6001900381819060005260206000200160009055905550505050565b6000611e4a83610d3c565b6001600160a01b039093166000908152600760209081526040808320868452825280832085905593825260089052919091209190915550565b60008072184f03e93ff9f4daa797ed6e38ed64bf6a1f0160401b8310611ec25772184f03e93ff9f4daa797ed6e38ed64bf6a1f0160401b830492506040015b6d04ee2d6d415b85acef81000000008310611eee576d04ee2d6d415b85acef8100000000830492506020015b662386f26fc100008310611f0c57662386f26fc10000830492506010015b6305f5e1008310611f24576305f5e100830492506008015b6127108310611f3857612710830492506004015b60648310611f4a576064830492506002015b600a83106105235760010192915050565b6001600160e01b03198116811461109e57600080fd5b600060208284031215611f8357600080fd5b813561074981611f5b565b60005b83811015611fa9578181015183820152602001611f91565b50506000910152565b60008151808452611fca816020860160208601611f8e565b601f01601f19169290920160200192915050565b6020815260006107496020830184611fb2565b60006020828403121561200357600080fd5b5035919050565b80356001600160a01b038116811461202157600080fd5b919050565b6000806040838503121561203957600080fd5b6120428361200a565b946020939093013593505050565b60008060006060848603121561206557600080fd5b61206e8461200a565b925061207c6020850161200a565b9150604084013590509250925092565b634e487b7160e01b600052604160045260246000fd5b604051601f8201601f1916810167ffffffffffffffff811182821017156120cb576120cb61208c565b604052919050565b600067ffffffffffffffff8211156120ed576120ed61208c565b5060051b60200190565b600067ffffffffffffffff8311156121115761211161208c565b612124601f8401601f19166020016120a2565b905082815283838301111561213857600080fd5b828260208301376000602084830101529392505050565b600082601f83011261216057600080fd5b81356020612175612170836120d3565b6120a2565b8083825260208201915060208460051b87010193508684111561219757600080fd5b602086015b848110156121b3578035835291830191830161219c565b509695505050505050565b6000806000606084860312156121d357600080fd5b6121dc8461200a565b925060208085013567ffffffffffffffff808211156121fa57600080fd5b818701915087601f83011261220e57600080fd5b813561221c612170826120d3565b81815260059190911b8301840190848101908a83111561223b57600080fd5b8585015b83811015612288578035858111156122575760008081fd5b8601603f81018d136122695760008081fd5b61227a8d89830135604084016120f7565b84525091860191860161223f565b509650505060408701359250808311156122a157600080fd5b50506122af8682870161214f565b9150509250925092565b6020808252825182820181905260009190848201906040850190845b818110156122f1578351835292840192918401916001016122d5565b50909695505050505050565b60006020828403121561230f57600080fd5b6107498261200a565b6000806040838503121561232b57600080fd5b50508035926020909101359150565b6000806040838503121561234d57600080fd5b6123568361200a565b91506020830135801515811461236b57600080fd5b809150509250929050565b6000806000806080858703121561238c57600080fd5b6123958561200a565b93506123a36020860161200a565b925060408501359150606085013567ffffffffffffffff8111156123c657600080fd5b8501601f810187136123d757600080fd5b6123e6878235602084016120f7565b91505092959194509250565b6000806040838503121561240557600080fd5b61240e8361200a565b915061241c6020840161200a565b90509250929050565b600181811c9082168061243957607f821691505b60208210810361245957634e487b7160e01b600052602260045260246000fd5b50919050565b6020808252602d908201527f4552433732313a2063616c6c6572206973206e6f7420746f6b656e206f776e6560408201526c1c881bdc88185c1c1c9bdd9959609a1b606082015260800190565b634e487b7160e01b600052603260045260246000fd5b634e487b7160e01b600052601160045260246000fd5b6000600182016124ea576124ea6124c2565b5060010190565b6040815260006125046040830185611fb2565b90508260208301529392505050565b60208082526025908201527f4552433732313a207472616e736665722066726f6d20696e636f72726563742060408201526437bbb732b960d91b606082015260800190565b8082028115828204841417610523576105236124c2565b60008261258c57634e487b7160e01b600052601260045260246000fd5b500490565b81810381811115610523576105236124c2565b601f8211156106f7576000816000526020600020601f850160051c810160208610156125cd5750805b601f850160051c820191505b818110156125ec578281556001016125d9565b505050505050565b815167ffffffffffffffff81111561260e5761260e61208c565b6126228161261c8454612425565b846125a4565b602080601f831160018114612657576000841561263f5750858301515b600019600386901b1c1916600185901b1785556125ec565b600085815260208120601f198616915b8281101561268657888601518255948401946001909101908401612667565b50858210156126a45787850151600019600388901b60f8161c191681555b5050505050600190811b01905550565b60208082526032908201527f4552433732313a207472616e7366657220746f206e6f6e20455243373231526560408201527131b2b4bb32b91034b6b83632b6b2b73a32b960711b606082015260800190565b60008351612718818460208801611f8e565b83519083019061272c818360208801611f8e565b01949350505050565b6001600160a01b038581168252841660208201526040810183905260806060820181905260009061276890830184611fb2565b9695505050505050565b60006020828403121561278457600080fd5b815161074981611f5b565b634e487b7160e01b600052603160045260246000fdfea264697066735822122091710c6f6c362281e03ba84b05abd5b519e43667d8d03af2fa87e40eefed9cb364736f6c63430008180033",
  "linkReferences": {},
  "deployedLinkReferences": {}
}