{
  "_format": "hh-sol-artifact-1",
  "contractName": "MyNFT",
  "sourceName": "contracts/nfts.sol",
  "abi": [
    {
      "inputs": [],
      "stateMutability": "nonpayable",
      "type": "constructor"
    },
    {
      "anonymous": false,
      "inputs": [
        {
          "indexed": true,
          "internalType": "address",
          "name": "owner",
          "type": "address"
        },
        {
          "indexed": true,
          "internalType": "address",
          "name": "approved",
          "type": "address"
        },
        {
          "indexed": true,
          "internalType": "uint256",
          "name": "tokenId",
          "type": "uint256"
        }
      ],
      "name": "Approval",
      "type": "event"
    },
    {
      "anonymous": false,
      "inputs": [
        {
          "indexed": true,
          "internalType": "address",
          "name": "owner",
          "type": "address"
        },
        {
          "indexed": true,
          "internalType": "address",
          "name": "operator",
          "type": "address"
        },
        {
          "indexed": false,
          "internalType": "bool",
          "name": "approved",
          "type": "bool"
        }
      ],
      "name": "ApprovalForAll",
      "type": "event"
    },
    {
      "anonymous": false,
      "inputs": [
        {
          "indexed": false,
          "internalType": "uint256",
          "name": "_fromTokenId",
          "type": "uint256"
        },
        {
          "indexed": false,
          "internalType": "uint256",
          "name": "_toTokenId",
          "type": "uint256"
        }
      ],
      "name": "BatchMetadataUpdate",
      "type": "event"
    },
    {
      "anonymous": false,
      "inputs": [
        {
          "indexed": false,
          "internalType": "uint256",
          "name": "_tokenId",
          "type": "uint256"
        }
      ],
      "name": "MetadataUpdate",
      "type": "event"
    },
    {
      "anonymous": false,
      "inputs": [
        {
          "indexed": true,
          "internalType": "uint256",
          "name": "tokenId",
          "type": "uint256"
        },
        {
          "indexed": true,
          "internalType": "address",
          "name": "newOwner",
          "type": "address"
        },
        {
          "indexed": false,
          "internalType": "uint256",
          "name": "price",
          "type": "uint256"
        }
      ],
      "name": "NFTBought",
      "type": "event"
    },
    {
      "anonymous": false,
      "inputs": [
        {
          "indexed": true,
          "internalType": "uint256",
          "name": "tokenId",
          "type": "uint256"
        }
      ],
      "name": "NFTDelisted",
      "type": "event"
    },
    {
      "anonymous": false,
      "inputs": [
        {
          "indexed": true,
          "internalType": "uint256",
          "name": "tokenId",
          "type": "uint256"
        },
        {
          "indexed": false,
          "internalType": "uint256",
          "name": "price",
          "type": "uint256"
        }
      ],
      "name": "NFTListed",
      "type": "event"
    },
    {
      "anonymous": false,
      "inputs": [
        {
          "indexed": true,
          "internalType": "uint256",
          "name": "tokenId",
          "type": "uint256"
        },
        {
          "indexed": true,
          "internalType": "address",
          "name": "recipient",
          "type": "address"
        },
        {
          "indexed": false,
          "internalType": "string",
          "name": "tokenURI",
          "type": "string"
        },
        {
          "indexed": false,
          "internalType": "uint256",
          "name": "price",
          "type": "uint256"
        }
      ],
      "name": "NFTMinted",
      "type": "event"
    },
    {
      "anonymous": false,
      "inputs": [
        {
          "indexed": true,
          "internalType": "address",
          "name": "previousOwner",
          "type": "address"
        },
        {
          "indexed": true,
          "internalType": "address",
          "name": "newOwner",
          "type": "address"
        }
      ],
      "name": "OwnershipTransferred",
      "type": "event"
    },
    {
      "anonymous": false,
      "inputs": [
        {
          "indexed": true,
          "internalType": "address",
          "name": "from",
          "type": "address"
        },
        {
          "indexed": true,
          "internalType": "address",
          "name": "to",
          "type": "address"
        },
        {
          "indexed": true,
          "internalType": "uint256",
          "name": "tokenId",
          "type": "uint256"
        }
      ],
      "name": "Transfer",
      "type": "event"
    },
    {
      "inputs": [],
      "name": "ROYALTY_PERCENTAGE",
      "outputs": [
        {
          "internalType": "uint256",
          "name": "",
          "type": "uint256"
        }
      ],
      "stateMutability": "view",
      "type": "function"
    },
    {
      "inputs": [
        {
          "internalType": "address",
          "name": "to",
          "type": "address"
        },
        {
          "internalType": "uint256",
          "name": "tokenId",
          "type": "uint256"
        }
      ],
      "name": "approve",
      "outputs": [],
      "stateMutability": "nonpayable",
      "type": "function"
    },
    {
      "inputs": [
        {
          "internalType": "address",
          "name": "owner",
          "type": "address"
        }
      ],
      "name": "balanceOf",
      "outputs": [
        {
          "internalType": "uint256",
          "name": "",
          "type": "uint256"
        }
      ],
      "stateMutability": "view",
      "type": "function"
    },
    {
      "inputs": [
        {
          "internalType": "uint256",
          "name": "tokenId",
          "type": "uint256"
        }
      ],
      "name": "buyNFT",
      "outputs": [],
      "stateMutability": "payable",
      "type": "function"
    },
    {
      "inputs": [
        {
          "internalType": "uint256",
          "name": "tokenId",
          "type": "uint256"
        }
      ],
      "name": "delistNFT",
      "outputs": [],
      "stateMutability": "nonpayable",
      "type": "function"
    },
    {
      "inputs": [
        {
          "internalType": "uint256",
          "name": "tokenId",
          "type": "uint256"
        }
      ],
      "name": "getApproved",
      "outputs": [
        {
          "internalType": "address",
          "name": "",
          "type": "address"
        }
      ],
      "stateMutability": "view",
      "type": "function"
    },
    {
      "inputs": [],
      "name": "getTokensForSale",
      "outputs": [
        {
          "internalType": "uint256[]",
          "name": "",
          "type": "uint256[]"
        }
      ],
      "stateMutability": "view",
      "type": "function"
    },
    {
      "inputs": [
        {
          "internalType": "address",
          "name": "owner",
          "type": "address"
        }
      ],
      "name": "getTokensForSaleByOwner",
      "outputs": [
        {
          "internalType": "uint256[]",
          "name": "",
          "type": "uint256[]"
        }
      ],
      "stateMutability": "view",
      "type": "function"
    },
    {
      "inputs": [
        {
          "internalType": "address",
          "name": "owner",
          "type": "address"
        },
        {
          "internalType": "address",
          "name": "operator",
          "type": "address"
        }
      ],
      "name": "isApprovedForAll",
      "outputs": [
        {
          "internalType": "bool",
          "name": "",
          "type": "bool"
        }
      ],
      "stateMutability": "view",
      "type": "function"
    },
    {
      "inputs": [
        {
          "internalType": "uint256",
          "name": "",
          "type": "uint256"
        }
      ],
      "name": "isListed",
      "outputs": [
        {
          "internalType": "bool",
          "name": "",
          "type": "bool"
        }
      ],
      "stateMutability": "view",
      "type": "function"
    },
    {
      "inputs": [
        {
          "internalType": "uint256",
          "name": "tokenId",
          "type": "uint256"
        },
        {
          "internalType": "uint256",
          "name": "price",
          "type": "uint256"
        }
      ],
      "name": "listNFT",
      "outputs": [],
      "stateMutability": "nonpayable",
      "type": "function"
    },
    {
      "inputs": [
        {
          "internalType": "address",
          "name": "recipient",
          "type": "address"
        },
        {
          "internalType": "string[]",
          "name": "tokenURIs",
          "type": "string[]"
        },
        {
          "internalType": "uint256[]",
          "name": "prices",
          "type": "uint256[]"
        }
      ],
      "name": "mintMultipleNFTs",
      "outputs": [],
      "stateMutability": "nonpayable",
      "type": "function"
    },
    {
      "inputs": [],
      "name": "name",
      "outputs": [
        {
          "internalType": "string",
          "name": "",
          "type": "string"
        }
      ],
      "stateMutability": "view",
      "type": "function"
    },
    {
      "inputs": [
        {
          "internalType": "uint256",
          "name": "",
          "type": "uint256"
        }
      ],
      "name": "originalCreators",
      "outputs": [
        {
          "internalType": "address",
          "name": "",
          "type": "address"
        }
      ],
      "stateMutability": "view",
      "type": "function"
    },
    {
      "inputs": [],
      "name": "owner",
      "outputs": [
        {
          "internalType": "address",
          "name": "",
          "type": "address"
        }
      ],
      "stateMutability": "view",
      "type": "function"
    },
    {
      "inputs": [
        {
          "internalType": "uint256",
          "name": "tokenId",
          "type": "uint256"
        }
      ],
      "name": "ownerOf",
      "outputs": [
        {
          "internalType": "address",
          "name": "",
          "type": "address"
        }
      ],
      "stateMutability": "view",
      "type": "function"
    },
    {
      "inputs": [],
      "name": "renounceOwnership",
      "outputs": [],
      "stateMutability": "nonpayable",
      "type": "function"
    },
    {
      "inputs": [
        {
          "internalType": "address",
          "name": "from",
          "type": "address"
        },
        {
          "internalType": "address",
          "name": "to",
          "type": "address"
        },
        {
          "internalType": "uint256",
          "name": "tokenId",
          "type": "uint256"
        }
      ],
      "name": "safeTransferFrom",
      "outputs": [],
      "stateMutability": "nonpayable",
      "type": "function"
    },
    {
      "inputs": [
        {
          "internalType": "address",
          "name": "from",
          "type": "address"
        },
        {
          "internalType": "address",
          "name": "to",
          "type": "address"
        },
        {
          "internalType": "uint256",
          "name": "tokenId",
          "type": "uint256"
        },
        {
          "internalType": "bytes",
          "name": "data",
          "type": "bytes"
        }
      ],
      "name": "safeTransferFrom",
      "outputs": [],
      "stateMutability": "nonpayable",
      "type": "function"
    },
    {
      "inputs": [
        {
          "internalType": "address",
          "name": "operator",
          "type": "address"
        },
        {
          "internalType": "bool",
          "name": "approved",
          "type": "bool"
        }
      ],
      "name": "setApprovalForAll",
      "outputs": [],
      "stateMutability": "nonpayable",
      "type": "function"
    },
    {
      "inputs": [
        {
          "internalType": "bytes4",
          "name": "interfaceId",
          "type": "bytes4"
        }
      ],
      "name": "supportsInterface",
      "outputs": [
        {
          "internalType": "bool",
          "name": "",
          "type": "bool"
        }
      ],
      "stateMutability": "view",
      "type": "function"
    },
    {
      "inputs": [],
      "name": "symbol",
      "outputs": [
        {
          "internalType": "string",
          "name": "",
          "type": "string"
        }
      ],
      "stateMutability": "view",
      "type": "function"
    },
    {
      "inputs": [
        {
          "internalType": "uint256",
          "name": "index",
          "type": "uint256"
        }
      ],
      "name": "tokenByIndex",
      "outputs": [
        {
          "internalType": "uint256",
          "name": "",
          "type": "uint256"
        }
      ],
      "stateMutability": "view",
      "type": "function"
    },
    {
      "inputs": [
        {
          "internalType": "address",
          "name": "owner",
          "type": "address"
        },
        {
          "internalType": "uint256",
          "name": "index",
          "type": "uint256"
        }
      ],
      "name": "tokenOfOwnerByIndex",
      "outputs": [
        {
          "internalType": "uint256",
          "name": "",
          "type": "uint256"
        }
      ],
      "stateMutability": "view",
      "type": "function"
    },
    {
      "inputs": [
        {
          "internalType": "uint256",
          "name": "",
          "type": "uint256"
        }
      ],
      "name": "tokenPrices",
      "outputs": [
        {
          "internalType": "uint256",
          "name": "",
          "type": "uint256"
        }
      ],
      "stateMutability": "view",
      "type": "function"
    },
    {
      "inputs": [
        {
          "internalType": "uint256",
          "name": "tokenId",
          "type": "uint256"
        }
      ],
      "name": "tokenURI",
      "outputs": [
        {
          "internalType": "string",
          "name": "",
          "type": "string"
        }
      ],
      "stateMutability": "view",
      "type": "function"
    },
    {
      "inputs": [],
      "name": "totalSupply",
      "outputs": [
        {
          "internalType": "uint256",
          "name": "",
          "type": "uint256"
        }
      ],
      "stateMutability": "view",
      "type": "function"
    },
    {
      "inputs": [
        {
          "internalType": "address",
          "name": "from",
          "type": "address"
        },
        {
          "internalType": "address",
          "name": "to",
          "type": "address"
        },
        {
          "internalType": "uint256",
          "name": "tokenId",
          "type": "uint256"
        }
      ],
      "name": "transferFrom",
      "outputs": [],
      "stateMutability": "nonpayable",
      "type": "function"
    },
    {
      "inputs": [
        {
          "internalType": "address",
          "name": "newOwner",
          "type": "address"
        }
      ],
      "name": "transferOwnership",
      "outputs": [],
      "stateMutability": "nonpayable",
      "type": "function"
    }
  ],
  "bytecode": "0x60806040523480156200001157600080fd5b5060405180604001604052806005815260200164135e53919560da1b815250604051806040016040528060048152602001631353919560e21b81525081600090816200005e91906200018d565b5060016200006d82826200018d565b5050506200008a620000846200009060201b60201c565b62000094565b62000259565b3390565b600b80546001600160a01b038381166001600160a01b0319831681179093556040519116919082907f8be0079c531659141344cd1fd0a4f28419497f9722a3daafe3b4186f6b6457e090600090a35050565b634e487b7160e01b600052604160045260246000fd5b600181811c908216806200011157607f821691505b6020821081036200013257634e487b7160e01b600052602260045260246000fd5b50919050565b601f82111562000188576000816000526020600020601f850160051c81016020861015620001635750805b601f850160051c820191505b8181101562000184578281556001016200016f565b5050505b505050565b81516001600160401b03811115620001a957620001a9620000e6565b620001c181620001ba8454620000fc565b8462000138565b602080601f831160018114620001f95760008415620001e05750858301515b600019600386901b1c1916600185901b17855562000184565b600085815260208120601f198616915b828110156200022a5788860151825594840194600190910190840162000209565b5085821015620002495787850151600019600388901b60f8161c191681555b5050505050600190811b01905550565b612b3580620002696000396000f3fe6080604052600436106101c25760003560e01c806370a08231116100f7578063a22cb46511610095578063e5afe3e611610064578063e5afe3e614610503578063e985e9c514610530578063f2fde38b14610579578063fcce48831461059957600080fd5b8063a22cb46514610483578063b88d4fde146104a3578063c87b56dd146104c3578063cb917b9c146104e357600080fd5b80638b305930116100d15780638b305930146103fa5780638da5cb5b1461043057806394383f141461044e57806395d89b411461046e57600080fd5b806370a08231146103a5578063715018a6146103c55780637570cfd4146103da57600080fd5b806342842e0e1161016457806351ed82881161013e57806351ed828814610330578063573a31a6146103435780636352211e1461036357806365e4e1c01461038357600080fd5b806342842e0e146102db578063463b08db146102fb5780634f6ccce71461031057600080fd5b8063095ea7b3116101a0578063095ea7b31461025657806318160ddd1461027857806323b872dd1461029b5780632f745c59146102bb57600080fd5b806301ffc9a7146101c757806306fdde03146101fc578063081812fc1461021e575b600080fd5b3480156101d357600080fd5b506101e76101e23660046122cb565b6105c9565b60405190151581526020015b60405180910390f35b34801561020857600080fd5b506102116105da565b6040516101f39190612338565b34801561022a57600080fd5b5061023e61023936600461234b565b61066c565b6040516001600160a01b0390911681526020016101f3565b34801561026257600080fd5b50610276610271366004612380565b610693565b005b34801561028457600080fd5b5061028d6107ad565b6040519081526020016101f3565b3480156102a757600080fd5b506102766102b63660046123aa565b6107bd565b3480156102c757600080fd5b5061028d6102d6366004612380565b6107ee565b3480156102e757600080fd5b506102766102f63660046123aa565b610801565b34801561030757600080fd5b5061028d600581565b34801561031c57600080fd5b5061028d61032b36600461234b565b61081c565b61027661033e36600461234b565b6108af565b34801561034f57600080fd5b5061027661035e366004612518565b610ac5565b34801561036f57600080fd5b5061023e61037e36600461234b565b610ca7565b34801561038f57600080fd5b50610398610d07565b6040516101f39190612613565b3480156103b157600080fd5b5061028d6103c0366004612657565b610dfc565b3480156103d157600080fd5b50610276610e82565b3480156103e657600080fd5b506103986103f5366004612657565b610e96565b34801561040657600080fd5b5061023e61041536600461234b565b600f602052600090815260409020546001600160a01b031681565b34801561043c57600080fd5b50600b546001600160a01b031661023e565b34801561045a57600080fd5b50610276610469366004612672565b611008565b34801561047a57600080fd5b5061021161121e565b34801561048f57600080fd5b5061027661049e366004612694565b61122d565b3480156104af57600080fd5b506102766104be3660046126d0565b61123c565b3480156104cf57600080fd5b506102116104de36600461234b565b61126e565b3480156104ef57600080fd5b506102766104fe36600461234b565b611279565b34801561050f57600080fd5b5061028d61051e36600461234b565b600d6020526000908152604090205481565b34801561053c57600080fd5b506101e761054b36600461274c565b6001600160a01b03918216600090815260056020908152604080832093909416825291909152205460ff1690565b34801561058557600080fd5b50610276610594366004612657565b611382565b3480156105a557600080fd5b506101e76105b436600461234b565b600e6020526000908152604090205460ff1681565b60006105d4826113fb565b92915050565b6060600080546105e99061277f565b80601f01602080910402602001604051908101604052809291908181526020018280546106159061277f565b80156106625780601f1061063757610100808354040283529160200191610662565b820191906000526020600020905b81548152906001019060200180831161064557829003601f168201915b5050505050905090565b600061067782611420565b506000908152600460205260409020546001600160a01b031690565b600061069e82610ca7565b9050806001600160a01b0316836001600160a01b0316036107105760405162461bcd60e51b815260206004820152602160248201527f4552433732313a20617070726f76616c20746f2063757272656e74206f776e656044820152603960f91b60648201526084015b60405180910390fd5b336001600160a01b038216148061072c575061072c813361054b565b61079e5760405162461bcd60e51b815260206004820152603d60248201527f4552433732313a20617070726f76652063616c6c6572206973206e6f7420746f60448201527f6b656e206f776e6572206f7220617070726f76656420666f7220616c6c0000006064820152608401610707565b6107a88383611470565b505050565b60006107b860095490565b905090565b6107c733826114de565b6107e35760405162461bcd60e51b8152600401610707906127b9565b6107a883838361155d565b60006107fa83836116ce565b9392505050565b6107a88383836040518060200160405280600081525061123c565b600061082760095490565b821061088a5760405162461bcd60e51b815260206004820152602c60248201527f455243373231456e756d657261626c653a20676c6f62616c20696e646578206f60448201526b7574206f6620626f756e647360a01b6064820152608401610707565b6009828154811061089d5761089d612806565b90600052602060002001549050919050565b6000818152600d60205260409020546108c782611764565b61090a5760405162461bcd60e51b8152602060048201526014602482015273151bdad95b88191bd95cc81b9bdd08195e1a5cdd60621b6044820152606401610707565b6000811161095a5760405162461bcd60e51b815260206004820152601a60248201527f5468697320746f6b656e206973206e6f7420666f722073616c650000000000006044820152606401610707565b803410156109a25760405162461bcd60e51b8152602060048201526015602482015274139bdd08195b9bdd59da08195d1a195c881cd95b9d605a1b6044820152606401610707565b60006109ad83610ca7565b6000848152600f60205260408120549192506001600160a01b03909116906109e160646109db866005611781565b9061178d565b6040519091506001600160a01b0383169082156108fc029083906000818181858888f19350505050158015610a1a573d6000803e3d6000fd5b506001600160a01b0383166108fc610a323484611799565b6040518115909202916000818181858888f19350505050158015610a5a573d6000803e3d6000fd5b50610a6683338761155d565b6000858152600d60209081526040808320839055600e825291829020805460ff191690559051858152339187917f26701af1547d690b8c46ed5f0fbb8d5b115492b3b898f3dfc2e87b26cfcc1b14910160405180910390a35050505050565b8051825114610b165760405162461bcd60e51b815260206004820152601f60248201527f5552497320616e6420707269636573206c656e677468206d69736d61746368006044820152606401610707565b600a82511115610b765760405162461bcd60e51b815260206004820152602560248201527f43616e206f6e6c79206d696e7420757020746f203130204e46547320617420616044820152642074696d6560d81b6064820152608401610707565b60005b8251811015610ca157600c8054906000610b9283612832565b9091555050600c54610ba485826117a5565b610bc781858481518110610bba57610bba612806565b6020026020010151611920565b828281518110610bd957610bd9612806565b6020908102919091018101516000838152600d8352604080822092909255600f835281812080546001600160a01b0319166001600160a01b038a16908117909155600e90935220805460ff19169055845182907f23eae53a2b33c20fc1b74912840a6a2a72adc26effa68729f81e756c875df28990879086908110610c6057610c60612806565b6020026020010151868681518110610c7a57610c7a612806565b6020026020010151604051610c9092919061284b565b60405180910390a350600101610b79565b50505050565b6000818152600260205260408120546001600160a01b0316806105d45760405162461bcd60e51b8152602060048201526018602482015277115490cdcc8c4e881a5b9d985b1a59081d1bdad95b88125160421b6044820152606401610707565b6060600060015b600c548111610d4b576000818152600d602052604090205415610d395781610d3581612832565b9250505b80610d4381612832565b915050610d0e565b5060008167ffffffffffffffff811115610d6757610d676123e6565b604051908082528060200260200182016040528015610d90578160200160208202803683370190505b509050600060015b600c548111610df3576000818152600d602052604090205415610de15780838381518110610dc857610dc8612806565b602090810291909101015281610ddd81612832565b9250505b80610deb81612832565b915050610d98565b50909392505050565b60006001600160a01b038216610e665760405162461bcd60e51b815260206004820152602960248201527f4552433732313a2061646472657373207a65726f206973206e6f7420612076616044820152683634b21037bbb732b960b91b6064820152608401610707565b506001600160a01b031660009081526003602052604090205490565b610e8a6119dc565b610e946000611a36565b565b60606000610ea383610dfc565b905060008167ffffffffffffffff811115610ec057610ec06123e6565b604051908082528060200260200182016040528015610ee9578160200160208202803683370190505b5090506000805b83811015610f6c576000610f0487836107ee565b6000818152600d602052604090205490915015801590610f3257506000818152600e602052604090205460ff165b15610f635780848481518110610f4a57610f4a612806565b602090810291909101015282610f5f81612832565b9350505b50600101610ef0565b5060008167ffffffffffffffff811115610f8857610f886123e6565b604051908082528060200260200182016040528015610fb1578160200160208202803683370190505b50905060005b82811015610ffe57838181518110610fd157610fd1612806565b6020026020010151828281518110610feb57610feb612806565b6020908102919091010152600101610fb7565b5095945050505050565b3361101283610ca7565b6001600160a01b0316146110685760405162461bcd60e51b815260206004820152601f60248201527f4f6e6c7920746865206f776e65722063616e206c69737420746865204e4654006044820152606401610707565b61107182611764565b6110b45760405162461bcd60e51b8152602060048201526014602482015273151bdad95b88191bd95cc81b9bdd08195e1a5cdd60621b6044820152606401610707565b600081116111045760405162461bcd60e51b815260206004820152601f60248201527f5072696365206d7573742062652067726561746572207468616e207a65726f006044820152606401610707565b6000828152600e602052604090205460ff16156111585760405162461bcd60e51b815260206004820152601260248201527113919508185b1c9958591e481b1a5cdd195960721b6044820152606401610707565b6000828152600d60208181526040808420858155600e83529320805460ff19166001179055525481146111e05760405162461bcd60e51b815260206004820152602a60248201527f596f75206d757374206c69737420746865204e465420617420746865206d696e60448201526974696e6720707269636560b01b6064820152608401610707565b817fa6cd73580a273eec6c1026108f6b63479fbaef5356dde4ff43e4b38dd187485f8260405161121291815260200190565b60405180910390a25050565b6060600180546105e99061277f565b611238338383611a88565b5050565b61124633836114de565b6112625760405162461bcd60e51b8152600401610707906127b9565b610ca184848484611b56565b60606105d482611b89565b3361128382610ca7565b6001600160a01b0316146112e35760405162461bcd60e51b815260206004820152602160248201527f4f6e6c7920746865206f776e65722063616e2064656c69737420746865204e466044820152601560fa1b6064820152608401610707565b6000818152600e602052604090205460ff166113355760405162461bcd60e51b8152602060048201526011602482015270139195081a5cc81b9bdd081b1a5cdd1959607a1b6044820152606401610707565b6000818152600e60209081526040808320805460ff19169055600d9091528082208290555182917fc0c55a6edead4433d18cb1e287a0a20a2fa003a6f483bc9823d2e504d70d1c6791a250565b61138a6119dc565b6001600160a01b0381166113ef5760405162461bcd60e51b815260206004820152602660248201527f4f776e61626c653a206e6577206f776e657220697320746865207a65726f206160448201526564647265737360d01b6064820152608401610707565b6113f881611a36565b50565b60006001600160e01b0319821663780e9d6360e01b14806105d457506105d482611c91565b61142981611764565b6113f85760405162461bcd60e51b8152602060048201526018602482015277115490cdcc8c4e881a5b9d985b1a59081d1bdad95b88125160421b6044820152606401610707565b600081815260046020526040902080546001600160a01b0319166001600160a01b03841690811790915581906114a582610ca7565b6001600160a01b03167f8c5be1e5ebec7d5bd14f71427d1e84f3dd0314c0f7b2291e5b200ac8c7c3b92560405160405180910390a45050565b6000806114ea83610ca7565b9050806001600160a01b0316846001600160a01b0316148061153157506001600160a01b0380821660009081526005602090815260408083209388168352929052205460ff165b806115555750836001600160a01b031661154a8461066c565b6001600160a01b0316145b949350505050565b826001600160a01b031661157082610ca7565b6001600160a01b0316146115965760405162461bcd60e51b81526004016107079061286d565b6001600160a01b0382166115f85760405162461bcd60e51b8152602060048201526024808201527f4552433732313a207472616e7366657220746f20746865207a65726f206164646044820152637265737360e01b6064820152608401610707565b6116058383836001611cb6565b826001600160a01b031661161882610ca7565b6001600160a01b03161461163e5760405162461bcd60e51b81526004016107079061286d565b600081815260046020908152604080832080546001600160a01b03199081169091556001600160a01b0387811680865260038552838620805460001901905590871680865283862080546001019055868652600290945282852080549092168417909155905184937fddf252ad1be2c89b69c2b068fc378daa952ba7f163c4a11628f55a4df523b3ef91a4505050565b60006116d983610dfc565b821061173b5760405162461bcd60e51b815260206004820152602b60248201527f455243373231456e756d657261626c653a206f776e657220696e646578206f7560448201526a74206f6620626f756e647360a81b6064820152608401610707565b506001600160a01b03919091166000908152600760209081526040808320938352929052205490565b6000908152600260205260409020546001600160a01b0316151590565b60006107fa82846128b2565b60006107fa82846128c9565b60006107fa82846128eb565b6001600160a01b0382166117fb5760405162461bcd60e51b815260206004820181905260248201527f4552433732313a206d696e7420746f20746865207a65726f20616464726573736044820152606401610707565b61180481611764565b156118515760405162461bcd60e51b815260206004820152601c60248201527f4552433732313a20746f6b656e20616c7265616479206d696e746564000000006044820152606401610707565b61185f600083836001611cb6565b61186881611764565b156118b55760405162461bcd60e51b815260206004820152601c60248201527f4552433732313a20746f6b656e20616c7265616479206d696e746564000000006044820152606401610707565b6001600160a01b038216600081815260036020908152604080832080546001019055848352600290915280822080546001600160a01b0319168417905551839291907fddf252ad1be2c89b69c2b068fc378daa952ba7f163c4a11628f55a4df523b3ef908290a45050565b61192982611764565b61198c5760405162461bcd60e51b815260206004820152602e60248201527f45524337323155524953746f726167653a2055524920736574206f66206e6f6e60448201526d32bc34b9ba32b73a103a37b5b2b760911b6064820152608401610707565b60008281526006602052604090206119a4828261294e565b506040518281527ff8e1a15aba9398e019f0b49df1a4fde98ee17ae345cb5f6b5e2c27f5033e8ce79060200160405180910390a15050565b600b546001600160a01b03163314610e945760405162461bcd60e51b815260206004820181905260248201527f4f776e61626c653a2063616c6c6572206973206e6f7420746865206f776e65726044820152606401610707565b600b80546001600160a01b038381166001600160a01b0319831681179093556040519116919082907f8be0079c531659141344cd1fd0a4f28419497f9722a3daafe3b4186f6b6457e090600090a35050565b816001600160a01b0316836001600160a01b031603611ae95760405162461bcd60e51b815260206004820152601960248201527f4552433732313a20617070726f766520746f2063616c6c6572000000000000006044820152606401610707565b6001600160a01b03838116600081815260056020908152604080832094871680845294825291829020805460ff191686151590811790915591519182527f17307eab39ab6107e8899845ad3d59bd9653f200f220920489ca2b5937696c31910160405180910390a3505050565b611b6184848461155d565b611b6d84848484611cc2565b610ca15760405162461bcd60e51b815260040161070790612a0e565b6060611b9482611420565b60008281526006602052604081208054611bad9061277f565b80601f0160208091040260200160405190810160405280929190818152602001828054611bd99061277f565b8015611c265780601f10611bfb57610100808354040283529160200191611c26565b820191906000526020600020905b815481529060010190602001808311611c0957829003601f168201915b505050505090506000611c4460408051602081019091526000815290565b90508051600003611c56575092915050565b815115611c88578082604051602001611c70929190612a60565b60405160208183030381529060405292505050919050565b61155584611dc3565b60006001600160e01b03198216632483248360e11b14806105d457506105d482611e36565b610ca184848484611e86565b60006001600160a01b0384163b15611db857604051630a85bd0160e11b81526001600160a01b0385169063150b7a0290611d06903390899088908890600401612a8f565b6020604051808303816000875af1925050508015611d41575060408051601f3d908101601f19168201909252611d3e91810190612acc565b60015b611d9e573d808015611d6f576040519150601f19603f3d011682016040523d82523d6000602084013e611d74565b606091505b508051600003611d965760405162461bcd60e51b815260040161070790612a0e565b805181602001fd5b6001600160e01b031916630a85bd0160e11b149050611555565b506001949350505050565b6060611dce82611420565b6000611de560408051602081019091526000815290565b90506000815111611e0557604051806020016040528060008152506107fa565b80611e0f84611fba565b604051602001611e20929190612a60565b6040516020818303038152906040529392505050565b60006001600160e01b031982166380ac58cd60e01b1480611e6757506001600160e01b03198216635b5e139f60e01b145b806105d457506301ffc9a760e01b6001600160e01b03198316146105d4565b6001811115611ef55760405162461bcd60e51b815260206004820152603560248201527f455243373231456e756d657261626c653a20636f6e7365637574697665207472604482015274185b9cd9995c9cc81b9bdd081cdd5c1c1bdc9d1959605a1b6064820152608401610707565b816001600160a01b038516611f5157611f4c81600980546000838152600a60205260408120829055600182018355919091527f6e1540171b6c0c960b71a7020d9f60077f6af931a8bbf590da0223dacf75c7af0155565b611f74565b836001600160a01b0316856001600160a01b031614611f7457611f74858261204d565b6001600160a01b038416611f9057611f8b816120ea565b611fb3565b846001600160a01b0316846001600160a01b031614611fb357611fb38482612199565b5050505050565b60606000611fc7836121dd565b600101905060008167ffffffffffffffff811115611fe757611fe76123e6565b6040519080825280601f01601f191660200182016040528015612011576020820181803683370190505b5090508181016020015b600019016f181899199a1a9b1b9c1cb0b131b232b360811b600a86061a8153600a850494508461201b57509392505050565b6000600161205a84610dfc565b61206491906128eb565b6000838152600860205260409020549091508082146120b7576001600160a01b03841660009081526007602090815260408083208584528252808320548484528184208190558352600890915290208190555b5060009182526008602090815260408084208490556001600160a01b039094168352600781528383209183525290812055565b6009546000906120fc906001906128eb565b6000838152600a60205260408120546009805493945090928490811061212457612124612806565b90600052602060002001549050806009838154811061214557612145612806565b6000918252602080832090910192909255828152600a9091526040808220849055858252812055600980548061217d5761217d612ae9565b6001900381819060005260206000200160009055905550505050565b60006121a483610dfc565b6001600160a01b039093166000908152600760209081526040808320868452825280832085905593825260089052919091209190915550565b60008072184f03e93ff9f4daa797ed6e38ed64bf6a1f0160401b831061221c5772184f03e93ff9f4daa797ed6e38ed64bf6a1f0160401b830492506040015b6d04ee2d6d415b85acef81000000008310612248576d04ee2d6d415b85acef8100000000830492506020015b662386f26fc10000831061226657662386f26fc10000830492506010015b6305f5e100831061227e576305f5e100830492506008015b612710831061229257612710830492506004015b606483106122a4576064830492506002015b600a83106105d45760010192915050565b6001600160e01b0319811681146113f857600080fd5b6000602082840312156122dd57600080fd5b81356107fa816122b5565b60005b838110156123035781810151838201526020016122eb565b50506000910152565b600081518084526123248160208601602086016122e8565b601f01601f19169290920160200192915050565b6020815260006107fa602083018461230c565b60006020828403121561235d57600080fd5b5035919050565b80356001600160a01b038116811461237b57600080fd5b919050565b6000806040838503121561239357600080fd5b61239c83612364565b946020939093013593505050565b6000806000606084860312156123bf57600080fd5b6123c884612364565b92506123d660208501612364565b9150604084013590509250925092565b634e487b7160e01b600052604160045260246000fd5b604051601f8201601f1916810167ffffffffffffffff81118282101715612425576124256123e6565b604052919050565b600067ffffffffffffffff821115612447576124476123e6565b5060051b60200190565b600067ffffffffffffffff83111561246b5761246b6123e6565b61247e601f8401601f19166020016123fc565b905082815283838301111561249257600080fd5b828260208301376000602084830101529392505050565b600082601f8301126124ba57600080fd5b813560206124cf6124ca8361242d565b6123fc565b8083825260208201915060208460051b8701019350868411156124f157600080fd5b602086015b8481101561250d57803583529183019183016124f6565b509695505050505050565b60008060006060848603121561252d57600080fd5b61253684612364565b925060208085013567ffffffffffffffff8082111561255457600080fd5b818701915087601f83011261256857600080fd5b81356125766124ca8261242d565b81815260059190911b8301840190848101908a83111561259557600080fd5b8585015b838110156125e2578035858111156125b15760008081fd5b8601603f81018d136125c35760008081fd5b6125d48d8983013560408401612451565b845250918601918601612599565b509650505060408701359250808311156125fb57600080fd5b5050612609868287016124a9565b9150509250925092565b6020808252825182820181905260009190848201906040850190845b8181101561264b5783518352928401929184019160010161262f565b50909695505050505050565b60006020828403121561266957600080fd5b6107fa82612364565b6000806040838503121561268557600080fd5b50508035926020909101359150565b600080604083850312156126a757600080fd5b6126b083612364565b9150602083013580151581146126c557600080fd5b809150509250929050565b600080600080608085870312156126e657600080fd5b6126ef85612364565b93506126fd60208601612364565b925060408501359150606085013567ffffffffffffffff81111561272057600080fd5b8501601f8101871361273157600080fd5b61274087823560208401612451565b91505092959194509250565b6000806040838503121561275f57600080fd5b61276883612364565b915061277660208401612364565b90509250929050565b600181811c9082168061279357607f821691505b6020821081036127b357634e487b7160e01b600052602260045260246000fd5b50919050565b6020808252602d908201527f4552433732313a2063616c6c6572206973206e6f7420746f6b656e206f776e6560408201526c1c881bdc88185c1c1c9bdd9959609a1b606082015260800190565b634e487b7160e01b600052603260045260246000fd5b634e487b7160e01b600052601160045260246000fd5b6000600182016128445761284461281c565b5060010190565b60408152600061285e604083018561230c565b90508260208301529392505050565b60208082526025908201527f4552433732313a207472616e736665722066726f6d20696e636f72726563742060408201526437bbb732b960d91b606082015260800190565b80820281158282048414176105d4576105d461281c565b6000826128e657634e487b7160e01b600052601260045260246000fd5b500490565b818103818111156105d4576105d461281c565b601f8211156107a8576000816000526020600020601f850160051c810160208610156129275750805b601f850160051c820191505b8181101561294657828155600101612933565b505050505050565b815167ffffffffffffffff811115612968576129686123e6565b61297c81612976845461277f565b846128fe565b602080601f8311600181146129b157600084156129995750858301515b600019600386901b1c1916600185901b178555612946565b600085815260208120601f198616915b828110156129e0578886015182559484019460019091019084016129c1565b50858210156129fe5787850151600019600388901b60f8161c191681555b5050505050600190811b01905550565b60208082526032908201527f4552433732313a207472616e7366657220746f206e6f6e20455243373231526560408201527131b2b4bb32b91034b6b83632b6b2b73a32b960711b606082015260800190565b60008351612a728184602088016122e8565b835190830190612a868183602088016122e8565b01949350505050565b6001600160a01b0385811682528416602082015260408101839052608060608201819052600090612ac29083018461230c565b9695505050505050565b600060208284031215612ade57600080fd5b81516107fa816122b5565b634e487b7160e01b600052603160045260246000fdfea2646970667358221220b69b2eb4676f090024a59b36e8e067a06a98f724fd35bfbeb2340387ba2340e564736f6c63430008180033",
  "linkReferences": {},
  "deployedLinkReferences": {}
}