{
  "_format": "hh-sol-artifact-1",
  "contractName": "MyNFT",
  "sourceName": "contracts/nfts.sol",
  "abi": [
    {
      "inputs": [],
      "stateMutability": "nonpayable",
      "type": "constructor"
    },
    {
      "anonymous": false,
      "inputs": [
        {
          "indexed": true,
          "internalType": "address",
          "name": "owner",
          "type": "address"
        },
        {
          "indexed": true,
          "internalType": "address",
          "name": "approved",
          "type": "address"
        },
        {
          "indexed": true,
          "internalType": "uint256",
          "name": "tokenId",
          "type": "uint256"
        }
      ],
      "name": "Approval",
      "type": "event"
    },
    {
      "anonymous": false,
      "inputs": [
        {
          "indexed": true,
          "internalType": "address",
          "name": "owner",
          "type": "address"
        },
        {
          "indexed": true,
          "internalType": "address",
          "name": "operator",
          "type": "address"
        },
        {
          "indexed": false,
          "internalType": "bool",
          "name": "approved",
          "type": "bool"
        }
      ],
      "name": "ApprovalForAll",
      "type": "event"
    },
    {
      "anonymous": false,
      "inputs": [
        {
          "indexed": false,
          "internalType": "uint256",
          "name": "_fromTokenId",
          "type": "uint256"
        },
        {
          "indexed": false,
          "internalType": "uint256",
          "name": "_toTokenId",
          "type": "uint256"
        }
      ],
      "name": "BatchMetadataUpdate",
      "type": "event"
    },
    {
      "anonymous": false,
      "inputs": [
        {
          "indexed": false,
          "internalType": "uint256",
          "name": "_tokenId",
          "type": "uint256"
        }
      ],
      "name": "MetadataUpdate",
      "type": "event"
    },
    {
      "anonymous": false,
      "inputs": [
        {
          "indexed": true,
          "internalType": "uint256",
          "name": "tokenId",
          "type": "uint256"
        },
        {
          "indexed": true,
          "internalType": "address",
          "name": "newOwner",
          "type": "address"
        },
        {
          "indexed": false,
          "internalType": "uint256",
          "name": "price",
          "type": "uint256"
        }
      ],
      "name": "NFTBought",
      "type": "event"
    },
    {
      "anonymous": false,
      "inputs": [
        {
          "indexed": true,
          "internalType": "uint256",
          "name": "tokenId",
          "type": "uint256"
        },
        {
          "indexed": false,
          "internalType": "uint256",
          "name": "price",
          "type": "uint256"
        }
      ],
      "name": "NFTListed",
      "type": "event"
    },
    {
      "anonymous": false,
      "inputs": [
        {
          "indexed": true,
          "internalType": "uint256",
          "name": "tokenId",
          "type": "uint256"
        },
        {
          "indexed": true,
          "internalType": "address",
          "name": "recipient",
          "type": "address"
        },
        {
          "indexed": false,
          "internalType": "string",
          "name": "tokenURI",
          "type": "string"
        },
        {
          "indexed": false,
          "internalType": "uint256",
          "name": "price",
          "type": "uint256"
        }
      ],
      "name": "NFTMinted",
      "type": "event"
    },
    {
      "anonymous": false,
      "inputs": [
        {
          "indexed": true,
          "internalType": "address",
          "name": "previousOwner",
          "type": "address"
        },
        {
          "indexed": true,
          "internalType": "address",
          "name": "newOwner",
          "type": "address"
        }
      ],
      "name": "OwnershipTransferred",
      "type": "event"
    },
    {
      "anonymous": false,
      "inputs": [
        {
          "indexed": true,
          "internalType": "address",
          "name": "from",
          "type": "address"
        },
        {
          "indexed": true,
          "internalType": "address",
          "name": "to",
          "type": "address"
        },
        {
          "indexed": true,
          "internalType": "uint256",
          "name": "tokenId",
          "type": "uint256"
        }
      ],
      "name": "Transfer",
      "type": "event"
    },
    {
      "inputs": [],
      "name": "ROYALTY_PERCENTAGE",
      "outputs": [
        {
          "internalType": "uint256",
          "name": "",
          "type": "uint256"
        }
      ],
      "stateMutability": "view",
      "type": "function"
    },
    {
      "inputs": [
        {
          "internalType": "address",
          "name": "to",
          "type": "address"
        },
        {
          "internalType": "uint256",
          "name": "tokenId",
          "type": "uint256"
        }
      ],
      "name": "approve",
      "outputs": [],
      "stateMutability": "nonpayable",
      "type": "function"
    },
    {
      "inputs": [
        {
          "internalType": "address",
          "name": "owner",
          "type": "address"
        }
      ],
      "name": "balanceOf",
      "outputs": [
        {
          "internalType": "uint256",
          "name": "",
          "type": "uint256"
        }
      ],
      "stateMutability": "view",
      "type": "function"
    },
    {
      "inputs": [
        {
          "internalType": "uint256",
          "name": "tokenId",
          "type": "uint256"
        }
      ],
      "name": "buyNFT",
      "outputs": [],
      "stateMutability": "payable",
      "type": "function"
    },
    {
      "inputs": [
        {
          "internalType": "uint256",
          "name": "tokenId",
          "type": "uint256"
        }
      ],
      "name": "getApproved",
      "outputs": [
        {
          "internalType": "address",
          "name": "",
          "type": "address"
        }
      ],
      "stateMutability": "view",
      "type": "function"
    },
    {
      "inputs": [],
      "name": "getTokensForSale",
      "outputs": [
        {
          "internalType": "uint256[]",
          "name": "",
          "type": "uint256[]"
        }
      ],
      "stateMutability": "view",
      "type": "function"
    },
    {
      "inputs": [
        {
          "internalType": "address",
          "name": "owner",
          "type": "address"
        }
      ],
      "name": "getTokensForSaleByOwner",
      "outputs": [
        {
          "internalType": "uint256[]",
          "name": "",
          "type": "uint256[]"
        }
      ],
      "stateMutability": "view",
      "type": "function"
    },
    {
      "inputs": [
        {
          "internalType": "address",
          "name": "owner",
          "type": "address"
        },
        {
          "internalType": "address",
          "name": "operator",
          "type": "address"
        }
      ],
      "name": "isApprovedForAll",
      "outputs": [
        {
          "internalType": "bool",
          "name": "",
          "type": "bool"
        }
      ],
      "stateMutability": "view",
      "type": "function"
    },
    {
      "inputs": [
        {
          "internalType": "uint256",
          "name": "",
          "type": "uint256"
        }
      ],
      "name": "isListed",
      "outputs": [
        {
          "internalType": "bool",
          "name": "",
          "type": "bool"
        }
      ],
      "stateMutability": "view",
      "type": "function"
    },
    {
      "inputs": [
        {
          "internalType": "uint256",
          "name": "tokenId",
          "type": "uint256"
        },
        {
          "internalType": "uint256",
          "name": "price",
          "type": "uint256"
        }
      ],
      "name": "listNFT",
      "outputs": [],
      "stateMutability": "nonpayable",
      "type": "function"
    },
    {
      "inputs": [
        {
          "internalType": "address",
          "name": "recipient",
          "type": "address"
        },
        {
          "internalType": "string[]",
          "name": "tokenURIs",
          "type": "string[]"
        },
        {
          "internalType": "uint256[]",
          "name": "prices",
          "type": "uint256[]"
        }
      ],
      "name": "mintMultipleNFTs",
      "outputs": [],
      "stateMutability": "nonpayable",
      "type": "function"
    },
    {
      "inputs": [],
      "name": "name",
      "outputs": [
        {
          "internalType": "string",
          "name": "",
          "type": "string"
        }
      ],
      "stateMutability": "view",
      "type": "function"
    },
    {
      "inputs": [
        {
          "internalType": "uint256",
          "name": "",
          "type": "uint256"
        }
      ],
      "name": "originalCreators",
      "outputs": [
        {
          "internalType": "address",
          "name": "",
          "type": "address"
        }
      ],
      "stateMutability": "view",
      "type": "function"
    },
    {
      "inputs": [],
      "name": "owner",
      "outputs": [
        {
          "internalType": "address",
          "name": "",
          "type": "address"
        }
      ],
      "stateMutability": "view",
      "type": "function"
    },
    {
      "inputs": [
        {
          "internalType": "uint256",
          "name": "tokenId",
          "type": "uint256"
        }
      ],
      "name": "ownerOf",
      "outputs": [
        {
          "internalType": "address",
          "name": "",
          "type": "address"
        }
      ],
      "stateMutability": "view",
      "type": "function"
    },
    {
      "inputs": [],
      "name": "renounceOwnership",
      "outputs": [],
      "stateMutability": "nonpayable",
      "type": "function"
    },
    {
      "inputs": [
        {
          "internalType": "address",
          "name": "from",
          "type": "address"
        },
        {
          "internalType": "address",
          "name": "to",
          "type": "address"
        },
        {
          "internalType": "uint256",
          "name": "tokenId",
          "type": "uint256"
        }
      ],
      "name": "safeTransferFrom",
      "outputs": [],
      "stateMutability": "nonpayable",
      "type": "function"
    },
    {
      "inputs": [
        {
          "internalType": "address",
          "name": "from",
          "type": "address"
        },
        {
          "internalType": "address",
          "name": "to",
          "type": "address"
        },
        {
          "internalType": "uint256",
          "name": "tokenId",
          "type": "uint256"
        },
        {
          "internalType": "bytes",
          "name": "data",
          "type": "bytes"
        }
      ],
      "name": "safeTransferFrom",
      "outputs": [],
      "stateMutability": "nonpayable",
      "type": "function"
    },
    {
      "inputs": [
        {
          "internalType": "address",
          "name": "operator",
          "type": "address"
        },
        {
          "internalType": "bool",
          "name": "approved",
          "type": "bool"
        }
      ],
      "name": "setApprovalForAll",
      "outputs": [],
      "stateMutability": "nonpayable",
      "type": "function"
    },
    {
      "inputs": [
        {
          "internalType": "bytes4",
          "name": "interfaceId",
          "type": "bytes4"
        }
      ],
      "name": "supportsInterface",
      "outputs": [
        {
          "internalType": "bool",
          "name": "",
          "type": "bool"
        }
      ],
      "stateMutability": "view",
      "type": "function"
    },
    {
      "inputs": [],
      "name": "symbol",
      "outputs": [
        {
          "internalType": "string",
          "name": "",
          "type": "string"
        }
      ],
      "stateMutability": "view",
      "type": "function"
    },
    {
      "inputs": [
        {
          "internalType": "uint256",
          "name": "index",
          "type": "uint256"
        }
      ],
      "name": "tokenByIndex",
      "outputs": [
        {
          "internalType": "uint256",
          "name": "",
          "type": "uint256"
        }
      ],
      "stateMutability": "view",
      "type": "function"
    },
    {
      "inputs": [
        {
          "internalType": "address",
          "name": "owner",
          "type": "address"
        },
        {
          "internalType": "uint256",
          "name": "index",
          "type": "uint256"
        }
      ],
      "name": "tokenOfOwnerByIndex",
      "outputs": [
        {
          "internalType": "uint256",
          "name": "",
          "type": "uint256"
        }
      ],
      "stateMutability": "view",
      "type": "function"
    },
    {
      "inputs": [
        {
          "internalType": "uint256",
          "name": "",
          "type": "uint256"
        }
      ],
      "name": "tokenPrices",
      "outputs": [
        {
          "internalType": "uint256",
          "name": "",
          "type": "uint256"
        }
      ],
      "stateMutability": "view",
      "type": "function"
    },
    {
      "inputs": [
        {
          "internalType": "uint256",
          "name": "tokenId",
          "type": "uint256"
        }
      ],
      "name": "tokenURI",
      "outputs": [
        {
          "internalType": "string",
          "name": "",
          "type": "string"
        }
      ],
      "stateMutability": "view",
      "type": "function"
    },
    {
      "inputs": [],
      "name": "totalSupply",
      "outputs": [
        {
          "internalType": "uint256",
          "name": "",
          "type": "uint256"
        }
      ],
      "stateMutability": "view",
      "type": "function"
    },
    {
      "inputs": [
        {
          "internalType": "address",
          "name": "from",
          "type": "address"
        },
        {
          "internalType": "address",
          "name": "to",
          "type": "address"
        },
        {
          "internalType": "uint256",
          "name": "tokenId",
          "type": "uint256"
        }
      ],
      "name": "transferFrom",
      "outputs": [],
      "stateMutability": "nonpayable",
      "type": "function"
    },
    {
      "inputs": [
        {
          "internalType": "address",
          "name": "newOwner",
          "type": "address"
        }
      ],
      "name": "transferOwnership",
      "outputs": [],
      "stateMutability": "nonpayable",
      "type": "function"
    }
  ],
  "bytecode": "0x60806040523480156200001157600080fd5b5060405180604001604052806005815260200164135e53919560da1b815250604051806040016040528060048152602001631353919560e21b81525081600090816200005e91906200018d565b5060016200006d82826200018d565b5050506200008a620000846200009060201b60201c565b62000094565b62000259565b3390565b600b80546001600160a01b038381166001600160a01b0319831681179093556040519116919082907f8be0079c531659141344cd1fd0a4f28419497f9722a3daafe3b4186f6b6457e090600090a35050565b634e487b7160e01b600052604160045260246000fd5b600181811c908216806200011157607f821691505b6020821081036200013257634e487b7160e01b600052602260045260246000fd5b50919050565b601f82111562000188576000816000526020600020601f850160051c81016020861015620001635750805b601f850160051c820191505b8181101562000184578281556001016200016f565b5050505b505050565b81516001600160401b03811115620001a957620001a9620000e6565b620001c181620001ba8454620000fc565b8462000138565b602080601f831160018114620001f95760008415620001e05750858301515b600019600386901b1c1916600185901b17855562000184565b600085815260208120601f198616915b828110156200022a5788860151825594840194600190910190840162000209565b5085821015620002495787850151600019600388901b60f8161c191681555b5050505050600190811b01905550565b612a0980620002696000396000f3fe6080604052600436106101b75760003560e01c806370a08231116100ec578063a22cb4651161008a578063e5afe3e611610064578063e5afe3e6146104d8578063e985e9c514610505578063f2fde38b1461054e578063fcce48831461056e57600080fd5b8063a22cb46514610478578063b88d4fde14610498578063c87b56dd146104b857600080fd5b80638b305930116100c65780638b305930146103ef5780638da5cb5b1461042557806394383f141461044357806395d89b411461046357600080fd5b806370a082311461039a578063715018a6146103ba5780637570cfd4146103cf57600080fd5b806342842e0e1161015957806351ed82881161013357806351ed828814610325578063573a31a6146103385780636352211e1461035857806365e4e1c01461037857600080fd5b806342842e0e146102d0578063463b08db146102f05780634f6ccce71461030557600080fd5b8063095ea7b311610195578063095ea7b31461024b57806318160ddd1461026d57806323b872dd146102905780632f745c59146102b057600080fd5b806301ffc9a7146101bc57806306fdde03146101f1578063081812fc14610213575b600080fd5b3480156101c857600080fd5b506101dc6101d736600461219f565b61059e565b60405190151581526020015b60405180910390f35b3480156101fd57600080fd5b506102066105af565b6040516101e8919061220c565b34801561021f57600080fd5b5061023361022e36600461221f565b610641565b6040516001600160a01b0390911681526020016101e8565b34801561025757600080fd5b5061026b610266366004612254565b610668565b005b34801561027957600080fd5b50610282610782565b6040519081526020016101e8565b34801561029c57600080fd5b5061026b6102ab36600461227e565b610792565b3480156102bc57600080fd5b506102826102cb366004612254565b6107c3565b3480156102dc57600080fd5b5061026b6102eb36600461227e565b6107d6565b3480156102fc57600080fd5b50610282600581565b34801561031157600080fd5b5061028261032036600461221f565b6107f1565b61026b61033336600461221f565b610884565b34801561034457600080fd5b5061026b6103533660046123ec565b610a9a565b34801561036457600080fd5b5061023361037336600461221f565b610c84565b34801561038457600080fd5b5061038d610ce4565b6040516101e891906124e7565b3480156103a657600080fd5b506102826103b536600461252b565b610dd9565b3480156103c657600080fd5b5061026b610e5f565b3480156103db57600080fd5b5061038d6103ea36600461252b565b610e73565b3480156103fb57600080fd5b5061023361040a36600461221f565b600f602052600090815260409020546001600160a01b031681565b34801561043157600080fd5b50600b546001600160a01b0316610233565b34801561044f57600080fd5b5061026b61045e366004612546565b610fe5565b34801561046f57600080fd5b506102066111fb565b34801561048457600080fd5b5061026b610493366004612568565b61120a565b3480156104a457600080fd5b5061026b6104b33660046125a4565b611219565b3480156104c457600080fd5b506102066104d336600461221f565b61124b565b3480156104e457600080fd5b506102826104f336600461221f565b600d6020526000908152604090205481565b34801561051157600080fd5b506101dc610520366004612620565b6001600160a01b03918216600090815260056020908152604080832093909416825291909152205460ff1690565b34801561055a57600080fd5b5061026b61056936600461252b565b611256565b34801561057a57600080fd5b506101dc61058936600461221f565b600e6020526000908152604090205460ff1681565b60006105a9826112cf565b92915050565b6060600080546105be90612653565b80601f01602080910402602001604051908101604052809291908181526020018280546105ea90612653565b80156106375780601f1061060c57610100808354040283529160200191610637565b820191906000526020600020905b81548152906001019060200180831161061a57829003601f168201915b5050505050905090565b600061064c826112f4565b506000908152600460205260409020546001600160a01b031690565b600061067382610c84565b9050806001600160a01b0316836001600160a01b0316036106e55760405162461bcd60e51b815260206004820152602160248201527f4552433732313a20617070726f76616c20746f2063757272656e74206f776e656044820152603960f91b60648201526084015b60405180910390fd5b336001600160a01b038216148061070157506107018133610520565b6107735760405162461bcd60e51b815260206004820152603d60248201527f4552433732313a20617070726f76652063616c6c6572206973206e6f7420746f60448201527f6b656e206f776e6572206f7220617070726f76656420666f7220616c6c00000060648201526084016106dc565b61077d8383611344565b505050565b600061078d60095490565b905090565b61079c33826113b2565b6107b85760405162461bcd60e51b81526004016106dc9061268d565b61077d838383611431565b60006107cf83836115a2565b9392505050565b61077d83838360405180602001604052806000815250611219565b60006107fc60095490565b821061085f5760405162461bcd60e51b815260206004820152602c60248201527f455243373231456e756d657261626c653a20676c6f62616c20696e646578206f60448201526b7574206f6620626f756e647360a01b60648201526084016106dc565b60098281548110610872576108726126da565b90600052602060002001549050919050565b6000818152600d602052604090205461089c82611638565b6108df5760405162461bcd60e51b8152602060048201526014602482015273151bdad95b88191bd95cc81b9bdd08195e1a5cdd60621b60448201526064016106dc565b6000811161092f5760405162461bcd60e51b815260206004820152601a60248201527f5468697320746f6b656e206973206e6f7420666f722073616c6500000000000060448201526064016106dc565b803410156109775760405162461bcd60e51b8152602060048201526015602482015274139bdd08195b9bdd59da08195d1a195c881cd95b9d605a1b60448201526064016106dc565b600061098283610c84565b6000848152600f60205260408120549192506001600160a01b03909116906109b660646109b0866005611655565b90611661565b6040519091506001600160a01b0383169082156108fc029083906000818181858888f193505050501580156109ef573d6000803e3d6000fd5b506001600160a01b0383166108fc610a07348461166d565b6040518115909202916000818181858888f19350505050158015610a2f573d6000803e3d6000fd5b50610a3b833387611431565b6000858152600d60209081526040808320839055600e825291829020805460ff191690559051858152339187917f26701af1547d690b8c46ed5f0fbb8d5b115492b3b898f3dfc2e87b26cfcc1b14910160405180910390a35050505050565b610aa2611679565b8051825114610af35760405162461bcd60e51b815260206004820152601f60248201527f5552497320616e6420707269636573206c656e677468206d69736d617463680060448201526064016106dc565b600a82511115610b535760405162461bcd60e51b815260206004820152602560248201527f43616e206f6e6c79206d696e7420757020746f203130204e46547320617420616044820152642074696d6560d81b60648201526084016106dc565b60005b8251811015610c7e57600c8054906000610b6f83612706565b9091555050600c54610b8185826116d3565b610ba481858481518110610b9757610b976126da565b602002602001015161184e565b828281518110610bb657610bb66126da565b6020908102919091018101516000838152600d8352604080822092909255600f835281812080546001600160a01b0319166001600160a01b038a16908117909155600e90935220805460ff19169055845182907f23eae53a2b33c20fc1b74912840a6a2a72adc26effa68729f81e756c875df28990879086908110610c3d57610c3d6126da565b6020026020010151868681518110610c5757610c576126da565b6020026020010151604051610c6d92919061271f565b60405180910390a350600101610b56565b50505050565b6000818152600260205260408120546001600160a01b0316806105a95760405162461bcd60e51b8152602060048201526018602482015277115490cdcc8c4e881a5b9d985b1a59081d1bdad95b88125160421b60448201526064016106dc565b6060600060015b600c548111610d28576000818152600d602052604090205415610d165781610d1281612706565b9250505b80610d2081612706565b915050610ceb565b5060008167ffffffffffffffff811115610d4457610d446122ba565b604051908082528060200260200182016040528015610d6d578160200160208202803683370190505b509050600060015b600c548111610dd0576000818152600d602052604090205415610dbe5780838381518110610da557610da56126da565b602090810291909101015281610dba81612706565b9250505b80610dc881612706565b915050610d75565b50909392505050565b60006001600160a01b038216610e435760405162461bcd60e51b815260206004820152602960248201527f4552433732313a2061646472657373207a65726f206973206e6f7420612076616044820152683634b21037bbb732b960b91b60648201526084016106dc565b506001600160a01b031660009081526003602052604090205490565b610e67611679565b610e71600061190a565b565b60606000610e8083610dd9565b905060008167ffffffffffffffff811115610e9d57610e9d6122ba565b604051908082528060200260200182016040528015610ec6578160200160208202803683370190505b5090506000805b83811015610f49576000610ee187836107c3565b6000818152600d602052604090205490915015801590610f0f57506000818152600e602052604090205460ff165b15610f405780848481518110610f2757610f276126da565b602090810291909101015282610f3c81612706565b9350505b50600101610ecd565b5060008167ffffffffffffffff811115610f6557610f656122ba565b604051908082528060200260200182016040528015610f8e578160200160208202803683370190505b50905060005b82811015610fdb57838181518110610fae57610fae6126da565b6020026020010151828281518110610fc857610fc86126da565b6020908102919091010152600101610f94565b5095945050505050565b33610fef83610c84565b6001600160a01b0316146110455760405162461bcd60e51b815260206004820152601f60248201527f4f6e6c7920746865206f776e65722063616e206c69737420746865204e46540060448201526064016106dc565b61104e82611638565b6110915760405162461bcd60e51b8152602060048201526014602482015273151bdad95b88191bd95cc81b9bdd08195e1a5cdd60621b60448201526064016106dc565b600081116110e15760405162461bcd60e51b815260206004820152601f60248201527f5072696365206d7573742062652067726561746572207468616e207a65726f0060448201526064016106dc565b6000828152600e602052604090205460ff16156111355760405162461bcd60e51b815260206004820152601260248201527113919508185b1c9958591e481b1a5cdd195960721b60448201526064016106dc565b6000828152600d60208181526040808420858155600e83529320805460ff19166001179055525481146111bd5760405162461bcd60e51b815260206004820152602a60248201527f596f75206d757374206c69737420746865204e465420617420746865206d696e60448201526974696e6720707269636560b01b60648201526084016106dc565b817fa6cd73580a273eec6c1026108f6b63479fbaef5356dde4ff43e4b38dd187485f826040516111ef91815260200190565b60405180910390a25050565b6060600180546105be90612653565b61121533838361195c565b5050565b61122333836113b2565b61123f5760405162461bcd60e51b81526004016106dc9061268d565b610c7e84848484611a2a565b60606105a982611a5d565b61125e611679565b6001600160a01b0381166112c35760405162461bcd60e51b815260206004820152602660248201527f4f776e61626c653a206e6577206f776e657220697320746865207a65726f206160448201526564647265737360d01b60648201526084016106dc565b6112cc8161190a565b50565b60006001600160e01b0319821663780e9d6360e01b14806105a957506105a982611b65565b6112fd81611638565b6112cc5760405162461bcd60e51b8152602060048201526018602482015277115490cdcc8c4e881a5b9d985b1a59081d1bdad95b88125160421b60448201526064016106dc565b600081815260046020526040902080546001600160a01b0319166001600160a01b038416908117909155819061137982610c84565b6001600160a01b03167f8c5be1e5ebec7d5bd14f71427d1e84f3dd0314c0f7b2291e5b200ac8c7c3b92560405160405180910390a45050565b6000806113be83610c84565b9050806001600160a01b0316846001600160a01b0316148061140557506001600160a01b0380821660009081526005602090815260408083209388168352929052205460ff165b806114295750836001600160a01b031661141e84610641565b6001600160a01b0316145b949350505050565b826001600160a01b031661144482610c84565b6001600160a01b03161461146a5760405162461bcd60e51b81526004016106dc90612741565b6001600160a01b0382166114cc5760405162461bcd60e51b8152602060048201526024808201527f4552433732313a207472616e7366657220746f20746865207a65726f206164646044820152637265737360e01b60648201526084016106dc565b6114d98383836001611b8a565b826001600160a01b03166114ec82610c84565b6001600160a01b0316146115125760405162461bcd60e51b81526004016106dc90612741565b600081815260046020908152604080832080546001600160a01b03199081169091556001600160a01b0387811680865260038552838620805460001901905590871680865283862080546001019055868652600290945282852080549092168417909155905184937fddf252ad1be2c89b69c2b068fc378daa952ba7f163c4a11628f55a4df523b3ef91a4505050565b60006115ad83610dd9565b821061160f5760405162461bcd60e51b815260206004820152602b60248201527f455243373231456e756d657261626c653a206f776e657220696e646578206f7560448201526a74206f6620626f756e647360a81b60648201526084016106dc565b506001600160a01b03919091166000908152600760209081526040808320938352929052205490565b6000908152600260205260409020546001600160a01b0316151590565b60006107cf8284612786565b60006107cf828461279d565b60006107cf82846127bf565b600b546001600160a01b03163314610e715760405162461bcd60e51b815260206004820181905260248201527f4f776e61626c653a2063616c6c6572206973206e6f7420746865206f776e657260448201526064016106dc565b6001600160a01b0382166117295760405162461bcd60e51b815260206004820181905260248201527f4552433732313a206d696e7420746f20746865207a65726f206164647265737360448201526064016106dc565b61173281611638565b1561177f5760405162461bcd60e51b815260206004820152601c60248201527f4552433732313a20746f6b656e20616c7265616479206d696e7465640000000060448201526064016106dc565b61178d600083836001611b8a565b61179681611638565b156117e35760405162461bcd60e51b815260206004820152601c60248201527f4552433732313a20746f6b656e20616c7265616479206d696e7465640000000060448201526064016106dc565b6001600160a01b038216600081815260036020908152604080832080546001019055848352600290915280822080546001600160a01b0319168417905551839291907fddf252ad1be2c89b69c2b068fc378daa952ba7f163c4a11628f55a4df523b3ef908290a45050565b61185782611638565b6118ba5760405162461bcd60e51b815260206004820152602e60248201527f45524337323155524953746f726167653a2055524920736574206f66206e6f6e60448201526d32bc34b9ba32b73a103a37b5b2b760911b60648201526084016106dc565b60008281526006602052604090206118d28282612822565b506040518281527ff8e1a15aba9398e019f0b49df1a4fde98ee17ae345cb5f6b5e2c27f5033e8ce79060200160405180910390a15050565b600b80546001600160a01b038381166001600160a01b0319831681179093556040519116919082907f8be0079c531659141344cd1fd0a4f28419497f9722a3daafe3b4186f6b6457e090600090a35050565b816001600160a01b0316836001600160a01b0316036119bd5760405162461bcd60e51b815260206004820152601960248201527f4552433732313a20617070726f766520746f2063616c6c65720000000000000060448201526064016106dc565b6001600160a01b03838116600081815260056020908152604080832094871680845294825291829020805460ff191686151590811790915591519182527f17307eab39ab6107e8899845ad3d59bd9653f200f220920489ca2b5937696c31910160405180910390a3505050565b611a35848484611431565b611a4184848484611b96565b610c7e5760405162461bcd60e51b81526004016106dc906128e2565b6060611a68826112f4565b60008281526006602052604081208054611a8190612653565b80601f0160208091040260200160405190810160405280929190818152602001828054611aad90612653565b8015611afa5780601f10611acf57610100808354040283529160200191611afa565b820191906000526020600020905b815481529060010190602001808311611add57829003601f168201915b505050505090506000611b1860408051602081019091526000815290565b90508051600003611b2a575092915050565b815115611b5c578082604051602001611b44929190612934565b60405160208183030381529060405292505050919050565b61142984611c97565b60006001600160e01b03198216632483248360e11b14806105a957506105a982611d0a565b610c7e84848484611d5a565b60006001600160a01b0384163b15611c8c57604051630a85bd0160e11b81526001600160a01b0385169063150b7a0290611bda903390899088908890600401612963565b6020604051808303816000875af1925050508015611c15575060408051601f3d908101601f19168201909252611c12918101906129a0565b60015b611c72573d808015611c43576040519150601f19603f3d011682016040523d82523d6000602084013e611c48565b606091505b508051600003611c6a5760405162461bcd60e51b81526004016106dc906128e2565b805181602001fd5b6001600160e01b031916630a85bd0160e11b149050611429565b506001949350505050565b6060611ca2826112f4565b6000611cb960408051602081019091526000815290565b90506000815111611cd957604051806020016040528060008152506107cf565b80611ce384611e8e565b604051602001611cf4929190612934565b6040516020818303038152906040529392505050565b60006001600160e01b031982166380ac58cd60e01b1480611d3b57506001600160e01b03198216635b5e139f60e01b145b806105a957506301ffc9a760e01b6001600160e01b03198316146105a9565b6001811115611dc95760405162461bcd60e51b815260206004820152603560248201527f455243373231456e756d657261626c653a20636f6e7365637574697665207472604482015274185b9cd9995c9cc81b9bdd081cdd5c1c1bdc9d1959605a1b60648201526084016106dc565b816001600160a01b038516611e2557611e2081600980546000838152600a60205260408120829055600182018355919091527f6e1540171b6c0c960b71a7020d9f60077f6af931a8bbf590da0223dacf75c7af0155565b611e48565b836001600160a01b0316856001600160a01b031614611e4857611e488582611f21565b6001600160a01b038416611e6457611e5f81611fbe565b611e87565b846001600160a01b0316846001600160a01b031614611e8757611e87848261206d565b5050505050565b60606000611e9b836120b1565b600101905060008167ffffffffffffffff811115611ebb57611ebb6122ba565b6040519080825280601f01601f191660200182016040528015611ee5576020820181803683370190505b5090508181016020015b600019016f181899199a1a9b1b9c1cb0b131b232b360811b600a86061a8153600a8504945084611eef57509392505050565b60006001611f2e84610dd9565b611f3891906127bf565b600083815260086020526040902054909150808214611f8b576001600160a01b03841660009081526007602090815260408083208584528252808320548484528184208190558352600890915290208190555b5060009182526008602090815260408084208490556001600160a01b039094168352600781528383209183525290812055565b600954600090611fd0906001906127bf565b6000838152600a602052604081205460098054939450909284908110611ff857611ff86126da565b906000526020600020015490508060098381548110612019576120196126da565b6000918252602080832090910192909255828152600a90915260408082208490558582528120556009805480612051576120516129bd565b6001900381819060005260206000200160009055905550505050565b600061207883610dd9565b6001600160a01b039093166000908152600760209081526040808320868452825280832085905593825260089052919091209190915550565b60008072184f03e93ff9f4daa797ed6e38ed64bf6a1f0160401b83106120f05772184f03e93ff9f4daa797ed6e38ed64bf6a1f0160401b830492506040015b6d04ee2d6d415b85acef8100000000831061211c576d04ee2d6d415b85acef8100000000830492506020015b662386f26fc10000831061213a57662386f26fc10000830492506010015b6305f5e1008310612152576305f5e100830492506008015b612710831061216657612710830492506004015b60648310612178576064830492506002015b600a83106105a95760010192915050565b6001600160e01b0319811681146112cc57600080fd5b6000602082840312156121b157600080fd5b81356107cf81612189565b60005b838110156121d75781810151838201526020016121bf565b50506000910152565b600081518084526121f88160208601602086016121bc565b601f01601f19169290920160200192915050565b6020815260006107cf60208301846121e0565b60006020828403121561223157600080fd5b5035919050565b80356001600160a01b038116811461224f57600080fd5b919050565b6000806040838503121561226757600080fd5b61227083612238565b946020939093013593505050565b60008060006060848603121561229357600080fd5b61229c84612238565b92506122aa60208501612238565b9150604084013590509250925092565b634e487b7160e01b600052604160045260246000fd5b604051601f8201601f1916810167ffffffffffffffff811182821017156122f9576122f96122ba565b604052919050565b600067ffffffffffffffff82111561231b5761231b6122ba565b5060051b60200190565b600067ffffffffffffffff83111561233f5761233f6122ba565b612352601f8401601f19166020016122d0565b905082815283838301111561236657600080fd5b828260208301376000602084830101529392505050565b600082601f83011261238e57600080fd5b813560206123a361239e83612301565b6122d0565b8083825260208201915060208460051b8701019350868411156123c557600080fd5b602086015b848110156123e157803583529183019183016123ca565b509695505050505050565b60008060006060848603121561240157600080fd5b61240a84612238565b925060208085013567ffffffffffffffff8082111561242857600080fd5b818701915087601f83011261243c57600080fd5b813561244a61239e82612301565b81815260059190911b8301840190848101908a83111561246957600080fd5b8585015b838110156124b6578035858111156124855760008081fd5b8601603f81018d136124975760008081fd5b6124a88d8983013560408401612325565b84525091860191860161246d565b509650505060408701359250808311156124cf57600080fd5b50506124dd8682870161237d565b9150509250925092565b6020808252825182820181905260009190848201906040850190845b8181101561251f57835183529284019291840191600101612503565b50909695505050505050565b60006020828403121561253d57600080fd5b6107cf82612238565b6000806040838503121561255957600080fd5b50508035926020909101359150565b6000806040838503121561257b57600080fd5b61258483612238565b91506020830135801515811461259957600080fd5b809150509250929050565b600080600080608085870312156125ba57600080fd5b6125c385612238565b93506125d160208601612238565b925060408501359150606085013567ffffffffffffffff8111156125f457600080fd5b8501601f8101871361260557600080fd5b61261487823560208401612325565b91505092959194509250565b6000806040838503121561263357600080fd5b61263c83612238565b915061264a60208401612238565b90509250929050565b600181811c9082168061266757607f821691505b60208210810361268757634e487b7160e01b600052602260045260246000fd5b50919050565b6020808252602d908201527f4552433732313a2063616c6c6572206973206e6f7420746f6b656e206f776e6560408201526c1c881bdc88185c1c1c9bdd9959609a1b606082015260800190565b634e487b7160e01b600052603260045260246000fd5b634e487b7160e01b600052601160045260246000fd5b600060018201612718576127186126f0565b5060010190565b60408152600061273260408301856121e0565b90508260208301529392505050565b60208082526025908201527f4552433732313a207472616e736665722066726f6d20696e636f72726563742060408201526437bbb732b960d91b606082015260800190565b80820281158282048414176105a9576105a96126f0565b6000826127ba57634e487b7160e01b600052601260045260246000fd5b500490565b818103818111156105a9576105a96126f0565b601f82111561077d576000816000526020600020601f850160051c810160208610156127fb5750805b601f850160051c820191505b8181101561281a57828155600101612807565b505050505050565b815167ffffffffffffffff81111561283c5761283c6122ba565b6128508161284a8454612653565b846127d2565b602080601f831160018114612885576000841561286d5750858301515b600019600386901b1c1916600185901b17855561281a565b600085815260208120601f198616915b828110156128b457888601518255948401946001909101908401612895565b50858210156128d25787850151600019600388901b60f8161c191681555b5050505050600190811b01905550565b60208082526032908201527f4552433732313a207472616e7366657220746f206e6f6e20455243373231526560408201527131b2b4bb32b91034b6b83632b6b2b73a32b960711b606082015260800190565b600083516129468184602088016121bc565b83519083019061295a8183602088016121bc565b01949350505050565b6001600160a01b0385811682528416602082015260408101839052608060608201819052600090612996908301846121e0565b9695505050505050565b6000602082840312156129b257600080fd5b81516107cf81612189565b634e487b7160e01b600052603160045260246000fdfea26469706673582212200f177258750d119f04dfa37fdf7ef745bc4835c1540f5b70923587d61ee3ea1464736f6c63430008180033",
  "linkReferences": {},
  "deployedLinkReferences": {}
}